:020000040800F2
:1000000000000220ED4500083C460008404600087C
:1000100044460008484600084C4600085046000880
:100020005046000850460008504600085046000858
:10003000504600085046000879030008510C00089B
:10004000510400085D0400086904000875040008F4
:10005000810400088D04000899040008A504000824
:10006000B1040008BD040008C9040008D504000854
:10007000E1040008ED040008F90400080505000883
:10008000110500081D0500082905000835050008B0
:10009000410500084D0500085905000865050008E0
:1000A000710500087D050008890500089505000810
:1000B000A1050008AD050008B9050008C505000840
:1000C000D1050008DD050008E9050008F505000870
:1000D000010600080D06000819060008250600089C
:1000E000310600083D0600084906000855060008CC
:1000F000610600086D0600087906000885060008FC
:10010000910600089D060008A9060008B50600082B
:10011000C1060008CD060008D9060008E50600085B
:10012000F1060008FD060008090700081507000889
:10013000210700082D0700083907000845070008B7
:10014000510700085D0700086907000875070008E7
:10015000810700088D07000899070008A507000817
:10016000B1070008BD070008C9070008D507000847
:10017000E1070008ED070008F90700080508000876
:10018000110800081D08000810B5054C237833B984
:10019000044B13B10448AFF300800123237010BD5A
:1001A0004804002000000000EC50000808B5064B91
:1001B0001BB106480649AFF300800648036813B137
:1001C000054B03B1984708BD00000000EC50000843
:1001D0004C040020440400200000000072B6704768
:1001E00062B67047EFF3108072B6704780F31088E4
:1001F000704730BF704720BF7047B0FA80F070473B
:1002000090FAA0F0B0FA80F0704790FAA0F0704732
:1002100080B586B000AFF8600B467A607B81002322
:100220007B61314B1B78002B04D07B6847F2752231
:100230001A8056E02D4B1B78002B04D07B6846F6C5
:1002400063521A804DE07B89082B1ED801A252F818
:1002500023F000BF790200088B0200087902000831
:100260008B020008950200088B0200088B02000830
:100270008B02000879020008FB68002B04D17B6820
:1002800047F27E221A802CE005E07B6845F6256265
:100290001A8026E000BFFFF7A5FF7861144B1B68AA
:1002A000012283F83620124B1A687B891046F968C0
:1002B0001A467B6800F0FCFD7B681B88002B03D08E
:1002C0007869FFF793FF0CE0094B1B68184602F0B2
:1002D00027FC7869FFF78AFF01F08CFF7B6800221A
:1002E0001A801837BD4680BD5E7C00205078002003
:1002F000387C002080B582B000AF00F09DFCBB1DB3
:100300000D4800211A4603F09FFD0C4B1B685A1E36
:100310000A4B1A60094B1B68002B09D1084B1A685D
:10032000064B1A60BB1D074800211A4603F08CFDDE
:100330000837BD4680BD00BF747B0020FC7E0020D6
:10034000F47E0020647C00201C481D4901700020C0
:1003500080F309881B48016881F308881A481B4903
:10036000016062B6FFF7FEBF174818490160704789
:10037000154816490160704772B6EFF3098028B13D
:10038000203880E8F00F12490968086000B511486C
:1003900080475DF804EB104810490A7802700C4859
:1003A0000F490A680260106890E8F00F203080F36F
:1003B00009884EF0040E62B67047000022ED00E09E
:1003C000FF000000B867002004ED00E0000000100E
:1003D000387C0020C90B0008707B0020647B002063
:1003E000447C002080B500AFFFF7F8FE80BD00BF61
:1003F00080B584B000AF786039600023FB607B6813
:10040000512B0AD8FFF7EEFEF860054B7A68396881
:1004100043F82210F868FFF7E9FE1037BD4680BDAB
:100420006404002080B582B000AF00237B6006E04A
:1004300078680649FFF7DCFF7B6801337B607B68E7
:10044000512BF5D90837BD4680BD00BF6D080008A7
:1004500080B500AF002000F0E7F980BD80B500AFA7
:10046000012000F0E1F980BD80B500AF022000F06E
:10047000DBF980BD80B500AF032000F0D5F980BD69
:1004800080B500AF042000F0CFF980BD80B500AF8B
:10049000052000F0C9F980BD80B500AF062000F04E
:1004A000C3F980BD80B500AF072000F0BDF980BD65
:1004B00080B500AF082000F0B7F980BD80B500AF6F
:1004C000092000F0B1F980BD80B500AF0A2000F02E
:1004D000ABF980BD80B500AF0B2000F0A5F980BD61
:1004E00080B500AF0C2000F09FF980BD80B500AF53
:1004F0000D2000F099F980BD80B500AF0E2000F00E
:1005000093F980BD80B500AF0F2000F08DF980BD5C
:1005100080B500AF102000F087F980BD80B500AF36
:10052000112000F081F980BD80B500AF122000F0ED
:100530007BF980BD80B500AF132000F075F980BD58
:1005400080B500AF142000F06FF980BD80B500AF1A
:10055000152000F069F980BD80B500AF162000F0CD
:1005600063F980BD80B500AF172000F05DF980BD54
:1005700080B500AF182000F057F980BD80B500AFFE
:10058000192000F051F980BD80B500AF1A2000F0AD
:100590004BF980BD80B500AF1B2000F045F980BD50
:1005A00080B500AF1C2000F03FF980BD80B500AFE2
:1005B0001D2000F039F980BD80B500AF1E2000F08D
:1005C00033F980BD80B500AF1F2000F02DF980BD4C
:1005D00080B500AF202000F027F980BD80B500AFC6
:1005E000212000F021F980BD80B500AF222000F06D
:1005F0001BF980BD80B500AF232000F015F980BD48
:1006000080B500AF242000F00FF980BD80B500AFA9
:10061000252000F009F980BD80B500AF262000F04C
:1006200003F980BD80B500AF272000F0FDF880BD44
:1006300080B500AF282000F0F7F880BD80B500AF8E
:10064000292000F0F1F880BD80B500AF2A2000F02D
:10065000EBF880BD80B500AF2B2000F0E5F880BD41
:1006600080B500AF2C2000F0DFF880BD80B500AF72
:100670002D2000F0D9F880BD80B500AF2E2000F00D
:10068000D3F880BD80B500AF2F2000F0CDF880BD3D
:1006900080B500AF302000F0C7F880BD80B500AF56
:1006A000312000F0C1F880BD80B500AF322000F0ED
:1006B000BBF880BD80B500AF332000F0B5F880BD39
:1006C00080B500AF342000F0AFF880BD80B500AF3A
:1006D000352000F0A9F880BD80B500AF362000F0CD
:1006E000A3F880BD80B500AF372000F09DF880BD35
:1006F00080B500AF382000F097F880BD80B500AF1E
:10070000392000F091F880BD80B500AF3A2000F0AC
:100710008BF880BD80B500AF3B2000F085F880BD30
:1007200080B500AF3C2000F07FF880BD80B500AF01
:100730003D2000F079F880BD80B500AF3E2000F08C
:1007400073F880BD80B500AF3F2000F06DF880BD2C
:1007500080B500AF402000F067F880BD80B500AFE5
:10076000412000F061F880BD80B500AF422000F06C
:100770005BF880BD80B500AF432000F055F880BD28
:1007800080B500AF442000F04FF880BD80B500AFC9
:10079000452000F049F880BD80B500AF462000F04C
:1007A00043F880BD80B500AF472000F03DF880BD24
:1007B00080B500AF482000F037F880BD80B500AFAD
:1007C000492000F031F880BD80B500AF4A2000F02C
:1007D0002BF880BD80B500AF4B2000F025F880BD20
:1007E00080B500AF4C2000F01FF880BD80B500AF91
:1007F0004D2000F019F880BD80B500AF4E2000F00C
:1008000013F880BD80B500AF4F2000F00DF880BD1B
:1008100080B500AF502000F007F880BD80B500AF74
:10082000512000F001F880BD80B584B000AF786041
:100830000023FB60FFF7D6FCF86001F055FCF86878
:10084000FFF7D4FC7B68512B09D8074B7A6853F823
:100850002230BB60BB68002B01D0BB68984701F019
:100860005DFC1037BD4680BD6404002080B400AF3D
:10087000BD465DF8047B704780B483B000AF1E4B6B
:100880007B607B681D4A1A607B681B4A5A607B68E4
:1008900000229A607B680022DA607B6800221A617D
:1008A0007B6800225A617B6800229A617B68002283
:1008B000DA617B6800221A627B6800221A637B6817
:1008C0000022DA627B6800225A627B680C4A9A63D3
:1008D0007B680B4ADA637B684FF4B8421A647B6822
:1008E0004FF4B8425A64074B034A1A600C37BD46AE
:1008F0005DF8047B704700BF6C0B002048454150F9
:10090000B40B0020B467002080B582B000AF7860DF
:100910003960786800213A6800F004F80837BD466D
:1009200080BD00BF80B48BB000AFF8600B467A602A
:10093000FB727B68002B00D151E0FB68002B00D1DB
:100940004DE000233B6200237B6109E03B6A1B0210
:100950003B62FB7A3A6A13433B627B6901337B61FA
:100960007B69032BF2D97B687B62FB68DBB203F007
:1009700003033B61FB68BB613B69002B13D03B6900
:100980007B610AE0BB695A1CBA61FA7A1A707B6A09
:10099000013B7B627B6901337B617B6A002B02D068
:1009A0007B69032BEED9BB69FB6107E0FB691A1D6C
:1009B000FA613A6A1A607B6A043B7B627B6A032BAA
:1009C000F4D8FB69BB6107E0BB695A1CBA61FA7ACB
:1009D0001A707B6A013B7B627B6A002BF4D12C3757
:1009E000BD465DF8047B704780B500AF034B1B68C4
:1009F000002B02D0014B1B68984780BDFC7D002076
:100A000080B400AF094B1A68094B1B689B001A445D
:100A1000084B1A60074B1B6823F007031A46054B67
:100A20001A60BD465DF8047B704700BF4050000867
:100A300044500008B867002080B500AF034B1B6826
:100A4000002B02D0014B1B68984780BD187E002008
:100A500080B582B000AF7860054B1B68002B03D0D7
:100A6000034B1B68786898470837BD4680BD00BFB8
:100A70006C7B002080B582B000AF7860054B1B68AE
:100A8000002B03D0034B1B68786898470837BD4696
:100A900080BD00BF507C002080B582B000AF786080
:100AA000054B1B68002B03D0034B1B6878689847E5
:100AB0000837BD4680BD00BF5478002080B487B0A1
:100AC00000AFF860B9607A603B603B6A9B007A686F
:100AD00013447B617B6923F007037B617B69043BE3
:100AE0007B617B694FF080721A607B69043B7B619C
:100AF000FA687B691A607B69043B7B61314A7B69D8
:100B00001A607B69043B7B617B694FF012321A608B
:100B10007B69043B7B617B694FF003321A607B6920
:100B2000043B7B617B694FF002321A607B69043BB6
:100B30007B613A687B691A607B69043B7B61BA68B8
:100B40007B691A607B69043B7B617B694FF01132E2
:100B50001A607B69043B7B617B694FF010321A603D
:100B60007B69043B7B617B694FF009321A607B69CA
:100B7000043B7B617B694FF008321A607B69043B60
:100B80007B617B694FF007321A607B69043B7B61B4
:100B90007B694FF006321A607B69043B7B617B699D
:100BA0004FF005321A607B69043B7B617B694FF033
:100BB00004321A607B6918461C37BD465DF8047B19
:100BC000704700BF8943000880B582B000AF174B63
:100BD0001B68002B02D0154B1B68984703F004FEDE
:100BE0007860134B1A68134B1B689A4216D0104B4F
:100BF0001B680F4A1268D2F8982079688A1AC3F8DD
:100C000094200B4B1B680A4A1268D2F89C10084AC1
:100C10001268D2F894200A44C3F89C20054B1B6844
:100C20007A68C3F898200837BD4680BD087E00204A
:100C3000387C0020447C002080B500AF034B1B684B
:100C4000002B02D0014B1B68984780BD547C0020CC
:100C500080B582B000AF00237B60FFF7C3FA7860F5
:100C6000074B1B780133DAB2054B1A707868FFF72F
:100C7000BDFAFFF73FFB01F051FA0837BD4680BDD2
:100C80005E7C002080B485B000AF78600F4B7A683E
:100C9000013A1A600E4B1B68FB60FB6823F07F4330
:100CA000FB600B4BFA681A600A4B0A4A126842F062
:100CB00005021A60074B074A126842F002021A60E6
:100CC0001437BD465DF8047B704700BF14E000E0B8
:100CD00020ED00E010E000E080B500AF00F02CF85F
:100CE00000F024F880BD00BF80B582B000AF0023C3
:100CF0007B60FFF777FA786004481021FFF704FE65
:100D00007868FFF773FA0837BD4680BDC0670020DA
:100D100080B483B000AF7860034B7A681A600C37F8
:100D2000BD465DF8047B7047BC67002080B500AF0E
:100D3000FFF7DAFF80BD00BF80B500AF024B002295
:100D40001A6003F02FFD80BDBC67002080B483B023
:100D500000AF7860064B00221A60064B00221A8012
:100D60007B6800221A800C37BD465DF8047B704713
:100D7000207E00201C7E002080B584B000AF78600B
:100D800007F1080207F10E030020002102F06CFFBA
:100D9000FB89002B06D1044B1B78012B02D100F0FC
:100DA000E7F9EDE7ECE700BF6178002080B58CB093
:100DB0000AAF7860214B00221A60214B00221A6092
:100DC00000F050F81F4B1B68002B04D17B6847F2E2
:100DD00012221A802FE01C4B1A681C4B1B689A4287
:100DE00004D27B6847F213221A8024E0184B1B7848
:100DF0003E2B04D97B6847F211221A801BE0144B6A
:100E00001878104B1968134B1A680F4B1B68009029
:100E1000019102920393002304930023059300237E
:100E200006930B2307937B6808930B480B490C4AE6
:100E3000002302F04DFD0837BD4680BD047E002032
:100E4000F07E00207C50000884500008705000089C
:100E50007850000880500008747B0020E84D00089E
:100E6000790D000880B483B000AF0023FB8010E050
:100E7000FB88DA000C4B13443B603B6800221A608D
:100E80003B6800229A803B680022DA80FB880133AD
:100E9000FB80064B1B88FA889A42E9D30C37BD4683
:100EA0005DF8047B704700BF0C8100208C50000867
:100EB00080B48BB000AFF860B9603B601346FB8034
:100EC000FB88042B1FD1744B1B68BA68D31A013BF3
:100ED0003B623B6A13F5803F0DD9FB680022DA6460
:100EE000FB6800221A65FB680022DA613B6847F262
:100EF0007E221A80CAE0FB68BA68DA643B6A5A1C30
:100F0000FB681A6542E0BB68002B31D0FB88082BD8
:100F100024D1FB689A6CBB681344FB615E4B1B6871
:100F2000FA69D31A013B3B623A6ABB689A4203D220
:100F3000FB68FA69DA6405E0574B1A68BB681A4423
:100F4000FB68DA64FB68DA6C534B1B68D21AFB68E7
:100F50001A65FB68DA6CFB689A6417E04E4B1A68F6
:100F6000BB681A44FB68DA64FB68BA681A650DE06E
:100F7000FB680022DA64FB6800221A65FB68002225
:100F8000DA613B6847F27E221A807FE0FB68DB6C07
:100F9000424A1288B3FBF2F102FB01F29B1A7B83F7
:100FA0007B8BDA003E4B13447B617B699B88002B73
:100FB0000CD1FB6800225A61FB6800229A617B69B0
:100FC000FA681A607B6901229A804FE07B691B688E
:100FD0007B6242E07B6ADA6C2F4B1B68D21A7B6A19
:100FE0001A65FB681A6D7B6A1B6D9A4213D97B6A7E
:100FF0005B69002B03D07B6A5B697B622DE0FB6839
:1010000000225A61FB687A6A9A617B6AFA685A61BF
:1010100000237B6221E07B6A9B69002B0CD1FB687B
:1010200000229A61FB687A6A5A617B6AFA689A615F
:101030007B69FA681A600EE07B6A9B693B61FB681A
:101040003A699A61FB687A6A5A613B69FA685A613F
:101050007B6AFA689A6100237B627B6A002BB9D1B4
:101060007B699B8801339AB27B699A807B69DA88B5
:101070007B699B889A4203D27B699A887B69DA8074
:10108000FB687A69DA613B6800221A802C37BD461A
:101090005DF8047B704700BF047E00208C50000880
:1010A0000C81002080B487B000AF78607B68DB697A
:1010B0007B617B69002B35D07B6800221A657B69D8
:1010C0001A687B689A420CD17B685B693B617B69DB
:1010D0003A691A603B69002B12D03B6900229A6181
:1010E0000EE07B689B693B617B685B69FB603B69E9
:1010F000FA685A61FB68002B02D0FB683A699A6172
:101100007B6800225A617B6800229A617B6800221A
:10111000DA617B680022DA647B699B88013B9AB2C2
:101120007B699A801C37BD465DF8047B704700BF21
:1011300080B483B000AF0023FB800AE0FB88DA00B4
:10114000094B13443B603B680022DA80FB88013383
:10115000FB80064B1B88FA889A42EFD30C37BD46BA
:101160005DF8047B704700BF0C8100208C500008A4
:1011700080B588B000AF00237B61FFF733F878615A
:1011800003F032FB3861734B1B685A1C714B1A60B9
:10119000704B1B68704A1288B3FBF2F102FB01F23C
:1011A0009B1AFB81FB89DA006C4B1344BB60BB6864
:1011B0001B68BB610023FB77B4E0BB69002B00F028
:1011C000AF80BB695B697B60BB6993F83630072BE6
:1011D00000F2A28001A252F823F000BF1913000808
:1011E000FD110008191300082D120008191300083A
:1011F0008B12000819130008BB120008BB69DA6CD7
:10120000544B1B68D21ABB691A65BB69DA6C514B27
:101210001B689A4207D1BB69002283F83620B8695F
:1012200001F0FAFC79E00123FB7776E0BB69DA6C28
:10123000484B1B68D21ABB691A65BB69DA6C454B0F
:101240001B689A421ED1BB690022DA65BB69002285
:10125000A3F8602003F0C8FA0246BB691A64B869B3
:1012600001F074FAB86901F0D7FCBB69002283F879
:101270003620BB69032283F83520BB69002283F83E
:1012800034204AE00123FB7747E0BB69DA6C314B3D
:101290001B68D21ABB691A65BB69DA6C2D4B1B68D7
:1012A0009A4207D1BB69042283F83620B869FFF758
:1012B000F9FE32E00123FB772FE0BB69DA6C254BA6
:1012C0001B68D21ABB691A65BB69DA6C214B1B68B3
:1012D0009A421ED1BB690022DA65BB690022A3F8DD
:1012E000602003F081FA0246BB691A64B86901F014
:1012F0002DFAB869FFF7D6FEBB69042283F83620C1
:10130000BB69032283F83520BB69002283F83420AF
:1013100003E00123FB7700E000BF7B68BB6101E0D5
:101320000123FB77FB7F002B3FF447AF03F05CFA10
:1013300002463B69D31A3B60094B1A683B689A42E4
:1013400002D2074B3A681A607869FEF74FFF2037E0
:10135000BD4680BD047E00208C5000080C8100201A
:10136000F07E002080B483B000AF78600C37BD46BB
:101370005DF8047B704700BF80B483B000AF786035
:101380000C37BD465DF8047B704700BF80B483B066
:1013900000AF78600C37BD465DF8047B704700BF36
:1013A00080B483B000AF78600C37BD465DF8047B35
:1013B000704700BF80B483B000AF78600C37BD4683
:1013C0005DF8047B704700BF80B487B000AF7860E1
:1013D0002E4B1B68002B04D17B6845F21E721A80CD
:1013E0004EE02B4B1B88002B04D17B6845F21D720D
:1013F0001A8045E0254B1B687B61244B1B683B61D1
:101400003B6910333B61224B1B88013BBB810023AE
:10141000FB8114E07B693A691A607B6900225A609B
:101420007B6900221A817B690022DA607B691033B4
:101430007B613B6910333B61FB890133FB81FA8996
:10144000BB899A42E6D37B6900221A607B6900223D
:101450005A607B6900221A817B690022DA600B4B9B
:101460001A680C4B1A600A4B1A880A4B9A80094B6F
:101470000022DA80074B00221A817B6800221A8042
:101480001C37BD465DF8047B704700BF5450000810
:101490004C500008247D002080B485B000AF7860F7
:1014A0007B685B89FB817B685B89002B26D07B682E
:1014B0001B68BB60154B1A68BB681A607B685A686A
:1014C000124B1A60114BDA887B685B89D31A9AB287
:1014D0000E4BDA800D4B9A887B685B8913449AB275
:1014E0000A4B9A807B6800225A817B6800229A818D
:1014F0007B6800221A607B6800225A60FB891846CC
:101500001437BD465DF8047B704700BF247D002082
:1015100080B483B000AF78600B467B807B687A88AC
:101520001A817B6800225A817B6800229A817B683D
:1015300000221A607B6800225A600C37BD465DF8B5
:10154000047B704780B58EB00AAF0920012100F0FE
:10155000DBFA4FF470437B6001233B720023BB72C4
:1015600003237B720023FB723B1D5D48194601F08B
:10157000F7FF01237B6000233B723B1D594819464E
:1015800001F0EEFFFEF72EFF07F10E03184600F004
:10159000D3FC554B5B6E02220092534A0192029398
:1015A0004FF48073039300230493002305930023D7
:1015B00006930323079307F10E0308934B484C4906
:1015C0004C4A002302F084F94B4B1B6B0A22009219
:1015D000494A01920293802303930023049300233A
:1015E0000593002306930323079307F10E03089343
:1015F00042484349434A002302F06AF9424B1B6BBD
:101600000A220092404A019202938023039300230E
:10161000049300230593002306930323079307F104
:101620000E03089339483A493A4A002302F050F928
:10163000394B1B6B0A220092374A01920293802396
:1016400003930023049300230593002306930323AD
:10165000079307F10E03089330483149314A0023BC
:1016600002F036F9304B1B6B0A2200922E4A01928F
:101670000293802303930023049300230593002304
:1016800006930323079307F10E030893274828497D
:10169000284A002302F01CF9274B1B6B0A220092F8
:1016A000254A01920293802303930023049300238D
:1016B0000593002306930323079307F10E03089372
:1016C0001E481F491F4A002302F002F907F10E03CA
:1016D000184600F061FE002318461037BD4680BD55
:1016E000000C0240000002402C070020AC05002046
:1016F000FC4D000849170008506900209073002035
:101700000C4E00086513000850760020106C002075
:10171000144E000879130008906D00209068002096
:101720001C4E00088D13000850740020506B0020E0
:10173000204E0008A113000890710020D06C0020FA
:10174000444E0008B513000880B584B000AF78603F
:1017500002F096FFFFF7C0FA02F0DCFFFFF78CF80B
:1017600001F0B8FF07F10E03184601F0F7FA103741
:10177000BD4680BD80B400AF164B164A126842F0D9
:1017800001021A60134B00229A60124A114B1B6827
:1017900023F0A85323F4102313600E4B0E4A5A6013
:1017A0000C4B0E4AC3F884200A4B0D4AC3F888201C
:1017B000084B084A126822F480221A60054B002266
:1017C000DA60044B0022C3F88C20BD465DF8047B30
:1017D000704700BF00380240103000240030002065
:1017E0000030002480B483B000AF0346FB71054B8A
:1017F00000221A70034BFA791A700C37BD465DF857
:10180000047B70470238024080B582B000AF0023ED
:101810003B600023FB710023BB71312000F092F983
:101820000346BB713B6801333B603B68B3F5A04F97
:1018300002D0BB79002BF0D0312000F083F90346B1
:10184000002B02D00123FB7101E00023FB71FB7927
:1018500018460837BD4680BD80B485B000AFF8603B
:10186000B9607A603B600A4B7A689101BA681143AB
:101870003A685208013A12041143FA681143BA69EE
:1018800012060A435A601437BD465DF8047B704760
:101890000038024080B483B000AF0346FB71044BB4
:1018A000FA791A600C37BD465DF8047B704700BFBB
:1018B0006000474280B485B000AF78600023FB60D1
:1018C000094B9B68FB60FB6823F00303FB60FA682D
:1018D0007B681343FB60044BFA689A601437BD467B
:1018E0005DF8047B704700BF0038024080B400AF51
:1018F000054B9B68DBB203F00C03DBB21846BD4618
:101900005DF8047B704700BF0038024080B485B0AA
:1019100000AF78600023FB60094B9B68FB60FB68AD
:1019200023F0F003FB60FA687B681343FB60044B11
:10193000FA689A601437BD465DF8047B704700BFB3
:101940000038024080B485B000AF78600023FB60AF
:10195000094B9B68FB60FB6823F4E053FB60FA686B
:101960007B681343FB60044BFA689A601437BD46EA
:101970005DF8047B704700BF0038024080B485B03A
:1019800000AF78600023FB60094B9B68FB60FB683D
:1019900023F46043FB607B68DB00FA681343FB6061
:1019A000034BFA689A601437BD465DF8047B7047B4
:1019B0000038024080B489B000AF78600023BB617A
:1019C00000237B610023FB6102233B610023FB605A
:1019D0000223BB60484B9B6803F00C03BB61BB69EF
:1019E000042B07D0082B09D0002B3FD17B68434A3A
:1019F0001A603FE07B68424A1A603BE03E4B5B68FE
:101A000003F480039B0DFB603B4B5B6803F03F03DB
:101A1000BB60FB68002B0DD0394ABB68B2FBF3F208
:101A2000354B596847F6C0730B409B0903FB02F323
:101A3000FB610CE0314ABB68B2FBF3F22E4B5968F4
:101A400047F6C0730B409B0903FB02F3FB612A4B73
:101A50005B6803F440331B0C01335B003B61FA69A4
:101A60003B69B2FBF3F27B681A6003E07B68234AB0
:101A70001A6000BF204B9B6803F0F003BB61BB6999
:101A80001B09BB611F4ABB6913441B78DBB27B6136
:101A90007B681A687B69DA407B685A60164B9B68E2
:101AA00003F4E053BB61BB699B0ABB61154ABB6988
:101AB00013441B78DBB27B617B685A687B69DA4030
:101AC0007B689A600C4B9B6803F46043BB61BB6905
:101AD0005B0BBB610B4ABB6913441B78DBB27B61B8
:101AE0007B685A687B69DA407B68DA602437BD46D8
:101AF0005DF8047B704700BF003802400024F4000A
:101B000000127A000000002080B483B000AF78603B
:101B10000B46FB70FB78002B06D0094B084A116B73
:101B20007A680A431A6306E0054B054A116B7A6826
:101B3000D2430A401A630C37BD465DF8047B7047F8
:101B40000038024080B487B000AF0346FB71002329
:101B5000FB6000237B610023FB74FB795B09DBB234
:101B6000FB60FB68012B03D1124B1B687B6109E012
:101B7000FB68022B03D10F4B1B6F7B6102E00D4B07
:101B80005B6F7B61FB7903F01F03FB60FB687A6985
:101B900022FA03F303F00103002B02D00123FB74AC
:101BA00001E00023FB74FB7C18461C37BD465DF842
:101BB000047B70470038024080B485B000AF484BCA
:101BC000FB60484BBB60484BFB60484BFB60484B9D
:101BD000BB60484BFB60484B7B60484BFB60484B0D
:101BE000FB60484BFB60484BFB60484B7B60484BBD
:101BF0007B60484BFB60484B7B60484BFB60484B2D
:101C00007B60484BFB60484B7B60484B7B60484B9C
:101C10007B60484B7B60484BFB60484BFB60484B0C
:101C2000FB60484B7B60484BFB60484BFB60484B7C
:101C30007B60484B7B60484B7B60484B7B60484BEC
:101C40007B60484B7B60484B7B60484BFB60484B5C
:101C5000FB60484BFB60484BFB60484B7B60484B4C
:101C60007B60484B7B60484BFB60484BFB60484BBC
:101C7000FB60484B7B60484B7B60484B7B60484B2C
:101C8000BB60484B7B60484BFB60484BFB60484B5C
:101C9000FB60484BFB60484BFB60484BFB60484B8C
:101CA000FB60484B7B60484BFB60484BFB60484BFC
:101CB0007B60484B7B60484BFB60484BFB60484B6C
:101CC0007B60484BFB60484BFB60484B7B60484B5C
:101CD0007B60484B7B601437BD465DF8047B7047E2
:101CE000684E0008D04F0008694E00086A4E000890
:101CF0006C4E0008704E0008744E0008714E0008CB
:101D00009C4E00089D4E00089E4E0008A04E000804
:101D1000A24E0008A64E0008A84E0008C84E0008B3
:101D2000CA4E0008CC4E0008CE4E0008D04E000827
:101D3000D24E0008D44E0008004F0008014F0008A2
:101D4000024F0008044F0008064F0008074F000824
:101D5000084F00080A4F00080C4F00080E4F0008FB
:101D6000104F0008124F0008144F0008444F00089D
:101D7000454F0008464F0008474F0008484F0008ED
:101D80004A4F00084C4F0008744F0008754F000878
:101D9000764F0008774F0008784F00087A4F000808
:101DA0007C4F0008804F0008814F0008824F0008D8
:101DB000834F0008844F0008854F0008864F0008B5
:101DC000874F0008884F00088A4F00088B4F000893
:101DD0008C4F00088E4F0008904F0008914F00086C
:101DE000944F0008C84F0008C94F0008CA4F0008A8
:101DF000CC4F0008CE4F000880B483B000AF7860AD
:101E0000064B00221A60064B00221A807B680022D3
:101E10001A800C37BD465DF8047B7047687B002054
:101E2000F47D002080B483B000AF00237B6007E026
:101E3000074B7A68002143F822107B6801337B60EE
:101E40007B68012BF4D90C37BD465DF8047B7047E5
:101E5000007F002080B582B000AF0023FB700E4BE6
:101E60007B6005E0FB782033FB707B6804337B608C
:101E70007B681B68002BF5D07B681B681846FEF753
:101E8000BCF90346DAB2FB781344FB70FB781846C2
:101E90000837BD4680BD00BF007F002080B487B0FA
:101EA00000AF0346FB71FB795B09FB75FB7903F01F
:101EB0001F033B610123FB603B69C3F11F03FA6809
:101EC00002FA03F3FB60FA7DF97D064B53F821100B
:101ED000FB681943034B43F822101C37BD465DF8DD
:101EE000047B7047007F002080B487B000AF0346BA
:101EF000FB71FB795B09FB75FB7903F01F033B6109
:101F00000123FB603B69C3F11F03FA6802FA03F384
:101F1000FB60FA7DF97D074B53F82110FB68DB432A
:101F20001940044B43F822101C37BD465DF8047B72
:101F3000704700BF007F002080B584B000AF78609C
:101F4000FEF75EFD564B00221A70564B00221A70A7
:101F5000554B00221A70554B00221A60544B002238
:101F60001A60544B00221A70534B00221A70534BC4
:101F700000221A70524B1B68002B15D0514B1B6866
:101F8000FB60FB68002B0FD04D4B1B68BB6008E06B
:101F9000BB68013BBB60FB6800221A60FB6804332E
:101FA000FB60BB68002BF3D1474B00221A60474B04
:101FB00000221A60464B00221A60464B00221A602B
:101FC000454B00221A60454B00221A60444B002208
:101FD0001A60444B00221A70FFF724FF00F0DEFC69
:101FE0007868FEF7B3FE7B681B88002B00D053E0B7
:101FF000786801F027F97B681B88002B00D04BE044
:102000007868FFF7E1F97B681B88002B00D043E07C
:10201000786802F01FFB7B681B88002B00D03BE038
:10202000786801F03FFC7B681B88002B00D033E010
:102030007868FFF7E1FE7B681B88002B00D02BE05F
:10204000786802F027F87B681B88002B00D023E01B
:10205000786800F0FFF97B681B88002B00D01BE03C
:102060007868FEF7A3FE7B681B88002B00D013E086
:10207000786801F07DF87B681B88002B00D00BE0AE
:10208000786802F0C1FB7B681B88002B00D003E05E
:10209000FFF792FD01F000FC1037BD4680BD00BF88
:1020A0005E7C00206178002050780020387C002081
:1020B000447C0020707B0020647B0020407C00205A
:1020C00044500008405000086C7B0020507C0020E9
:1020D00054780020FC7D0020187E0020087E00201F
:1020E000547C00206078002080B400AF094B1B783E
:1020F000012B00D00AE0084B1B78F92B00D905E032
:10210000054B1B780133DAB2034B1A70BD465DF8FC
:10211000047B7047617800205E7C002080B582B02F
:1021200000AF00237B602B4B1B78012B00D04DE0D0
:10213000FEF758F87860284B1B78002B03D178689D
:10214000FEF754F842E0244B1B78013BDAB2224BF5
:102150001A70214B1B78002B03D07868FEF746F8E5
:1021600034E01E4B1B78002B03D07868FEF73EF856
:102170002CE0FFF76FFE03461A46194B1A70184BF6
:102180001B781A46174913465B0013449B000B4407
:102190001A68154B1A60144B1A68144B1B689A4244
:1021A00003D17868FEF722F810E00F4B1B68D3F8D4
:1021B00090200132C3F890200D4B1B685A1C0C4B29
:1021C0001A60FEF7D5F87868FEF710F80837BD46B4
:1021D00080BD00BF617800205E7C00205078002028
:1021E000647B002064780020447C0020387C002040
:1021F000587C002080B582B000AF00237B601E4B6E
:102200001B78002B00D034E01C4B1B78002B00D037
:102210002FE0FDF7E7FF7860FFF71CFE03461A4644
:10222000174B1A70164B1B781A46164913465B005B
:1022300013449B000B441A68134B1A60124B1A6824
:10224000124B1B689A4203D17868FDF7CFFF10E06C
:102250000D4B1B68D3F890200132C3F890200C4B33
:102260001B685A1C0A4B1A60FEF77EF87868FDF767
:10227000BDFF0837BD4680BD5E7C00205078002041
:10228000647B002064780020447C0020387C00209F
:10229000587C002080B584B000AF78600023FB60DC
:1022A000164B1B78002B04D07B6846F662521A80CE
:1022B00020E0134B1B78012B04D07B6845F6896224
:1022C0001A8017E00F4B1B78F92B04D97B6845F275
:1022D00009221A800EE0FDF785FFF860094B1B7894
:1022E0000133DAB2074B1A70F868FDF77FFF7B689D
:1022F00000221A801037BD4680BD00BF5E7C0020E2
:10230000617800205078002080B584B000AF7860FC
:102310000023FB601D4B1B78002B04D07B6846F626
:1023200065521A802EE01A4B1B78012B04D07B6873
:1023300045F689621A8025E0164B1B78002B04D1E4
:102340007B6846F664521A801CE0FDF74BFFF8608C
:10235000104B1B78013BDAB20E4B1A700D4B1B78F9
:10236000002B07D0F868FDF741FF7B6846F6635203
:102370001A8007E0F868FDF739FFFFF73BFF7B683D
:1023800000221A801037BD4680BD00BF5E7C002051
:10239000617800205078002080B582B000AF78606E
:1023A000174B1B78002B23D1FFF754FD03461A4629
:1023B000144B1A70134B1A78134B1A70114B1B786D
:1023C0001A46124913465B0013449B000B441A68DB
:1023D0000F4B1A600E4B1A680E4B1A60084B012205
:1023E0001A70FDF7B1FF7B6843F699221A8003E06B
:1023F0007B6845F68A621A800837BD4680BD00BFFB
:1024000061780020647B0020707B002064780020CD
:10241000447C0020387C002080B584B000AF786018
:102420000023FB60FDF7DEFEF860084B1B685A1CBA
:10243000064B1A60064B1B685A1C054B1A60F8685D
:10244000FDF7D4FEFEF7D0FAECE700BF107E0020C7
:102450005C78002080B58CB00AAF7860104B002209
:102460001A60104B1968104B1A68104B1B683F20FC
:10247000009001910292039300230493002305939B
:10248000002306930B2307937B68089308480949A8
:10249000094A002301F01CFA0837BD4680BD00BF81
:1024A000107E002014500008185000081C5000082E
:1024B000307D0020D44F00081924000880B586B074
:1024C00000AFF860B9603B601346FB711A4B1B68A4
:1024D000FA7983F83420184B1B68002283F83520E2
:1024E000154B1B681846396800F070FBBB68002B61
:1024F00011D0BB6808337B61FB68BA68DA600E4BA9
:102500001B681846F968012200F018F87869F96824
:1025100000F0AAF807E0084B1B680022DA87064B98
:102520001B6800221A63044B1B68B868194600F048
:1025300039F81837BD4680BD387C002080B487B09C
:1025400000AFF860B9601346FB80FB68FA88DA8751
:10255000FB68BA681A630023FB821AE0BB6800229A
:102560005A60BB6800221A60BB6800221A61BB680F
:1025700000225A61BB6800221A83BB680022DA611C
:10258000BB68FA689A60BB682033BB60FB8A013382
:10259000FB82FA8AFB889A42E0D31C37BD465DF87D
:1025A000047B704780B487B000AF786039607B6887
:1025B000002B12D07B685A683B68C3F8BC207B684C
:1025C00008337B617B691B683B613B699B68FB60EF
:1025D000FB681A6A7B68DA6116E03B6893F834306E
:1025E000022B02D0072B05D009E03B68094AC3F84B
:1025F000BC2009E03B68084AC3F8BC2004E03B6803
:10260000064AC3F8BC2000BF1C37BD465DF8047BFA
:10261000704700BFE84F0008F04F0008FC4F00086B
:1026200080B487B000AF786039603B680D4AC3F86A
:10263000BC207B6808337B617B691B683B613B691D
:10264000002B07D03B699B68FB60FB681A6A7B68BC
:10265000DA6102E07B68034ADA611C37BD465DF847
:10266000047B7047FC4F000880B489B000AF7860ED
:1026700039603B689B68BB61BB6993F83730FB7579
:102680007B681B89002B0FD17B6801221A813B6874
:1026900000225A603B6800221A607B683A681A6020
:1026A0007B683A685A604CE07B681B8901339AB2B8
:1026B0007B681A817B681B68FB610CE0FB699B6887
:1026C0003B613B6993F83730FA7D9A4200D205E0CE
:1026D000FB695B68FB61FB69002BEFD1FB69002B99
:1026E0000FD13B6800225A607B685B68FB603B68E7
:1026F000FA681A60FB683A685A607B683A685A6000
:102700001FE0FB691B68002B0CD1FB693A681A605B
:102710003B6800221A603B68FA695A607B683A6835
:102720001A600EE0FB691B68FB603B68FA681A6080
:102730003B68FA695A60FB683A685A60FB693A6814
:102740001A602437BD465DF8047B704780B586B0BB
:1027500000AF78607B681B6B3B617B68DB8FFB8223
:102760000FE03B69DB68FB60FB680833BB60B8685F
:10277000396900F013F83B6920333B61FB8A013B68
:10278000FB82FB8A002BECD17B680022DA877B6816
:1027900000221A631837BD4680BD00BF80B485B0E3
:1027A00000AF786039607B681B89012B06D17B689C
:1027B00000221A607B6800225A6027E03B681B6891
:1027C000002B09D13B685B68FB60FB6800221A6044
:1027D0007B68FA681A6019E03B685B68002B09D1D6
:1027E0003B681B68BB60BB6800225A607B68BA68A4
:1027F0005A600BE03B681B68BB603B685B68FB6032
:10280000BB68FA685A60FB68BA681A607B681B8903
:10281000013B9AB27B681A813B6800225A603B6890
:1028200000221A601437BD465DF8047B704700BF74
:1028300080B586B002AFF860B9607A607B80BB6813
:1028400093F83630072B77D801A252F823F000BF57
:102850003929000839290008712800087128000862
:102860003929000839290008D5280008D52800088A
:10287000BB6893F83430032B08D17B88BA69009287
:10288000F868B9687A6800F05BF809E0BB687A68B4
:10289000DA65BB687A88A3F86020BB68BA691A64F5
:1028A000FB68002B06D0B868FFF750FFF868B968DE
:1028B000FFF7B6FEB86800F0AFF9BB68002283F8F6
:1028C0003620BB68002283F83520BB68002283F8DD
:1028D000342032E0BB6893F83430032B08D17B8876
:1028E000BA690092F868B9687A6800F029F809E0D6
:1028F000BB687A68DA65BB687A88A3F86020BB6831
:10290000BA691A64B868FEF7CDFBFB68002B06D0E5
:10291000B868FFF71BFFF868B968FFF781FEBB686E
:10292000042283F83620BB68002283F83520BB6878
:10293000002283F8342000E000BF1037BD4680BD80
:1029400080B487B000AFF860B9607A607B80BB6804
:102950001B6B3B61BB68DB8FFB8217E03B69DA686E
:10296000FB689A420CD13B69FA681A613B697A6844
:102970005A613B697A881A833B693A6ADA6108E0EE
:102980003B6920333B61FB8A013BFB82FB8A002BC6
:10299000E4D11C37BD465DF8047B704780B483B03A
:1029A00000AF0023FB7113E0FA7913465B00134478
:1029B0009B000B4A13443B603B6800221A813B6832
:1029C00000221A603B6800225A60FB790133FB71D8
:1029D000FB793F2BE8D90C37BD465DF8047B704787
:1029E0006478002080B582B000AF78607B6893F88F
:1029F00037301846FFF752FA7B6893F83720074BB9
:102A00001B789A4203D1786800F04AF802E07868AF
:102A100000F006F80837BD4680BD00BF707B00207F
:102A200080B485B000AF78607B6893F837301A4681
:102A300013465B0013449B00184A1344FB60FB6879
:102A40001B89002B0FD1FB6801221A817B680022B1
:102A5000DA607B6800221A61FB687A681A60FB689A
:102A60007A685A6015E0FB681B8901339AB2FB68EB
:102A70001A81FB681A687B68DA607B6800221A6139
:102A8000FB681B68BB60BB687A681A61FB687A6880
:102A90001A601437BD465DF8047B704764780020E7
:102AA00080B485B000AF78607B6893F837301A4601
:102AB00013465B0013449B00184A1344FB60FB68F9
:102AC0001B89002B0FD1FB6801221A817B68002231
:102AD000DA607B6800221A61FB687A681A60FB681A
:102AE0007A685A6014E0FB681B8901339AB2FB686C
:102AF0001A817B680022DA60FB685B68BB607B68D8
:102B0000BA681A61BB687A68DA60FB687A685A60EA
:102B10001437BD465DF8047B704700BF6478002021
:102B200080B586B000AF78607B6893F837301A467E
:102B300013465B0013449B00234A13447B617B686C
:102B40001B693B617B68DB68FB603B69002B1FD125
:102B5000FB68002B0FD17B6900221A817B69002260
:102B60001A607B6900225A607B6893F837301846F8
:102B7000FFF7BAF91FE07B691B89013B9AB27B69B9
:102B80001A81FB6800221A617B69FA681A6012E0F8
:102B90007B691B89013B9AB27B691A813B69FA68A0
:102BA000DA60FB68002B03D17B693A695A6002E066
:102BB000FB683A691A617B6800221A617B6800220F
:102BC000DA601837BD4680BD6478002080B584B0D7
:102BD00000AF786039603B68002B13D007F10E031B
:102BE000786839680222FEF763F9FB89002B04D16B
:102BF0007B68032283F8362008E07B68022283F892
:102C0000362003E07B68022283F836207868FFF7DD
:102C100087FF1037BD4680BD80B582B000AF7860B9
:102C20007868FEF73FFA7B6893F8363003F00403C8
:102C3000002B02D17868FFF7D5FE0837BD4680BD6E
:102C400080B586B000AF78600023FB60FDF7CAFA5C
:102C5000F8603B4B00221A803A4B00221A603A4B34
:102C600000221A60394B00221A60394B00221A8167
:102C7000F868FDF7BBFAFDF7B5FAF860354B1B684D
:102C80007B61F868FDF7B2FA30E0FDF7ABFAF86067
:102C90007B6900229A677B690022C3F8A8207B69C0
:102CA0000022C3F890207B690022A3F88C207B6966
:102CB0000022A3F88E207B690022C3F89C207B6948
:102CC0000022C3F8A02001F08FFD02467B69C3F803
:102CD00098207B696433BB60BB6800229A817B6962
:102CE000D3F8B8307B61F868FDF780FA7B69002B78
:102CF000CBD1FDF777FAF860174B1B683B61F8689A
:102D0000FDF774FA0EE0FDF76DFAF8603B692033C9
:102D1000BB60BB6800229A813B699B693B61F86894
:102D2000FDF764FA3B69002BEDD1FEF701FA01F0E3
:102D3000BFFE7B6800221A801837BD4680BD00BFE9
:102D40003E7C002058780020F07E00204C7C002043
:102D5000247D0020487C0020F07D002080B586B0D6
:102D600000AF786000233B6107F10E03324819463B
:102D700001F006F9FB89002B03D0FA897B681A80E1
:102D800056E007F10E03022000211A46FDF740FA33
:102D9000FB89002B03D0FA897B681A8048E0FDF795
:102DA00021FA3861254B00221A603869FDF71EFAB6
:102DB00000237B61224B1A68224B1B689A4206D97A
:102DC0001F4B1A681F4B1B68B2FBF3F37B617B69D7
:102DD000002B06D11A4B1A681B4BA3FB0213DB080E
:102DE0007B6107F10E03786900211A46FDF710FA9E
:102DF00007F10E031048194600F004FFFB89002B71
:102E000003D0FA897B681A8012E0FDF7EBF938618C
:102E10000E4B00221A60094B1A680D4B1A600D4BBD
:102E200001221A703869FDF7E1F97B6800221A80E7
:102E30001837BD4680BD00BF647C00205C78002050
:102E4000745000085C500008CDCCCCCC58780020E1
:102E5000007E0020657B002080B590B000AF7860D8
:102E60000023BB6109E0854B1B685A0007F10A0388
:102E7000104600211A46FDF7CBF9814B1B78012B38
:102E8000F1D107F10A031846FFF7DAFE0023FB61D0
:102E90007C4B1A68794B1B689A4206D9794B1A68A1
:102EA000764B1B68B2FBF3F3FB61FB69002B06D189
:102EB000744B1A68744BA3FB0213DB08FB6101F02F
:102EC00093FC7861FDF78EF9B861704B1A68704B0E
:102ED0001A606E4B00221A60B869FDF787F96D4BD6
:102EE0001A686B4B1B689A424FD96A4B1A686A4B37
:102EF0009A4205D842F210737B6201233B6224E0C0
:102F0000644B1A68654B9A4205D84FF47A737B621A
:102F10000A233B6219E05F4B1A68614B9A4204D85E
:102F200064237B6264233B620FE05A4B1A685D4B5B
:102F30009A4205D80A237B624FF47A733B6204E01D
:102F400001237B6242F210733B62524B1A683B6A68
:102F5000B2FBF3F33B614E4B1B687A6A02FB03F250
:102F60003B69B2FBF3F39BB2C3F51C5310339AB227
:102F70004D4B1A804D4B1A884B4B1B889A4208D2F6
:102F8000494B1A88494B1A8003E0474B42F21072B2
:102F90001A80FDF751FD0023BB63FDF723F9B861EB
:102FA000434B1B68BB62B869FDF720F91FE0FDF7D2
:102FB00019F9B861BB6AD3F89C20BB6AC3F8A0209A
:102FC000BB6A0022C3F89C20B869FDF70FF9BB6A01
:102FD000D3F8A030BA6B1344BB63FDF703F9B861B3
:102FE000BB6AD3F8B830BB62B869FDF7FFF8BB6ABB
:102FF000002BDCD1BB6B002B31D0BA6B264B9A4235
:1030000005D842F210733B6301237B6321E0BA6B66
:10301000224B9A4205D84FF47A733B630A237B63B1
:1030200017E0BA6B1E4B9A4204D864233B636423B7
:103030007B630EE0BA6B1B4B9A4205D80A233B63B5
:103040004FF47A737B6304E001233B6342F2107315
:103050007B63BA6B7B6BB2FBF3F3FB6203E0002391
:103060003B630123FB62FDF7BDF8B861104B1B68A1
:10307000BB62B869FDF7BAF851E000BF5C500008C8
:10308000657B002074500008CDCCCCCC5C7800204F
:10309000147E0020007E00207F1A0600FF083D00FD
:1030A000FF596202FF83D7175C7C00203E7C002022
:1030B000487C0020BB6AD3F8A0303A6B02FB03F2D5
:1030C000FB6AB2FBF3F3FB87FA8F42F210739A426A
:1030D00002D942F21073FB87BB6AFA8FA3F88C20E7
:1030E000BB6AB3F88E30FA8F9A4203D9BB6AFA8F63
:1030F000A3F88E20BB6A03F1B001BB6A03F1AC02F6
:1031000007F10A03B86A00F0C3FEFDF76BF8B86177
:10311000BB6AD3F8B830BB62B869FDF767F8BB6A21
:10312000002BC7D1104B1B78012B07D10E4B00226F
:103130001A7007F10A031846FFF782FD01F054FBED
:1031400002467B69D31AFB60084B1A68FB689A42F7
:1031500002D2064BFA681A6007F10A03F8690021E7
:103160001A46FDF755F8AAE6247E0020587800207C
:1031700080B58CB00AAF7860254B00221A60254BD1
:1031800000221A60244B00221A60244B00221A707D
:10319000234B00221A70234B1B68002B04D17B6841
:1031A00046F62B621A802FE01F4B1A681F4B1B68D4
:1031B0009A4204D27B6846F62C621A8024E01C4BAB
:1031C0001B783E2B04D97B6846F62A621A801BE0E6
:1031D000174B1878134B1968164B1A68124B1B685B
:1031E000009001910292039300230493002305931E
:1031F00000230693032307937B6808930E480F4927
:103200000F4A002300F064FB0837BD4680BD00BFB5
:103210005C780020147E0020007E0020657B00206A
:10322000247E00206050000868500008705000089C
:1032300058500008645000082C7E00200050000800
:10324000592E000880B483B000AF7860064B00228E
:103250001A60064B00221A807B6800221A800C3705
:10326000BD465DF8047B7047F87D0020267E002077
:1032700080B483B000AF78607B68922B00F26081ED
:1032800001A252F823F000BFD5340008D53400085D
:10329000D5340008D5340008D5340008D5340008EA
:1032A000D5340008D5340008D5340008413500086D
:1032B0004135000841350008D53400084135000883
:1032C0004135000841350008413500084135000806
:1032D000D534000841350008D5340008D53400083D
:1032E000D53400084135000841350008D5340008C0
:1032F000D5340008D5340008D5340008D53400088A
:10330000D534000841350008E9340008413500088B
:103310004135000841350008E9340008E934000867
:10332000E9340008E9340008413500084135000857
:103330004135000841350008413500084135000895
:103340004135000841350008413500084135000885
:103350004135000841350008413500084135000875
:103360004135000841350008413500084135000865
:103370004135000841350008413500084135000855
:103380004135000841350008FF3400084135000888
:103390004135000841350008413500084135000835
:1033A0004135000841350008413500084135000825
:1033B0004135000841350008413500084135000815
:1033C0004135000841350008413500084135000805
:1033D00041350008413500084135000841350008F5
:1033E00041350008413500084135000841350008E5
:1033F00041350008413500084135000841350008D5
:10340000413500084135000815350008153500081C
:103410001535000815350008153500081535000864
:103420001535000815350008153500084135000828
:1034300041350008153500084135000841350008C0
:103440001535000815350008413500081535000808
:103450001535000815350008153500081535000824
:1034600015350008153500084135000815350008E8
:1034700015350008413500081535000815350008D8
:1034800041350008413500082B3500082B35000870
:1034900041350008413500082B3500082B35000860
:1034A00041350008413500082B3500082B35000850
:1034B0002B3500082B3500082B3500084135000856
:1034C0002B350008413500082B3500082B35000846
:1034D0002B3500081D4B1D4A11687A68012000FA3F
:1034E00002F20A431A602BE0194B194A11687A68F4
:1034F000203A012000FA02F20A431A6020E0154B3C
:10350000144A11687A68403A012000FA02F20A432C
:103510001A6015E0104B104A11687A68603A012071
:1035200000FA02F20A431A600AE00C4B0B4A1168D7
:103530007A68803A012000FA02F20A431A6000BF5A
:103540000C37BD465DF8047B704700BF3038024041
:103550003438024038380240403802404438024093
:1035600080B487B000AF7860396000237B610023AE
:103570003B610023FB6000237B6176E07B690122D5
:1035800002FA03F33B613B681A683B691340FB6036
:10359000FA683B699A4265D17B681A687B695B006F
:1035A000032101FA03F3DB431A407B681A607B684E
:1035B0001A683B681B7919467B695B0001FA03F3C3
:1035C0001A437B681A603B681B79012B03D03B6868
:1035D0001B79022B2ED17B689A687B695B000321E3
:1035E00001FA03F3DB431A407B689A607B689A68B0
:1035F0003B685B7919467B695B0001FA03F31A4368
:103600007B689A607B685A687B699BB2012101FAEA
:1036100003F3DB431A407B685A607B685A683B6857
:103620009B7919467B699BB201FA03F39BB21A435B
:103630007B685A607B68DA687B699BB25B00032118
:1036400001FA03F3DB431A407B68DA607B68DA68CF
:103650003B68DB7919467B695B0001FA03F31A4387
:103660007B68DA607B6901337B617B690F2B85D9CD
:103670001C37BD465DF8047B704700BF80B483B043
:1036800000AF7860044B7A68D2B21A700C37BD462E
:103690005DF8047B704700BF003C024080B483B0FB
:1036A00000AF0346FB71FB79002B06D0084B084A9C
:1036B000126842F480721A6005E0054B044A1268F1
:1036C00022F480721A600C37BD465DF8047B7047A7
:1036D000003C024080B500AF012000F001F880BD41
:1036E00080B584B000AF78600023FB60FCF77AFD02
:1036F000F860044B7A681A60F868FCF777FD1037B9
:10370000BD4680BD087F002080B500AF154B154A2F
:10371000D2F8882042F47002C3F88820124B124A73
:10372000126842F001021A600F4B00229A600E4AA2
:103730000D4B1B6823F0847323F4803313600A4B12
:103740000A4A5A60084B084A126822F480221A601A
:10375000054B0022DA6000F00BF8024B4FF00062DC
:103760009A6080BD00ED00E0003802401030002477
:1037700080B483B000AF00237B6000233B60414BEB
:10378000404A126842F480321A603E4B1B6803F4D0
:1037900000333B607B6801337B603B68002B03D1C7
:1037A0007B68B3F5A04FF0D1364B1B6803F40033B0
:1037B000002B02D001233B6001E000233B603B680B
:1037C000012B42D12F4B2F4A126C42F080521A64C7
:1037D0002D4B2D4A126842F440421A60294B294A67
:1037E00092689A60274B274A926842F400429A6096
:1037F000244B244A926842F4A0529A60214B234AF7
:103800005A60204B1F4A126842F080721A6000BF53
:103810001C4B1B6803F00073002BF9D01C4B40F2CB
:1038200005621A60174B174A926822F003029A60E9
:10383000144B144A926842F002029A6000BF114B86
:103840009B6803F00C03082BF9D10E4B0D4A9268CC
:1038500022F400029A600B4B0E4AC3F88420094BF5
:10386000084A126842F080621A6000BF054B1B686C
:1038700003F00063002BF9D00C37BD465DF8047BE4
:10388000704700BF003802400070004008544007F5
:10389000003C02408040003080B400AFBD465DF87F
:1038A000047B704780B483B000AF7860064B002281
:1038B0001A60064B00221A807B6800221A800C379F
:1038C000BD465DF8047B7047F07D00203C7C002005
:1038D00080B58CB002AFF860B9607A603B600023BD
:1038E000BB61744B1B78002B04D03B6D47F24A122E
:1038F0001A80DCE0FB68002B04D13B6D47F2AD126F
:103900001A80D4E07B68002B04D13B6D47F24F1244
:103910001A80CCE07B6B002B04D13B6D46F62F6206
:103920001A80C4E0644B1B68FA6B9A4204D23B6D68
:1039300046F630621A80BAE0BA6BFB6B9A4204D347
:103940003B6D46F631621A80B1E097F830303F2B7C
:1039500004D93B6D46F273221A80A8E097F8303004
:103960003F2B08D1FA68554B9A4204D03B6D46F282
:1039700073221A809BE0F86800F0A8FB3B6D0022E0
:103980001A80B7F84C3003F00103002B17D0B7F8BA
:103990004C3003F00203002B11D07B6BFB61002342
:1039A0007B6208E0FB6900221A60FB690433FB615B
:1039B0007B6A01337B627A6AFB6B9A42F2D3BB6B00
:1039C0009B007A6B13447B61FB6B0093B7F84C3020
:1039D0000193786839687A6B7B69FDF76FF8F86155
:1039E000FB687A689A62FB683A68DA62FB68BA68D0
:1039F0001A62FB6897F8302083F83720FB68FA6971
:103A00001A60FB687A699A60FB687A6C5A65FB6891
:103A1000BA6C5A60FB687A6B5A62FB68FA6B9A63FD
:103A2000FB68B7F84C209A87002387F823300CE016
:103A300097F82330FA681E339B00134400225A6023
:103A400097F82330013387F8233097F82330002B81
:103A5000EED0FB6803F16402B7F840301046194617
:103A6000FDF756FDF868FCF7F3FFFCF7BBFBB86108
:103A7000FB6893F837301846FEF710FAF868FFF73E
:103A80000FF8F86800F09EFA0D4B1B8801339AB2CC
:103A90000B4B1A800B4B1B78012B03D0B869FCF73A
:103AA000A5FB04E0B869FCF7A1FBFEF7A3FB2837F0
:103AB000BD4680BD5E7C002070500008307D002037
:103AC000607C00206178002080B584B000AF786011
:103AD00039600023FB60474B1B78002B04D03B6808
:103AE00047F24E121A8082E07A68434B9A4204D120
:103AF0003B6847F24C121A8079E07B68002B08D1B2
:103B0000FCF770FBF8603D4B1B687B60F868FCF7C6
:103B10006DFBFCF767FBF8607B6893F83630072B8A
:103B20003CD801A252F823F0493B0008513B000861
:103B3000593B0008593B0008AD3B0008513B0008C9
:103B4000593B0008593B00087868FEF7E9FF2EE072
:103B50007868FDF7A7FA2AE07868FDF7A3FA7B6892
:103B600093F83430072B17D801A252F823F000BF86
:103B7000993B0008913B0008993B0008913B0008E5
:103B8000913B0008913B0008913B0008993B0008DD
:103B90007868FEF7DBFD00E000BF08E0F868FCF79E
:103BA00025FB3B6846F62D621A8020E000BF7B684B
:103BB00064331846FDF770FC7868FCF75BFF7868A3
:103BC00000F026FA0E4B1B88013B9AB20C4B1A8070
:103BD000786800F07BFA7B68FF2283F83620F8686B
:103BE000FCF704FB3B6800221A80FEF703FB10374A
:103BF000BD4680BD5E7C0020307D0020387C0020EA
:103C0000607C002080B584B000AF7860396000230C
:103C1000FB60134B1B78002B04D03B6847F2551216
:103C20001A8019E0FCF7DEFAF8607B68002B04D0FC
:103C30000C4B1B687A689A4207D1F868FCF7D6FAF1
:103C40003B6847F257121A8006E0F868FCF7CEFA94
:103C50007868396800F006FB1037BD4680BD00BFAC
:103C60005E7C0020387C002090B587B000AFF86003
:103C70007A603B600B467B8100237B616F4B1B7836
:103C8000002B05D03B6846F2AE121A800023D0E02C
:103C90007B89002B08D0B3F5004F05D03B6845F673
:103CA00025621A800023C4E000BF7B68002B02D08D
:103CB0007B6800221A60FCF795FA7861604B1B68FC
:103CC0005B6C002B35D05E4B1B685A6C013A5A6412
:103CD0005B4B1B685B6C3B617B68002B04D0584BD3
:103CE0001B681A6C7B681A60554B1C6800F07CFDE1
:103CF0000246534B1B681B6CD31AC4F8A430504BBC
:103D00001B68D3F8A8204E4B1B68D3F8A4309A4206
:103D100007D24B4B1B684A4A1268D2F8A420C3F85A
:103D2000A8207869FCF762FA3B6800221A803B6998
:103D30007FE07B891BB2002B08DA7869FCF756FA22
:103D40003B6846F2B0121A80002372E03D4B1B78AC
:103D5000002B08D07869FCF749FA3B6846F66352B5
:103D60001A80002365E0002000210722FB68FEF78F
:103D7000A5FB7869FCF73AFAFEF73CFAFCF732FA51
:103D800078612F4B1B6893F83530012B2CD0032B17
:103D900037D0002B40D17B68002B21D0284B1B68EB
:103DA0001A6C7B681A60264B1C6800F01DFD0246E9
:103DB000234B1B681B6CD31AC4F8A430204B1B6820
:103DC000D3F8A8201E4B1B68D3F8A4309A4207D220
:103DD0001B4B1B681A4A1268D2F8A420C3F8A8200B
:103DE0003B6800221A801CE07B68002B04D0144B37
:103DF0001B681A6C7B681A603B6846F2A9121A802D
:103E00000FE07B68002B02D07B6800221A603B68C1
:103E100047F2D9221A8004E03B6846F62E621A80E7
:103E200000BF074B1B685B6C3B617869FCF7DEF9F0
:103E30003B6918461C37BD4690BD00BF5E7C002024
:103E4000387C00205078002080B586B000AFF86044
:103E50000B467A607B817B89002B08D0B3F5004F3D
:103E600005D07B6845F625621A8000230CE000BF70
:103E700000F0BAFC78617B89F86819467A697B683A
:103E800000F094FA38613B6918461837BD4680BD8A
:103E900080B588B000AFF860B9607A603B600023FD
:103EA0007B61354B1B78002B04D03B6847F25912DD
:103EB0001A805DE0BB68002B04D13B6846F2D52236
:103EC0001A8055E07B68002B04D13B6846F2D5226E
:103ED0001A804DE0FCF786F97861FB68002B02D16F
:103EE000264B1B68FB60FB681B68002B0DD17869B3
:103EF000FCF77CF9BB6800221A607B6800221A601C
:103F00003B6847F252121A8032E0FB689B8F03F045
:103F10000103002B0DD17869FCF768F9BB6800221A
:103F20001A607B6800221A603B6847F254121A80BC
:103F30001EE07869FCF75AF90023FB61FB685B6AB5
:103F4000BB6105E0BB690433BB61FB690133FB6105
:103F5000BB691B68002BF5D0BB68FA691A60FB6867
:103F60009A6BFB69D21A7B681A603B6800221A8040
:103F70002037BD4680BD00BF5E7C0020387C00201D
:103F800080B582B000AF786039600C4B1B78002B95
:103F900004D03B6847F25D121A800CE07A68084B47
:103FA0009A4204D13B6847F25B121A8003E07868BA
:103FB000396800F08FFA0837BD4680BD5E7C00206E
:103FC000307D002080B483B000AF78607B68002231
:103FD000C3F8B4200D4B1B68002B04D17B68002272
:103FE000C3F8B82009E0094B1A687B68C3F8B82009
:103FF000064B1B687A68C3F8B420044B7A681A60D1
:104000000C37BD465DF8047B704700BF487C00203C
:1040100080B485B000AF78607B68D3F8B430FB60C3
:104020007B68D3F8B830BB60FB68002B0ED1184B0F
:10403000BA681A60BB68002B03D0BB680022C3F8C3
:10404000B4207B680022C3F8B8201BE0BB68002BBB
:1040500008D1FB680022C3F8B8207B680022C3F8AF
:10406000B4200FE0FB68BA68C3F8B820BB68FA68F0
:10407000C3F8B4207B680022C3F8B8207B68002214
:10408000C3F8B4201437BD465DF8047B704700BF09
:10409000487C002080B483B000AF7860084B0022D9
:1040A0001A60084B00221A80074B00221A607B68B6
:1040B00000221A800C37BD465DF8047B704700BFB4
:1040C000487C0020607C0020587C002080B584B0B3
:1040D00000AF78607B6800221A607B6800229A60DB
:1040E0007B6800225A607B680022DA607B680022CD
:1040F0001A617B6800225A617B6800229A617B68A2
:104100000022DA617B68554A1A627B6800225A6293
:104110007B6800229A627B680022DA627B68002258
:104120001A637B680022DA877B6800221A647B6846
:104130000022DA657B680022A3F860207B68643384
:1041400018460021FDF7E4F97B6800225A677B6876
:1041500000229A677B680022C3F880207B680022D7
:10416000A3F888207B680022C3F884200023FB7317
:1041700009E0FB7B7A681E339B00134400225A60DF
:10418000FB7B0133FB73FB7B002BF2D07B680022AF
:104190005A647B680022C3F8A4207B680022C3F81D
:1041A000A8207B6800229A637B68002283F88A201B
:1041B0007B680022C3F8B0207B680022C3F8AC20E3
:1041C0007B6800229A877B684FF000429A647B6884
:1041D0000022DA647B6800221A657B6800225A6537
:1041E0007B6800229A657B680022A3F88C207B689C
:1041F0000022A3F88E207B680022C3F890207B6801
:104200000022C3F8942000F0EFFAB8607B68BA6827
:10421000C3F898207B680022C3F89C207B680022AA
:1042200083F834207B68002283F835207B680022E5
:1042300083F836207B68402283F837207B68002291
:10424000C3F8B4207B680022C3F8B8207B68044A16
:10425000C3F8BC201037BD4680BD00BFB850000871
:10426000C050000880B584B000AF7860396000238A
:10427000FB60FBF7B7FFF8603B6800221A807B68A1
:1042800093F83630072B72D801A252F823F000BF02
:10429000B1420008B1420008B1420008B142000832
:1042A000C1420008F14200081B43000845430008D2
:1042B000F868FBF79BFF3B6847F253121A805EE0F9
:1042C0007B6893F88A30013BDAB27B6883F88A20F6
:1042D0007B6893F88A30002B06D17B68002283F834
:1042E00036207868FEF798FCF868FBF77FFF46E019
:1042F0007B6893F88A30013BDAB27B6883F88A20C6
:104300007B6893F88A30002B03D17B68012283F805
:104310003620F868FBF76AFF31E07B6893F88A3053
:10432000013BDAB27B6883F88A207B6893F88A3095
:10433000002B03D17B68022283F83620F868FBF754
:1043400055FF1CE07B6893F88A30013BDAB27B684A
:1043500083F88A207B6893F88A30002B03D17B682E
:10436000032283F83620F868FBF740FF07E0F8687F
:10437000FBF73CFF3B6846F62D621A8001E0FDF733
:1043800039FF1037BD4680BD80B582B000AF064B07
:104390001B681846FCF780FBBB1D00201946FFF781
:1043A00093FB0837BD4680BD387C002080B588B0BF
:1043B00002AFF8607A603B600B467B8100233B6173
:1043C000FBF710FF3861FB68002B02D1404B1B68E4
:1043D000FB60FB687A681A643B6800221A80FB68FD
:1043E00093F83630072B64D801A252F823F000BFAF
:1043F00011440008114400084744000847440008DD
:1044000011440008114400084744000847440008CC
:10441000FB685B6CB3F1FF3F08D13869FBF7E6FE40
:104420003B6846F6C5521A8000234DE000BFFB688A
:104430005B6C5A1CFB685A64FB685B6C7B61386977
:10444000FBF7D4FE3FE0FB6893F83430072B14D120
:104450007B6800930020F96800220023FEF7E8F94A
:10446000FB685B6C7B613869FBF7C0FE7B891BB224
:10447000002B1DDBFDF7BEFE25E0FB685B6CB3F196
:10448000FF3F08D13869FBF7B1FE3B6846F6C552DD
:104490001A80002318E000BFFB685B6C5A1CFB68A5
:1044A0005A64FB685B6C7B613869FBF79FFE0AE02E
:1044B00009E03869FBF79AFE3B6846F62D621A80E0
:1044C00000237B6100BF7B6918461837BD4680BD5D
:1044D000387C002080B584B000AF7860396000235C
:1044E000FB60FBF77FFEF8607B68002B02D13D4B41
:1044F0001B687B603B4B1B687A689A420BD13A4B36
:104500001B78002B07D0F868FBF770FE3B6846F677
:1045100063521A8063E03B6800221A807B6893F83C
:104520003630072B51D801A252F823F04D45000830
:104530006B450008834500089B450008B34500080B
:10454000B3450008B3450008B34500087B68042262
:1045500083F836207B68012283F88A207868FEF78A
:10456000DFFAF868FBF742FE37E07B68052283F844
:1045700036207B68012283F88A20F868FBF736FE34
:104580002BE07B68062283F836207B68012283F8C3
:104590008A20F868FBF72AFE1FE07B68072283F871
:1045A00036207B68012283F88A20F868FBF71EFE1C
:1045B00013E07B6893F88A300133DAB27B6883F8C2
:1045C0008A20F868FBF712FE07E0F868FBF70EFE9A
:1045D0003B6846F62D621A8001E0FDF70BFE1037AE
:1045E000BD4680BD387C002050780020002100F0BE
:1045F00004B80D4B5B58435004310C480C4B421827
:104600009A42FFF4F6AF0B4A00F003B8002342F8D9
:10461000043B094B9A42FFF4F9AFFFF775F800F03D
:1046200037FBFCF78FFF7047EC50000800000020BC
:10463000480400204804002054920020FFF7FEBFE9
:10464000FFF7FEBFFFF7FEBFFFF7FEBFFFF7FEBF9E
:10465000FFF7FEBF80B483B000AF7860064B002246
:104660001A60064B00221A807B6800221A800C37E1
:10467000BD465DF8047B7047F87E0020287E002050
:1046800080B582B002AFFBF7CDFEFDF773F80120D5
:10469000FDF7A8F8FDF7B8F80020FDF737F94FF45B
:1046A0008050FDF76BF94FF4A050FDF74BF907234D
:1046B00000934FF4800019214FF4A8720223FDF7F4
:1046C000CBF80120FDF7E6F800BF3920FDF73AFAF4
:1046D0000346002BF9D00520FEF7D0FF0120FEF79E
:1046E000DDFF0220FDF7E6F800BFFDF7FFF8034607
:1046F000082BFAD100F022F8BD4680BD80B584B009
:1047000000AF3B461846FDF755F97B681846103751
:10471000BD4680BD80B582B000AFFFF7EFFF786087
:10472000054B1B687A68B2FBF3F33B603868FCF713
:10473000A9FA0837BD4680BD7450000880B582B024
:1047400000AF0620FEF794FD4FF4A0733B600123F9
:104750003B710023BB710123FB7102237B713B463C
:104760000D481946FEF7FCFE0820FEF781FD4FF4C8
:1047700000733B603B4609481946FEF7F1FE0220F4
:10478000FEF776FD80233B603B4605481946FEF761
:10479000E7FE0837BD4680BD0018024000200240F9
:1047A0000008024080B582B000AFFFF7A7FF786035
:1047B0000A4B0A4A126842F080721A60084B0022C3
:1047C0001A60084B074A126842F001021A607868C2
:1047D000FCF79EFA0837BD4680BD00BFFCED00E047
:1047E000041000E0001000E080B483B000AF054B7F
:1047F0001B687B607B6818460C37BD465DF8047B00
:10480000704700BF041000E080B58EB00AAF78603A
:104810003B4B00221A603B4B1B68002B08D03A4BE5
:104820001A68384B1B68B2FBF3F2384B1A6007E08A
:10483000354B1A68364BA3FB0213DA08334B1A6068
:10484000324B1A68334B1A60334B00221A60334BD9
:1048500000221A600023FB8110E0FB89DA00304B54
:104860001344BB60BB6800229A80BB680022DA80D8
:10487000BB6800221A60FB890133FB81294B1B882E
:10488000FA899A42E9D3284B1B68002B04D17B6834
:1048900047F247321A802FE0244B1A68244B1B68DA
:1048A0009A4204D27B6847F248321A8024E0214BB6
:1048B0001B783E2B04D97B6847F246321A801BE0F6
:1048C0001C4B1878184B19681B4B1A68174B1B6840
:1048D0000090019102920393002304930023059317
:1048E000002306930B2307937B680893134814490E
:1048F000144A0023FEF7ECFF1037BD4680BD00BF11
:10490000EC7E00209850000874500008F47E0020CF
:10491000CDCCCCCCFC7E0020347C00204C7C002014
:10492000CC890020AC5000089C500008A45000081E
:104930007050000894500008A0500008647C0020CB
:10494000CC5000088D4B000880B487B000AF786071
:104950000B467B807B68022283F82A207B88012B10
:1049600007D17B685A6A4F4B1B681A447B689A616F
:1049700012E07B681B6A002B07D17B685A6A494B9F
:104980001B681A447B689A6106E07B681A6A454B8B
:104990001B681A447B689A617B689B69424A12884B
:1049A000B3FBF2F102FB01F29B1A7B827B8ADA00F5
:1049B0003E4B1344FB60FB681B68002B0CD17B68EB
:1049C00000221A617B6800225A61FB687A681A60CB
:1049D000FB6801229A8056E07B689A69314B1B681C
:1049E000D21A7B68DA61FB681B687B6142E07B69F5
:1049F0009A692C4B1B68D21A7B69DA617B68DA6989
:104A00007B69DB699A4213D97B691B69002B03D050
:104A10007B691B697B612DE07B6800221A617B68E2
:104A20007A695A617B697A681A6100237B6121E0A7
:104A30007B695B69002B0CD17B6800225A617B6823
:104A40007A691A617B697A685A61FB687A681A60C8
:104A50000EE07B695B69BB607B68BA685A617B6802
:104A60007A691A61BB687A681A617B697A685A61E7
:104A700000237B617B69002BB9D1FB689B880133E4
:104A80009AB2FB689A80FB68DA88FB689B889A4236
:104A900003D2FB689A88FB68DA801C37BD465DF854
:104AA000047B7047347C0020AC500008CC89002087
:104AB00080B483B000AF0023FB800AE0FB88DA00FB
:104AC000094B13443B603B680022DA80FB880133CA
:104AD000FB80064B1B88FA889A42EFD30C37BD4601
:104AE0005DF8047B704700BFCC890020AC50000803
:104AF00080B487B000AF78607B689B69214A1288D8
:104B0000B3FBF2F102FB01F29B1AFB82FB8ADA0093
:104B10001D4B13443B613B691A687B689A420CD178
:104B20007B681B69FB603B69FA681A60FB68002BB5
:104B300012D0FB6800225A610EE07B685B69FB6063
:104B40007B681B69BB60FB68BA681A61BB68002B95
:104B500002D0BB68FA685A617B68012283F82A2078
:104B60007B6800221A617B6800225A613B699B883E
:104B7000013B9AB23B699A801C37BD465DF8047BC5
:104B8000704700BFAC500008CC89002080B58CB0C5
:104B900000AF786007F1080207F10E030020002142
:104BA000FFF762F807F10E031846FDF773FBFFF7F6
:104BB0001BFE7862324B1B685A1C314B1A60304B1B
:104BC0001B68304A1288B3FBF2F102FB01F29B1A18
:104BD0007B847B8CDA002C4B1344FB61FB691B68E4
:104BE000BB62002387F82F3031E0BB6A002B2BD04B
:104BF000BB6A1B69BB61BB6A9A69214B1B689A42FD
:104C00001ED1B86AFFF774FFBB6A1B8D022B04D15B
:104C1000B86A0121FFF798FE03E0BB6A032283F81C
:104C20002A20BB6A9B687B617B69002B05D0BB6A2D
:104C3000DA687B69B86A11469847BB69BB6206E0CF
:104C4000012387F82F3002E0012387F82F3097F8EF
:104C50002F30002BC9D0FFF7C7FD02467B6AD31A5D
:104C60003B6107F10E031846FDF74EFB074B1A6830
:104C70003B699A4203D2054B3A691A608AE789E791
:104C8000347C0020AC500008CC8900204C7C0020F3
:104C900070B50D4D0D4E761BB61006D0002455F89C
:104CA000043B01349847A642F9D1094D094E761BC1
:104CB00000F08EF8B61006D0002455F8043B0134FD
:104CC0009847A642F9D170BD38040020380400206E
:104CD0003804002040040020024B13B1024800F0C9
:104CE00005B8704700000000F94C0008014600209C
:104CF0000246034600F016B838B5084D084C641B50
:104D0000A41006D005EB840555F8043D9847013CF6
:104D1000FAD1BDE8384000F061B800BF400400207F
:104D2000440400202DE9F041274C2568D5F848417E
:104D300084B00646002C42D060681F281DDD234841
:104D400010B94FF0FF301FE04FF4C870039102928A
:104D50000193AFF300800399029A019B0446002857
:104D6000EFD0D5F84801002784E88100C5F8484114
:104D70003846C4F88871C4F88C7146B9831C013078
:104D800044F823106060002004B0BDE8F081D4F83E
:104D900088C1012504EB800805FA00F54CEA050CF2
:104DA000022E4746C8F88820C4F888C1C8F80831E0
:104DB000E4D1D4F88C311D43C4F88C51DEE705F5FD
:104DC000A674C5F84841B7E7E850000800000000A5
:104DD000F8B500BFF8BC08BC9E467047F8B500BFE8
:104DE000F8BC08BC9E46704775432F4F532D494968
:104DF00049205469636B205461736B0041707020CB
:104E00005461736B20537461727400005461706953
:104E1000732030005461706973203100547269004E
:104E20005461706973206427657661637561746984
:104E30006F6E2076657273206C61206761756368A0
:104E400065000000546170697320642765766163B2
:104E5000756174696F6E2076657273206C61206471
:104E6000726F697465000000010101007856341208
:104E70000101000000000000000000000000000030
:104E80000000000000000000000000000000000022
:104E9000000000000000000000000000010101000F
:104EA00028000400000000000000000000000000D6
:104EB00000000000000000000000000000000000F2
:104EC00000000000000000000100200001001000B0
:104ED0000C001000000000000000000000000000B6
:104EE00000000000000000000000000000000000C2
:104EF00000000000000000000000000000000000B2
:104F0000010101002C00010120000C0020004000E4
:104F10000800040000000000000000000000000085
:104F20000000000000000000000000000000000081
:104F30000000000000000000000000000000000071
:104F4000000000000101010130000000000000002D
:104F50000000000000000000000000000000000051
:104F60000000000000000000000000000000000041
:104F7000000000000101010128000C0000030000F6
:104F8000040101010101010101000101C00008004B
:104F9000010100000000000000000000000000000F
:104FA0000000000000000000000000000000000001
:104FB00000000000000000000000000000000000F1
:104FC00000000000000000000101340008005D76D0
:104FD0009F06000075432F4F532D494949204964CE
:104FE0006C65205461736B005461736B2051000039
:104FF0005461736B2053656D0000000020000000B9
:1050000075432F4F532D49494920537461742054DF
:1050100061736B00549000200C00000080000000C1
:10502000000200000000000000000000000000007E
:105030000000000000000000000000000000000070
:10504000548A0020000100000004000064000000F9
:10505000400600008C8100203E0000000A00000095
:105060000C7F00200C000000800000000002000007
:1050700040000000E803000001000000548E002002
:105080000C00000080000000000200001000000082
:10509000800000003E0000000A000000CC870020D5
:1050A0000C00000080000000000200001100000061
:1050B00088000000481300003F5461736B0000003B
:1050C000200000003F544D520000000075432F4F58
:1050D000532D4949492054696D6572205461736BA1
:0C50E00000000000430000001000002051
:1050EC000000000001020304010203040607080982
:1050FC0000000000FC02002064030020CC03002010
:10510C000000000000000000000000000000000093
:10511C000000000000000000000000000000000083
:10512C0000000000E4500008000000000000000037
:10513C000000000000000000000000000000000063
:10514C000000000000000000000000000000000053
:10515C000000000000000000000000000000000043
:10516C000000000000000000000000000000000033
:10517C000000000000000000000000000000000023
:10518C000000000000000000000000000000000013
:10519C000000000000000000010000000000000002
:1051AC000E33CDAB34126DE6ECDE05000B000000C7
:1051BC0000000000000000000000000000000000E3
:1051CC0000000000000000000000000000000000D3
:1051DC0000000000000000000000000000000000C3
:1051EC0000000000000000000000000000000000B3
:10551C000000000000000000D94C0008AD0100089C
:08552C008901000800000000E5
:0400000508000000EF
:00000001FF
