:020000040800F2
:100000000000022065590008AC590008AE590008EC
:10001000B0590008B2590008B4590008B659000890
:10002000B6590008B6590008B6590008B659000874
:10003000B6590008B659000897050008B510000821
:100040007D0600088D0600089D060008AD06000824
:10005000BD060008CD060008DD060008ED06000814
:10006000FD0600080D0700081D0700082D07000801
:100070003D0700084D0700085D0700086D070008F0
:100080007D0700088D0700089D070008AD070008E0
:10009000BD070008CD070008DD070008ED070008D0
:1000A000FD0700080D0800081D0800082D080008BD
:1000B0003D0800084D0800085D0800086D080008AC
:1000C0007D0800088D0800089D080008AD0800089C
:1000D000BD080008CD080008DD080008ED0800088C
:1000E000FD0800080D0900081D0900082D09000879
:1000F0003D0900084D0900085D0900086D09000868
:100100007D0900088D0900089D090008AD09000857
:10011000BD090008CD090008DD090008ED09000847
:10012000FD0900080D0A00081D0A00082D0A000834
:100130003D0A00084D0A00085D0A00086D0A000823
:100140007D0A00088D0A00089D0A0008AD0A000813
:10015000BD0A0008CD0A0008DD0A0008ED0A000803
:10016000FD0A00080D0B00081D0B00082D0B0008F0
:100170003D0B00084D0B00085D0B00086D0B0008DF
:100180007D0B00088D0B000872B6704762B6704791
:10019000EFF3108072B6704780F31088704730BF5D
:1001A000704720BF7047B0FA80F0704790FAA0F017
:1001B000B0FA80F0704790FAA0F0704780B586B032
:1001C00000AFF8600B467A607B814FF000037B61E3
:1001D00046F28A63C2F200031B78002B04D07B68CE
:1001E00047F275221A8065E046F27C23C2F20003D2
:1001F0001B78002B04D07B6846F663521A8059E0C6
:100200007B89082B1CD801A252F823F03102000888
:100210004102000831020008410200084B020008B8
:1002200041020008410200084102000831020008B2
:10023000FB68002B0BD17B6847F27E221A8039E0E5
:100240007B6845F625621A8034E000BF00E000BFFD
:10025000FFF79EFF03467B6146F26463C2F2000330
:100260001B684FF0010283F8362046F26463C2F245
:1002700000031A687B891046F9681A467B6801F00A
:1002800099F87B681B88002B03D07869FFF784FFFF
:1002900010E046F26463C2F200031B68184603F0E4
:1002A0003FFA7869FFF778FF02F0D2FC7B684FF0E5
:1002B00000021A8007F11807BD4680BD80B588B0DE
:1002C00000AF7B600346FB810B46BB8113467B81FD
:1002D0004FF00003FB6146F28A63C2F200031B7811
:1002E000002B04D0FB6A47F275221A80FBE046F22D
:1002F0007C23C2F200031B78002B04D0FB6A46F675
:1003000063521A80EFE03B8D03F00E037B837B8BFF
:10031000082B26D801A050F823F000BF41030008A5
:100320006303000841030008630300086D0300082D
:100330006303000863030008630300084103000827
:100340007B68002B14D17B89002B11D1BB89002B3A
:100350000ED1FB89002B0BD1FB6A47F27E221A805B
:10036000C1E0FB6A45F625621A80BCE000BF00E0F0
:1003700000BF3B8D23F01E03002B0CBF0023012385
:100380007B767B7E012B04D1FB6A45F625621A80C1
:10039000A9E03B8D03F01003002B02D04FF00103C6
:1003A00001E04FF000033B763B7E012B21D07A68C1
:1003B00040F2E7339A4204D9FB6A47F27B221A8063
:1003C00091E07B893B2B04D9FB6A47F27A221A80A1
:1003D00089E0BB893B2B04D9FB6A47F279221A805A
:1003E00081E0FB89632B18D9FB6A47F278221A80D7
:1003F00079E0BA8942F20F739A4204D9FB6A47F254
:1004000079221A806FE0FA8940F2E7339A4204D9E0
:10041000FB6A47F278221A8065E046F2AC43C0F6E8
:1004200000031B687B61FB894FF4616202FB03F1EF
:10043000BA8913464FEA03139B1A4FEA8303CA187B
:100440007B89D3187A6902FB03F24FF4FA717B6956
:10045000B1FBF3F17B68CB18796901FB03F144F63A
:10046000D353C1F26203A3FB01034FEA9313D318E2
:100470003B613B69002B32D0FFF78AFE0346FB61EC
:1004800046F26463C2F200031B684FF0010283F876
:10049000362046F26463C2F200031A687B8B104672
:1004A00039691A46FB6A00F085FFFB6A1B88002B3E
:1004B00003D0F869FFF770FE15E046F26463C2F2FC
:1004C00000031B68184603F02BF9F869FFF764FE78
:1004D00002F0BEFBFB6A4FF000021A8003E0FB6AE9
:1004E00047F27E221A8007F12007BD4680BD00BF7B
:1004F00080B582B000AF00F0CDFD07F1060346F2F3
:10050000A050C2F200004FF000011A4604F0CEFDE8
:1005100046F62813C2F200031B6803F1FF3246F6C9
:100520002813C2F200031A6046F62813C2F2000331
:100530001B68002B14D146F62013C2F200031A6880
:1005400046F62813C2F200031A6007F1060346F2CA
:100550009060C2F200004FF000011A4604F0A6FDC0
:1005600007F10807BD4680BD1B481C4901700020EB
:1005700080F309881A48016881F3088819481A49E4
:10058000016062B6FEE717481749016070471548D9
:1005900015490160704772B6EFF3098028B1203821
:1005A00080E8F00F11490968086000B510488047DD
:1005B0005DF804EB0F4810490A7802700B480F49A8
:1005C0000A680260106890E8F00F203080F3098814
:1005D0004EF0040E62B6704722ED00E0FF0000000E
:1005E0006462002004ED00E000000010646600205A
:1005F000F10F00089C6500209065002070660020C7
:1006000080B500AFFFF7C0FD80BD00BF80B584B0EE
:1006100000AF786039604FF00003FB607B68512BBE
:100620000ED8FFF7B5FD0346FB6040F21003C2F29F
:1006300000037A68396843F82210F868FFF7ACFDC8
:1006400007F11007BD4680BD80B582B000AF4FF006
:1006500000037B600AE0786840F6E931C0F60001EB
:10066000FFF7D4FF7B6803F101037B607B68512BAC
:10067000F1D907F10807BD4680BD00BF80B500AFC6
:100680004FF0000000F08AFA80BD00BF80B500AFD7
:100690004FF0010000F082FA80BD00BF80B500AFCE
:1006A0004FF0020000F07AFA80BD00BF80B500AFC5
:1006B0004FF0030000F072FA80BD00BF80B500AFBC
:1006C0004FF0040000F06AFA80BD00BF80B500AFB3
:1006D0004FF0050000F062FA80BD00BF80B500AFAA
:1006E0004FF0060000F05AFA80BD00BF80B500AFA1
:1006F0004FF0070000F052FA80BD00BF80B500AF98
:100700004FF0080000F04AFA80BD00BF80B500AF8E
:100710004FF0090000F042FA80BD00BF80B500AF85
:100720004FF00A0000F03AFA80BD00BF80B500AF7C
:100730004FF00B0000F032FA80BD00BF80B500AF73
:100740004FF00C0000F02AFA80BD00BF80B500AF6A
:100750004FF00D0000F022FA80BD00BF80B500AF61
:100760004FF00E0000F01AFA80BD00BF80B500AF58
:100770004FF00F0000F012FA80BD00BF80B500AF4F
:100780004FF0100000F00AFA80BD00BF80B500AF46
:100790004FF0110000F002FA80BD00BF80B500AF3D
:1007A0004FF0120000F0FAF980BD00BF80B500AF35
:1007B0004FF0130000F0F2F980BD00BF80B500AF2C
:1007C0004FF0140000F0EAF980BD00BF80B500AF23
:1007D0004FF0150000F0E2F980BD00BF80B500AF1A
:1007E0004FF0160000F0DAF980BD00BF80B500AF11
:1007F0004FF0170000F0D2F980BD00BF80B500AF08
:100800004FF0180000F0CAF980BD00BF80B500AFFE
:100810004FF0190000F0C2F980BD00BF80B500AFF5
:100820004FF01A0000F0BAF980BD00BF80B500AFEC
:100830004FF01B0000F0B2F980BD00BF80B500AFE3
:100840004FF01C0000F0AAF980BD00BF80B500AFDA
:100850004FF01D0000F0A2F980BD00BF80B500AFD1
:100860004FF01E0000F09AF980BD00BF80B500AFC8
:100870004FF01F0000F092F980BD00BF80B500AFBF
:100880004FF0200000F08AF980BD00BF80B500AFB6
:100890004FF0210000F082F980BD00BF80B500AFAD
:1008A0004FF0220000F07AF980BD00BF80B500AFA4
:1008B0004FF0230000F072F980BD00BF80B500AF9B
:1008C0004FF0240000F06AF980BD00BF80B500AF92
:1008D0004FF0250000F062F980BD00BF80B500AF89
:1008E0004FF0260000F05AF980BD00BF80B500AF80
:1008F0004FF0270000F052F980BD00BF80B500AF77
:100900004FF0280000F04AF980BD00BF80B500AF6D
:100910004FF0290000F042F980BD00BF80B500AF64
:100920004FF02A0000F03AF980BD00BF80B500AF5B
:100930004FF02B0000F032F980BD00BF80B500AF52
:100940004FF02C0000F02AF980BD00BF80B500AF49
:100950004FF02D0000F022F980BD00BF80B500AF40
:100960004FF02E0000F01AF980BD00BF80B500AF37
:100970004FF02F0000F012F980BD00BF80B500AF2E
:100980004FF0300000F00AF980BD00BF80B500AF25
:100990004FF0310000F002F980BD00BF80B500AF1C
:1009A0004FF0320000F0FAF880BD00BF80B500AF14
:1009B0004FF0330000F0F2F880BD00BF80B500AF0B
:1009C0004FF0340000F0EAF880BD00BF80B500AF02
:1009D0004FF0350000F0E2F880BD00BF80B500AFF9
:1009E0004FF0360000F0DAF880BD00BF80B500AFF0
:1009F0004FF0370000F0D2F880BD00BF80B500AFE7
:100A00004FF0380000F0CAF880BD00BF80B500AFDD
:100A10004FF0390000F0C2F880BD00BF80B500AFD4
:100A20004FF03A0000F0BAF880BD00BF80B500AFCB
:100A30004FF03B0000F0B2F880BD00BF80B500AFC2
:100A40004FF03C0000F0AAF880BD00BF80B500AFB9
:100A50004FF03D0000F0A2F880BD00BF80B500AFB0
:100A60004FF03E0000F09AF880BD00BF80B500AFA7
:100A70004FF03F0000F092F880BD00BF80B500AF9E
:100A80004FF0400000F08AF880BD00BF80B500AF95
:100A90004FF0410000F082F880BD00BF80B500AF8C
:100AA0004FF0420000F07AF880BD00BF80B500AF83
:100AB0004FF0430000F072F880BD00BF80B500AF7A
:100AC0004FF0440000F06AF880BD00BF80B500AF71
:100AD0004FF0450000F062F880BD00BF80B500AF68
:100AE0004FF0460000F05AF880BD00BF80B500AF5F
:100AF0004FF0470000F052F880BD00BF80B500AF56
:100B00004FF0480000F04AF880BD00BF80B500AF4C
:100B10004FF0490000F042F880BD00BF80B500AF43
:100B20004FF04A0000F03AF880BD00BF80B500AF3A
:100B30004FF04B0000F032F880BD00BF80B500AF31
:100B40004FF04C0000F02AF880BD00BF80B500AF28
:100B50004FF04D0000F022F880BD00BF80B500AF1F
:100B60004FF04E0000F01AF880BD00BF80B500AF16
:100B70004FF04F0000F012F880BD00BF80B500AF0D
:100B80004FF0500000F00AF880BD00BF80B500AF04
:100B90004FF0510000F002F880BD00BF80B584B076
:100BA00000AF78604FF00003FB60FFF7F1FA0346F7
:100BB000FB6001F097FFF868FFF7EEFA7B68512BB6
:100BC0000CD840F21003C2F200037A6853F82230C6
:100BD000BB60BB68002B01D0BB68984701F0A6FF43
:100BE00007F11007BD4680BD80B400AFBD4680BC94
:100BF000704700BF80B483B000AF40F21863C2F208
:100C000000037B607A6844F24853C5F241031360E5
:100C10007A6840F21863C2F2000353607B684FF0B9
:100C200000029A607B684FF00002DA607B684FF048
:100C300000021A617B684FF000025A617B684FF036
:100C400000029A617B684FF00002DA617B684FF026
:100C500000021A627B684FF000021A637B684FF053
:100C60000002DA627B684FF000025A627A6840F252
:100C70006063C2F2000393637A6840F26063C2F279
:100C80000003D3637B684FF4B8421A647B684FF467
:100C9000B8425A6446F26023C2F2000340F218627E
:100CA000C2F200021A6007F10C07BD4680BC704713
:100CB00080B582B000AF7860396078684FF000018D
:100CC0003A6800F005F807F10807BD4680BD00BF8F
:100CD00080B48BB000AFF8600B467A60FB727B6823
:100CE000002B5FD0FB68002B5ED04FF000033B620F
:100CF0004FF000037B610BE03B6A4FEA03233B624A
:100D0000FB7A3A6A13433B627B6903F101037B611F
:100D10007B69032BF0D97B687B62FB68DBB203F055
:100D200003033B61FB68BB613B69002B17D03B6948
:100D30007B610EE0BB69FA7A1A70BB6903F10103AB
:100D4000BB617B6A03F1FF337B627B6903F10103C3
:100D50007B617B6A002B02D07B69032BEAD9BB69DC
:100D6000FB610AE0FB693A6A1A60FB6903F104035C
:100D7000FB617B6AA3F104037B627B6A032BF1D8DE
:100D8000FB69BB610AE0BB69FA7A1A70BB6903F1BF
:100D90000103BB617B6A03F1FF337B627B6A002B3B
:100DA000F1D102E000BF00E000BF07F12C07BD4613
:100DB00080BC704780B500AF46F62803C2F200033E
:100DC0001B68002B05D046F62803C2F200031B68FF
:100DD000984780BD80B400AF46F27843C0F6000368
:100DE0001A6846F27C43C0F600031B684FEA83038F
:100DF000D21846F26423C2F200031A6046F264235A
:100E0000C2F200031B6823F007031A4646F264236C
:100E1000C2F200031A60BD4680BC704780B500AFC7
:100E200046F64403C2F200031B68002B05D046F6C9
:100E30004403C2F200031B68984780BD80B582B0AE
:100E400000AF786046F29853C2F200031B68002B93
:100E500006D046F29853C2F200031B6878689847A0
:100E600007F10807BD4680BD80B582B000AF78604D
:100E700046F27C63C2F200031B68002B06D046F2E8
:100E80007C63C2F200031B687868984707F1080783
:100E9000BD4680BD80B582B000AF786046F2802349
:100EA000C2F200031B68002B06D046F28023C2F278
:100EB00000031B687868984707F10807BD4680BDA6
:100EC00080B487B000AFF860B9607A603B603B6A7D
:100ED0004FEA83037A68D3187B617B6923F00703A9
:100EE0007B617B69A3F104037B617B694FF08072B6
:100EF0001A607B69A3F104037B61FA687B691A605D
:100F00007B69A3F104037B6145F2C963C0F600036A
:100F10007A6913607B69A3F104037B617B694FF0FD
:100F200012321A607B69A3F104037B617B694FF085
:100F300003321A607B69A3F104037B617B694FF084
:100F400002321A607B69A3F104037B613A687B6912
:100F50001A607B69A3F104037B61BA687B691A603C
:100F60007B69A3F104037B617B694FF011321A6046
:100F70007B69A3F104037B617B694FF010321A6037
:100F80007B69A3F104037B617B694FF009321A602E
:100F90007B69A3F104037B617B694FF008321A601F
:100FA0007B69A3F104037B617B694FF007321A6010
:100FB0007B69A3F104037B617B694FF006321A6001
:100FC0007B69A3F104037B617B694FF005321A60F2
:100FD0007B69A3F104037B617B694FF004321A60E3
:100FE0007B69184607F11C07BD4680BC704700BFEF
:100FF00080B582B000AF46F63403C2F200031B682E
:10100000002B05D046F63403C2F200031B68984754
:1010100004F0CAFD03467B6046F26463C2F200033B
:101020001A6846F27063C2F200031B689A4225D028
:1010300046F26463C2F200031A6846F26463C2F2C5
:1010400000031B68D3F898307968CB1AC2F8943043
:1010500046F26463C2F200031A6846F26463C2F2A5
:1010600000031B68D3F89C1046F26463C2F20003CD
:101070001B68D3F89430CB18C2F89C3046F27063EA
:10108000C2F200031B687A68C3F8982007F10807CA
:10109000BD4680BD80B500AF46F28063C2F200035A
:1010A0001B68002B05D046F28063C2F200031B6868
:1010B000984780BD80B582B000AF4FF000037B60E1
:1010C000FFF766F803467B6046F28A63C2F20003CC
:1010D0001B7803F10103DAB246F28A63C2F200031D
:1010E0001A707868FFF758F8FFF702FA01F01EFD52
:1010F00007F10807BD4680BD80B485B000AF7860B9
:101100004EF21403CEF200037A6802F1FF321A6045
:101110004EF62053CEF200031B68FB60FB6823F001
:101120007F43FB604EF62053CEF20003FA681A604C
:101130004EF21003CEF200034EF21002CEF2000285
:10114000126842F005021A604EF21003CEF200035C
:101150004EF21002CEF20002126842F002021A6051
:1011600007F11407BD4680BC704700BF80B500AFD3
:1011700000F034F800F02CF880BD00BF80B582B0DC
:1011800000AF4FF000037B60FFF702F803467B607F
:1011900046F26C20C2F200004FF01001FFF788FD0C
:1011A0007868FEF7F9FF07F10807BD4680BD00BF6C
:1011B00080B483B000AF786046F26823C2F20003C7
:1011C0007A681A6007F10C07BD4680BC704700BF03
:1011D00080B500AFFFF7D2FF80BD00BF80B500AF84
:1011E00046F26823C2F200034FF000021A6004F0D6
:1011F000ADFC80BD80B483B000AF786046F64C0390
:10120000C2F200034FF000021A6046F64803C2F231
:1012100000034FF000021A807B684FF000021A8032
:1012200007F10C07BD4680BC704700BF80B584B095
:1012300000AF786000E000BF07F1080207F10E037D
:101240004FF000004FF0000103F0F4FDFB89002B8C
:10125000F1D146F28D23C2F200031B78012BEAD1B3
:1012600000F038FAE7E700BF80B58CB00AAF7860CD
:1012700046F63003C2F200034FF000021A6046F651
:101280001C13C2F200034FF000021A6000F064F871
:1012900046F2B443C0F600031B68002B04D17B6800
:1012A00047F212221A8052E046F2BC43C0F6000315
:1012B0001A6846F2A843C0F600031B689A4204D29B
:1012C0007B6847F213221A8041E046F2B043C0F631
:1012D00000031B783E2B04D97B6847F211221A8049
:1012E00035E046F2B043C0F60003187846F2B44346
:1012F000C0F60003196846F2B843C0F600031A6846
:1013000046F2BC43C0F600031B68009001910292B4
:1013100003934FF0000304934FF0000305934FF045
:10132000000306934FF00B0307937B68089346F284
:10133000A050C2F2000046F28C11C0F6000141F24A
:101340002D22C0F600024FF0000303F07FFB07F1EF
:101350000807BD4680BD00BF80B483B000AF4FF02A
:101360000003FB8018E0FB884FEAC30246F63833DF
:10137000C2F20003D3183B603B684FF000021A60D2
:101380003B684FF000029A803B684FF00002DA8021
:10139000FB8803F10103FB8046F2C443C0F600035F
:1013A0001B88FA889A42DED307F10C07BD4680BC41
:1013B000704700BF80B48BB000AFF860B9603B608D
:1013C0001346FB80FB88042B27D146F63003C2F27C
:1013D00000031B68BA68D31A03F1FF333B623B6A10
:1013E00013F5803F10D9FB684FF00002DA64FB6808
:1013F0004FF000021A65FB684FF00002DA613B68AB
:1014000047F27E221A80EEE0FB68BA68DA643B6A33
:1014100003F10102FB681A6552E0BB68002B3ED065
:10142000FB88082B2ED1FB689A6CBB68D318FB6134
:1014300046F63003C2F200031B68FA69D31A03F1BF
:10144000FF333B623A6ABB689A4203D2FB68FA698F
:10145000DA6408E046F63003C2F200031A68BB689B
:10146000D218FB68DA64FB68DA6C46F63003C2F225
:1014700000031B68D21AFB681A65FB68DA6CFB680C
:101480009A641DE046F63003C2F200031A68BB6896
:10149000D218FB68DA64FB68BA681A6510E0FB686A
:1014A0004FF00002DA64FB684FF000021A65FB6837
:1014B0004FF00002DA613B6847F27E221A8092E028
:1014C000FB68DA6C46F2C443C0F600031B88B2FB2B
:1014D000F3F103FB01F3D31A7B837B8B4FEAC30247
:1014E00046F63833C2F20003D3187B617B699B88D0
:1014F000002B0FD1FB684FF000025A61FB684FF0E0
:1015000000029A617B69FA681A607B694FF00102F8
:101510009A8057E07B691B687B6249E07B6ADA6CE2
:1015200046F63003C2F200031B68D21A7B6A1A65C2
:10153000FB681A6D7B6A1B6D9A4215D97B6A5B69E1
:10154000002B03D07B6A5B697B6231E0FB684FF064
:1015500000025A61FB687A6A9A617B6AFA685A618A
:101560004FF000037B6223E07B6A9B69002B0DD167
:10157000FB684FF000029A61FB687A6A5A617B6AE5
:10158000FA689A617B69FA681A600EE07B6A9B6967
:101590003B61FB683A699A61FB687A6A5A613B6908
:1015A000FA685A617B6AFA689A614FF000037B62BD
:1015B0007B6A002BB2D17B699B8803F101039AB24D
:1015C0007B699A807B69DA887B699B889A4203D21F
:1015D0007B699A887B69DA80FB687A69DA613B68A3
:1015E0004FF000021A8007F12C07BD4680BC7047FF
:1015F00080B487B000AF78607B68DB697B617B6912
:10160000002B3CD07B684FF000021A657B691A689A
:101610007B689A420DD17B685B693B617B693A6963
:101620001A603B69002B13D03B694FF000029A61AE
:101630000EE07B689B693B617B685B69FB603B6993
:10164000FA685A61FB68002B02D0FB683A699A611C
:101650007B684FF000025A617B684FF000029A618C
:101660007B684FF00002DA617B684FF00002DA64B9
:101670007B699B8803F1FF339AB27B699A8007F1FB
:101680001C07BD4680BC704780B483B000AF4FF0EC
:101690000003FB8010E0FB884FEAC30246F63833B4
:1016A000C2F20003D3183B603B684FF00002DA80BF
:1016B000FB8803F10103FB8046F2C443C0F600033C
:1016C0001B88FA889A42E6D307F10C07BD4680BC16
:1016D000704700BF80B588B000AF4FF000037B615A
:1016E000FEF756FD03467B6104F05EFA03463B615C
:1016F00046F63003C2F200031B6803F1010246F60E
:101700003003C2F200031A6046F63003C2F200034F
:101710001A6846F2C443C0F600031B88B2FBF3F11B
:1017200003FB01F3D31AFB81FB894FEAC30246F6A0
:101730003833C2F20003D318BB60BB681B68BB61BF
:101740004FF00003FB77DCE0BB69002B00F0D68094
:10175000BB695B697B60BB6993F83630072B00F28D
:10176000C98001A252F823F0F51800088917000873
:10177000F5180008C9170008F51800083F180008F8
:10178000F51800087F180008BB69DA6C46F63003CC
:10179000C2F200031B68D21ABB691A65BB69DA6C16
:1017A00046F63003C2F200031B689A4208D1BB69B7
:1017B0004FF0000283F83620B86902F041F89AE051
:1017C0004FF00103FB7796E0BB69DA6C46F6300315
:1017D000C2F200031B68D21ABB691A65BB69DA6CD6
:1017E00046F63003C2F200031B689A4223D1BB695C
:1017F0004FF00002DA65BB694FF00002A3F86020E9
:1018000004F0D2F90246BB691A64B86901F06CFDB4
:10181000B86902F015F8BB694FF0000283F8362072
:10182000BB694FF0030283F83520BB694FF000021B
:1018300083F834205FE04FF00103FB775BE0BB6986
:10184000DA6C46F63003C2F200031B68D21ABB6999
:101850001A65BB69DA6C46F63003C2F200031B68F6
:101860009A4208D1BB694FF0040283F83620B86968
:10187000FFF7BEFE3FE04FF00103FB773BE0BB69A3
:10188000DA6C46F63003C2F200031B68D21ABB6959
:101890001A65BB69DA6C46F63003C2F200031B68B6
:1018A0009A4223D1BB694FF00002DA65BB694FF061
:1018B0000002A3F8602004F077F90246BB691A64BD
:1018C000B86901F011FDB869FFF792FEBB694FF0EE
:1018D000040283F83620BB694FF0030283F83520F9
:1018E000BB694FF0000283F8342004E04FF001039D
:1018F000FB7700E000BF7B68BB6102E04FF00103B3
:10190000FB77FB7F002B3FF41FAF04F04DF902463D
:101910003B69D31A3B6046F61C13C2F200031A68F7
:101920003B689A4205D246F61C13C2F200033A689D
:101930001A607869FEF730FC07F12007BD4680BDCC
:1019400080B487B000AF786046F28C43C0F60003E5
:101950001B68002B04D17B6845F21E721A807CE064
:1019600046F28443C0F600031B88002B04D17B6839
:1019700045F21D721A8070E046F28C43C0F60003F7
:101980001B687B6146F28C43C0F600031B683B6119
:101990003B6903F110033B6146F28443C0F6000348
:1019A0001B8803F1FF33BB814FF00003FB811AE07A
:1019B0007B693A691A607B694FF000025A607B6963
:1019C0004FF000021A817B694FF00002DA607B69F8
:1019D00003F110037B613B6903F110033B61FB8959
:1019E00003F10103FB81FA89BB899A42E0D37B6949
:1019F0004FF000021A607B694FF000025A607B6969
:101A00004FF000021A817B694FF00002DA6046F263
:101A10008C43C0F600031A6846F25073C2F200030A
:101A20001A6046F28443C0F600031A8846F25073E7
:101A3000C2F200039A8046F25073C2F200034FF0E4
:101A40000002DA8046F25073C2F200034FF0000247
:101A50001A817B684FF000021A8007F11C07BD460F
:101A600080BC704780B485B000AF78607B685B89CC
:101A7000FB817B685B89002B3CD07B681B68BB606B
:101A800046F25073C2F200031A68BB681A607B68A2
:101A90005A6846F25073C2F200031A6046F250735D
:101AA000C2F20003DA887B685B89D31A9AB246F2E5
:101AB0005073C2F20003DA8046F25073C2F20003A0
:101AC0009A887B685B89D3189AB246F25073C2F247
:101AD00000039A807B684FF000025A817B684FF0C8
:101AE00000029A817B684FF000021A607B684FF019
:101AF00000025A60FB89184607F11407BD4680BCF6
:101B0000704700BF80B483B000AF78600B467B8025
:101B10007B687A881A817B684FF000025A817B6863
:101B20004FF000029A817B684FF000021A607B68D8
:101B30004FF000025A6007F10C07BD4680BC7047A9
:101B400080B58EB00AAF4FF008004FF0010100F0F1
:101B5000D7FB4FF470437B604FF001033B724FF0B3
:101B60000003BB724FF003037B724FF00003FB7264
:101B700007F104034FF44060C4F20200194602F07A
:101B8000FFFBFEF73DFD07F10E03184600F09EFE39
:101B900040F21823C2F200035A6E4FF00203009382
:101BA00040F21823C2F20003019302924FF48073B3
:101BB00003934FF0000304934FF0000305934FF09D
:101BC000000306934FF00303079307F10E030893F6
:101BD00040F25810C2F2000046F2A011C0F6000117
:101BE00041F60942C0F600024FF0000302F02EFF5A
:101BF00007F10E03184601F037F94FF000031846BD
:101C000007F11007BD4680BD80B586B002AF786091
:101C100003F0EEFEFFF7AAFA03F040FFFEF7EAFF3B
:101C200002F08AFD07F10E03184601F0CBFE4FF4D7
:101C30004063C4F202034FF44062C4F202025269EC
:101C400082F400425A614FF00003009307F10E0343
:101C500001934FF000004FF000014FF000024FF0F1
:101C60006403FEF72BFBE2E780B485B000AF786039
:101C700039604FF44063C4F202034FF470425A8358
:101C80004FF44063C4F202034FF44062C4F2020214
:101C9000526982F470425A614FF00003FB6003E026
:101CA000FB6803F10103FB60FA6849F27F63C0F24D
:101CB00098039A42F4D9E3E780B400AF4FF460533D
:101CC000C4F202034FF46052C4F20202126842F0FE
:101CD00001021A604FF46053C4F202034FF0000295
:101CE0009A604FF46053C4F202034FF46052C4F29E
:101CF0000202126822F0A85222F410221A604FF455
:101D00006053C4F2020343F21002C2F200425A606E
:101D10004FF46053C4F202034FF44052C2F2000287
:101D2000C3F884204FF46053C4F202034FF44052CE
:101D3000C2F20042C3F888204FF46053C4F2020399
:101D40004FF46052C4F20202126822F480221A6038
:101D50004FF46053C4F202034FF00002DA604FF414
:101D60006053C4F202034FF00002C3F88C20BD465A
:101D700080BC704780B582B000AF0346FB71FB7931
:101D8000002B0DD0FB79012B0AD0FB79052B07D056
:101D900046F2B010C0F6000040F20B11FFF764FFEE
:101DA00043F60203C4F202034FF000021A7043F636
:101DB0000203C4F20203FA791A7007F10807BD465C
:101DC00080BD00BF80B582B000AF4FF000033B6024
:101DD0004FF00003FB714FF00003BB714FF0310077
:101DE00000F0DAFA0346BB713B6803F101033B6084
:101DF0003B68B3F5A04F02D0BB79002BEED04FF07B
:101E0000310000F0C9FA0346002B03D04FF0010364
:101E1000FB7102E04FF00003FB71FB79184607F1FC
:101E20000807BD4680BD00BF80B584B000AFF86034
:101E3000B9607A603B60FB68002B0BD0FB68B3F5A0
:101E4000800F07D046F2B010C0F600004FF4E971E1
:101E5000FFF70AFFBB683F2B07D946F2B010C0F668
:101E6000000040F2D311FFF7FFFE7B68BF2B03D9C0
:101E70007B68B3F5D87F07D946F2B010C0F60000F2
:101E80004FF4EA71FFF7F0FE3B68022B10D03B687D
:101E9000042B0DD03B68062B0AD03B68082B07D0DB
:101EA00046F2B010C0F6000040F2D511FFF7DCFE9C
:101EB000BB69032B02D9BB690F2B07D946F2B010BF
:101EC000C0F600004FF4EB71FFF7CEFE4FF4605305
:101ED000C4F202037A684FEA8211BA6811433A6881
:101EE0004FEA520202F1FF324FEA02421143FA680E
:101EF0001143BA694FEA02620A435A6007F11007B8
:101F0000BD4680BD80B582B000AF0346FB71FB7952
:101F1000002B0AD0FB79012B07D046F2B010C0F697
:101F2000000040F2E911FFF79FFE4FF06003C4F29A
:101F30004723FA791A6007F10807BD4680BD00BF44
:101F400080B584B000AF78604FF00003FB607B6821
:101F5000002B0DD07B68012B0AD07B68022B07D0A9
:101F600046F2B010C0F600004FF45971FFF77CFE46
:101F70004FF46053C4F202039B68FB60FB6823F0DC
:101F80000303FB60FA687B681343FB604FF4605304
:101F9000C4F20203FA689A6007F11007BD4680BDDB
:101FA00080B400AF4FF46053C4F202039B68DBB20D
:101FB00003F00C03DBB21846BD4680BC704700BF7F
:101FC00080B584B000AF78604FF00003FB607B68A1
:101FD000002B1FD07B68802B1CD07B68902B19D0E6
:101FE0007B68A02B16D07B68B02B13D07B68C02BEE
:101FF00010D07B68D02B0DD07B68E02B0AD07B689B
:10200000F02B07D046F2B010C0F6000040F2993134
:10201000FFF72AFE4FF46053C4F202039B68FB6093
:10202000FB6823F0F003FB60FA687B681343FB60F6
:102030004FF46053C4F20203FA689A6007F1100784
:10204000BD4680BD80B584B000AF78604FF000031E
:10205000FB607B68002B17D07B68B3F5805F13D0E3
:102060007B68B3F5A05F0FD07B68B3F5C05F0BD082
:102070007B68B3F5E05F07D046F2B010C0F6000011
:1020800040F2B931FFF7F0FD4FF46053C4F20203A0
:102090009B68FB60FB6823F4E053FB60FA687B6895
:1020A0001343FB604FF46053C4F20203FA689A6072
:1020B00007F11007BD4680BD80B584B000AF7860E1
:1020C0004FF00003FB607B68002B17D07B68B3F5F3
:1020D000805F13D07B68B3F5A05F0FD07B68B3F54A
:1020E000C05F0BD07B68B3F5E05F07D046F2B0105D
:1020F000C0F600004FF47671FFF7B6FD4FF4605361
:10210000C4F202039B68FB60FB6823F46043FB603E
:102110007B684FEAC303FA681343FB604FF46053D4
:10212000C4F20203FA689A6007F11007BD4680BD49
:1021300080B489B000AF78604FF00003BB614FF00E
:1021400000037B614FF00003FB614FF002033B6132
:102150004FF00003FB604FF00203BB604FF460538D
:10216000C4F202039B6803F00C03BB61BB69042B40
:102170000AD0082B0FD0002B62D17A684FF410538D
:10218000C0F2F403136062E07A684FF49053C0F237
:102190007A0313605BE04FF46053C4F202035B68A0
:1021A00003F480034FEA9353FB604FF46053C4F28F
:1021B00002035B6803F03F03BB60FB68002B15D094
:1021C0004FF49053C0F27A03BA68B3FBF2F24FF4C3
:1021D0006053C4F202035B68194647F6C0730B40B4
:1021E0004FEA931303FB02F3FB6114E04FF4105327
:1021F000C0F2F403BA68B3FBF2F24FF46053C4F2D6
:1022000002035B68194647F6C0730B404FEA93130D
:1022100003FB02F3FB614FF46053C4F202035B68FB
:1022200003F440334FEA134303F101034FEA43033E
:102230003B61FA693B69B2FBF3F27B681A6006E026
:102240007A684FF41053C0F2F403136000BF4FF4E8
:102250006053C4F202039B6803F0F003BB61BB69E7
:102260004FEA1313BB6140F20003C2F20003BA69E4
:102270009B181B78DBB27B617B681A687B6922FA4A
:1022800003F27B685A604FF46053C4F202039B6808
:1022900003F4E053BB61BB694FEA9323BB6140F297
:1022A0000003C2F20003BA699B181B78DBB27B61A2
:1022B0007B685A687B6922FA03F27B689A604FF464
:1022C0006053C4F202039B6803F46043BB61BB69C3
:1022D0004FEA5333BB6140F20003C2F20003BA6914
:1022E0009B181B78DBB27B617B685A687B6922FA9A
:1022F00003F27B68DA6007F12407BD4680BC7047B3
:1023000080B582B000AF78600B46FB707A684FF4FE
:102310006843C8F20B131340002B02D17B68002BDB
:1023200007D146F2B010C0F6000040F2B751FFF7F7
:102330009BFCFB78002B0AD0FB78012B07D046F2E0
:10234000B010C0F6000040F2B951FFF78DFCFB78E9
:10235000002B0DD04FF46053C4F202034FF46052CF
:10236000C4F20202126B11467A680A431A630EE045
:102370004FF46053C4F202034FF46052C4F20202FD
:10238000126B11467A686FEA02020A401A6307F17B
:102390000807BD4680BD00BF80B586B000AF0346CC
:1023A000FB714FF00003FB604FF000037B614FF0C7
:1023B0000003FB74FB79212B2ED0FB79312B2BD022
:1023C000FB79392B28D0FB79412B25D0FB79612B68
:1023D00022D0FB79792B1FD0FB797A2B1CD0FB798B
:1023E0007B2B19D0FB797C2B16D0FB797D2B13D05E
:1023F000FB797E2B10D0FB797F2B0DD0FB793B2B0B
:102400000AD0FB793D2B07D046F2B010C0F6000091
:1024100040F63301FFF728FCFB794FEA5313DBB298
:10242000FB60FB68012B06D14FF46053C4F202033A
:102430001B687B610FE0FB68022B06D14FF46053F1
:10244000C4F202031B6F7B6105E04FF46053C4F2DA
:1024500002035B6F7B61FB7903F01F03FB60FB688A
:102460007A6922FA03F303F00103DBB2002B03D0F5
:102470004FF00103FB7402E04FF00003FB74FB7CA0
:10248000184607F11807BD4680BD00BF80B485B06F
:1024900000AF46F20023C0F60003FB6046F268334B
:1024A000C0F60003BB6046F20123C0F60003FB60E8
:1024B00046F20223C0F60003FB6046F20423C0F696
:1024C0000003BB6046F20823C0F60003FB6046F23F
:1024D0000C23C0F600037B6046F20923C0F600031C
:1024E000FB6046F23423C0F60003FB6046F235235E
:1024F000C0F60003FB6046F23623C0F60003FB6023
:1025000046F23823C0F600037B6046F23A23C0F659
:1025100000037B6046F23E23C0F60003FB6046F2F8
:102520004023C0F600037B6046F26023C0F6000340
:10253000FB6046F26223C0F600037B6046F2642330
:10254000C0F60003FB6046F26623C0F600037B6022
:1025500046F26823C0F600037B6046F26A23C0F6A9
:1025600000037B6046F26C23C0F600037B6046F2FA
:102570009823C0F60003FB6046F29923C0F60003DF
:10258000FB6046F29A23C0F60003FB6046F29C23F0
:10259000C0F600037B6046F29E23C0F60003FB609A
:1025A00046F29F23C0F60003FB6046F2A023C0F66C
:1025B00000037B6046F2A223C0F600037B6046F274
:1025C000A423C0F600037B6046F2A623C0F60003F6
:1025D0007B6046F2A823C0F600037B6046F2AA2384
:1025E000C0F600037B6046F2AC23C0F600037B60BC
:1025F00046F2DC23C0F60003FB6046F2DD23C0F6A2
:102600000003FB6046F2DE23C0F60003FB6046F2E7
:10261000DF23C0F60003FB6046F2E023C0F60003B0
:102620007B6046F2E223C0F600037B6046F2E423BF
:10263000C0F600037B6046F20C33C0F60003FB607B
:1026400046F20D33C0F60003FB6046F20E33C0F6CF
:102650000003FB6046F20F33C0F600037B6046F2D6
:102660001033C0F600037B6046F21233C0F600035D
:102670007B6046F21433C0F60003BB6046F21833A9
:10268000C0F600037B6046F21933C0F60003FB601E
:1026900046F21A33C0F60003FB6046F21B33C0F665
:1026A0000003FB6046F21C33C0F60003FB6046F2F9
:1026B0001D33C0F60003FB6046F21E33C0F6000374
:1026C000FB6046F21F33C0F60003FB6046F2203386
:1026D000C0F600037B6046F22233C0F60003FB60C5
:1026E00046F22333C0F60003FB6046F22433C0F603
:1026F00000037B6046F22633C0F600037B6046F29F
:102700002833C0F60003FB6046F22933C0F600030D
:10271000FB6046F22C33C0F600037B6046F2603368
:10272000C0F60003FB6046F26133C0F60003FB60B5
:1027300046F26233C0F600037B6046F26433C0F6B3
:1027400000037B6046F26633C0F600037B6007F14E
:102750001407BD4680BC704780B483B000AF78607A
:1027600046F29453C2F200034FF000021A6046F69C
:102770002003C2F200034FF000021A807B684FF082
:1027800000021A8007F10C07BD4680BC704700BFED
:1027900080B483B000AF4FF000037B600CE046F6DE
:1027A0002C13C2F200037A684FF0000143F82210A4
:1027B0007B6803F101037B607B68012BEFD907F194
:1027C0000C07BD4680BC704780B582B000AF4FF0AB
:1027D0000003FB7046F62C13C2F200037B6007E097
:1027E000FB7803F12003FB707B6803F104037B603B
:1027F0007B681B68002BF3D07B681B681846FDF7CD
:10280000D2FC0346DAB2FB78D318FB70FB7818468B
:1028100007F10807BD4680BD80B487B000AF03460E
:10282000FB71FB794FEA5313FB75FB7903F01F0330
:102830003B614FF00103FB603B69C3F11F03FA6882
:1028400002FA03F3FB60FA7DF97D46F62C13C2F21F
:10285000000353F82110FB68194346F62C13C2F20B
:10286000000343F8221007F11C07BD4680BC7047E7
:1028700080B487B000AF0346FB71FB794FEA531376
:10288000FB75FB7903F01F033B614FF00103FB6015
:102890003B69C3F11F03FA6802FA03F3FB60FA7D98
:1028A000F97D46F62C13C2F2000353F82110FB68A1
:1028B0006FEA0303194046F62C13C2F2000343F8F3
:1028C000221007F11C07BD4680BC704780B584B05C
:1028D00000AF7860FEF77EFA46F28A63C2F2000328
:1028E0004FF000021A7046F28D23C2F200034FF03F
:1028F00000021A7046F27C23C2F200034FF000027D
:102900001A7046F26463C2F200034FF000021A60CC
:1029100046F27063C2F200034FF000021A6046F202
:102920009C53C2F200034FF000021A7046F290531B
:10293000C2F200034FF000021A7046F26C63C2F25A
:1029400000034FF000021A7046F27C43C0F6000309
:102950001B68002B1ED046F27843C0F600031B68AC
:10296000FB60FB68002B15D046F27C43C0F60003E9
:102970001B68BB600BE0BB6803F1FF33BB60FB6807
:102980004FF000021A60FB6803F10403FB60BB68B0
:10299000002BF0D146F29853C2F200034FF0000230
:1029A0001A6046F27C63C2F200034FF000021A6024
:1029B00046F28023C2F200034FF000021A6046F68E
:1029C0002803C2F200034FF000021A6046F64403E7
:1029D000C2F200034FF000021A6046F63403C2F25E
:1029E00000034FF000021A6046F28063C2F2000357
:1029F0004FF000021A6046F28C23C2F200034FF03F
:102A000000021A70FFF7C4FE00F0AAFD7868FEF716
:102A1000F1FB7B681B88002B4AD1786801F000FB32
:102A20007B681B88002B45D17868FEF789FF7B689F
:102A30001B88002B40D1786802F0BEFF7B681B88A2
:102A4000002B3BD1786801F0E5FF7B681B88002BE9
:102A500036D17868FFF780FE7B681B88002B31D168
:102A6000786802F06FFC7B681B88002B2CD178689B
:102A700000F07AFA7B681B88002B27D17868FEF774
:102A8000F3FB7B681B88002B22D1786801F03EFAAB
:102A90007B681B88002B1DD1786803F095F87B6854
:102AA0001B88002B18D1FFF7F1FC01F0ADFF14E0FB
:102AB00000BF12E000BF10E000BF0EE000BF0CE05E
:102AC00000BF0AE000BF08E000BF06E000BF04E06E
:102AD00000BF02E000BF00E000BF07F11007BD46E5
:102AE00080BD00BF80B400AF46F28D23C2F2000368
:102AF0001B78012B14D146F28A63C2F200031B78C3
:102B0000F92B0FD846F28A63C2F200031B7803F157
:102B10000103DAB246F28A63C2F200031A7002E0DD
:102B200000BF00E000BFBD4680BC704780B582B0EA
:102B300000AF4FF000037B6046F28D23C2F200032A
:102B40001B78012B7ED1FDF723FB03467B6046F209
:102B50008A63C2F200031B78002B03D17868FDF76B
:102B60001BFB70E046F28A63C2F200031B7803F19C
:102B7000FF33DAB246F28A63C2F200031A7046F2F9
:102B80008A63C2F200031B78002B03D07868FDF73C
:102B900003FB58E046F27C23C2F200031B78002BB3
:102BA00003D07868FDF7F8FA4DE0FFF70DFE034615
:102BB0001A4646F29053C2F200031A7046F290533E
:102BC000C2F200031B78194646F29022C2F20002BC
:102BD0000B464FEA43035B184FEA8303D3181A6886
:102BE00046F27063C2F200031A6046F27063C2F2EA
:102BF00000031A6846F26463C2F200031B689A423B
:102C000003D17868FDF7C8FA1DE046F27063C2F29E
:102C100000031B68D3F8902002F10102C3F8902052
:102C200046F28463C2F200031B6803F1010246F21C
:102C30008463C2F200031A60FDF7A9FC7868FDF70F
:102C4000ABFA00E000BF07F10807BD4680BD00BF3A
:102C500080B582B000AF4FF000037B6046F28A631C
:102C6000C2F200031B78002B57D146F27C23C2F23C
:102C700000031B78002B52D1FDF78AFA03467B60D4
:102C8000FFF7A2FD03461A4646F29053C2F2000334
:102C90001A7046F29053C2F200031B78194646F2AE
:102CA0009022C2F200020B464FEA43035B184FEA40
:102CB0008303D3181A6846F27063C2F200031A60E5
:102CC00046F27063C2F200031A6846F26463C2F20D
:102CD00000031B689A4203D17868FDF75DFA1FE094
:102CE00046F27063C2F200031B68D3F8902002F131
:102CF0000102C3F8902046F28463C2F200031B680D
:102D000003F1010246F28463C2F200031A60FDF788
:102D10003AFC7868FDF740FA02E000BF00E000BF2F
:102D200007F10807BD4680BD80B584B000AF78606C
:102D30004FF00003FB6046F28A63C2F200031B7887
:102D4000002B04D07B6846F662521A802FE046F2D0
:102D50008D23C2F200031B78012B04D07B6845F65B
:102D600089621A8023E046F27C23C2F200031B78BA
:102D7000F92B04D97B6845F209221A8017E0FDF788
:102D800007FA0346FB6046F27C23C2F200031B787D
:102D900003F10103DAB246F27C23C2F200031A7097
:102DA000F868FDF7F9F97B684FF000021A8007F127
:102DB0001007BD4680BD00BF80B584B000AF78600D
:102DC0004FF00003FB6046F28A63C2F200031B78F7
:102DD000002B04D07B6846F665521A8040E046F22C
:102DE0008D23C2F200031B78012B04D07B6845F6CB
:102DF00089621A8034E046F27C23C2F200031B7819
:102E0000002B04D17B6846F664521A8028E0FDF757
:102E1000BFF90346FB6046F27C23C2F200031B7835
:102E200003F1FF33DAB246F27C23C2F200031A70D8
:102E300046F27C23C2F200031B78002B07D0F8680F
:102E4000FDF7AAF97B6846F663521A8008E0F86835
:102E5000FDF7A2F9FFF7FCFE7B684FF000021A8035
:102E600007F11007BD4680BD80B582B000AF786025
:102E700046F28D23C2F200031B78002B41D1FFF7ED
:102E8000A3FC03461A4646F29053C2F200031A709E
:102E900046F29053C2F200031A7846F29C53C2F2F3
:102EA00000031A7046F29053C2F200031B781946D1
:102EB00046F29022C2F200020B464FEA43035B182F
:102EC0004FEA8303D3181A6846F27063C2F2000314
:102ED0001A6046F27063C2F200031A6846F2646335
:102EE000C2F200031A6046F28D23C2F200034FF0D3
:102EF00001021A70FDF738FB7B6843F699221A80AD
:102F000003E07B6845F68A621A8007F10807BD4630
:102F100080BD00BF80B584B000AF78604FF0000383
:102F2000FB60FDF735F90346FB6046F63C03C2F251
:102F300000031B6803F1010246F63C03C2F20003E2
:102F40001A6046F28823C2F200031B6803F10102F3
:102F500046F28823C2F200031A60F868FDF71CF9F4
:102F6000FDF728FFDDE700BF80B58CB00AAF7860C1
:102F700046F63C03C2F200034FF000021A6046F22C
:102F80004C43C0F60003196846F25043C0F60003F4
:102F90001A6846F25443C0F600031B684FF03F0026
:102FA00000900191029203934FF0000304934FF0BD
:102FB000000305934FF0000306934FF00B030793B4
:102FC0007B68089346F25C70C2F2000046F26C31F6
:102FD000C0F6000142F61572C0F600024FF0000381
:102FE00001F034FD07F10807BD4680BD80B586B00D
:102FF00000AFF860B9603B601346FB7146F2646352
:10300000C2F200031B68FA7983F8342046F2646345
:10301000C2F200031B684FF0000283F8352046F22D
:103020006463C2F200031B681846396800F0DCFBD9
:10303000BB68002B16D0BB6803F108037B61FB68FB
:10304000BA68DA6046F26463C2F200031B6818468D
:10305000F9684FF0010200F023F87869F96800F090
:10306000C9F80FE046F26463C2F200031B684FF038
:103070000002DA8746F26463C2F200031B684FF075
:1030800000021A6346F26463C2F200031B68B86868
:10309000194600F043F807F11807BD4680BD00BF90
:1030A00080B487B000AFF860B9601346FB80FB685E
:1030B000FA88DA87FB68BA681A634FF00003FB826C
:1030C00022E0BB684FF000025A60BB684FF000027C
:1030D0001A60BB684FF000021A61BB684FF0000233
:1030E0005A61BB684FF000021A83BB684FF00002C0
:1030F000DA61BB68FA689A60BB6803F12003BB60C1
:10310000FB8A03F10103FB82FA8AFB889A42D8D337
:1031100007F11C07BD4680BC704700BF80B487B074
:1031200000AF786039607B68002B13D07B685A68E9
:103130003B68C3F8BC207B6803F108037B617B69B3
:103140001B683B613B699B68FB60FB681A6A7B6894
:10315000DA611FE03B6893F83430022B02D0072B72
:1031600008D00FE03A6846F28033C0F60003C2F898
:10317000BC300FE03A6846F28833C0F60003C2F86C
:10318000BC3007E03A6846F29433C0F60003C2F858
:10319000BC3000BF07F11C07BD4680BC704700BFB4
:1031A00080B487B000AF786039603A6846F29433F3
:1031B000C0F60003C2F8BC307B6803F108037B61F2
:1031C0007B691B683B613B69002B07D03B699B68AF
:1031D000FB60FB681A6A7B68DA6105E07A6846F290
:1031E0009433C0F60003D36107F11C07BD4680BCD1
:1031F000704700BF80B489B000AF786039603B6829
:103200009B68BB61BB6993F83730FB757B681B8992
:10321000002B12D17B684FF001021A813B684FF0FE
:1032200000025A603B684FF000021A607B683A68FF
:103230001A607B683A685A6050E07B681B8903F12A
:1032400001039AB27B681A817B681B68FB610BE003
:10325000FB699B683B613B6993F83730FA7D9A4282
:1032600006D3FB695B68FB61FB69002BF0D100E0D2
:1032700000BFFB69002B10D13B684FF000025A6081
:103280007B685B68FB603B68FA681A60FB683A68B9
:103290005A607B683A685A6020E0FB691B68002B23
:1032A0000DD1FB693A681A603B684FF000021A6062
:1032B0003B68FA695A607B683A681A600EE0FB69FD
:1032C0001B68FB603B68FA681A603B68FA695A60E1
:1032D000FB683A685A60FB693A681A6007F124078C
:1032E000BD4680BC704700BF80B586B000AF786037
:1032F0007B681B6B3B617B68DB8FFB8212E03B6969
:10330000DB68FB60FB6803F10803BB60B8683969E0
:1033100000F018F83B6903F120033B61FB8A03F1DD
:10332000FF33FB82FB8A002BE9D17B684FF0000260
:10333000DA877B684FF000021A6307F11807BD4671
:1033400080BD00BF80B485B000AF786039607B6815
:103350001B89012B08D17B684FF000021A607B6843
:103360004FF000025A6029E03B681B68002B0AD12D
:103370003B685B68FB60FB684FF000021A607B688B
:10338000FA681A601AE03B685B68002B0AD13B6858
:103390001B68BB60BB684FF000025A607B68BA686C
:1033A0005A600BE03B681B68BB603B685B68FB6076
:1033B000BB68FA685A60FB68BA681A607B681B8948
:1033C00003F1FF339AB27B681A813B684FF0000229
:1033D0005A603B684FF000021A6007F11407BD46BF
:1033E00080BC704780B586B002AFF860B9607A6083
:1033F0007B80BB6893F83630072B7AD84FF00102F8
:1034000002FA03F303F03302002A74D103F0C0027E
:10341000002A38D103F00C03002B69D0BB6893F865
:103420003430032B08D17B88BA690092F868B968F8
:103430007A6800F065F809E0BB687A68DA65BB680D
:103440007A88A3F86020BB68BA691A64FB68002B0D
:1034500006D0B868FFF748FFF868B968FFF7A0FE24
:10346000B86800F0EDF9BB684FF0000283F8362031
:10347000BB684FF0000283F83520BB684FF00002B4
:1034800083F8342038E0BB6893F83430032B08D13C
:103490007B88BA690092F868B9687A6800F030F8F9
:1034A00009E0BB687A68DA65BB687A88A3F86020AF
:1034B000BB68BA691A64B868FEF79AF8FB68002B13
:1034C00006D0B868FFF710FFF868B968FFF768FE24
:1034D000BB684FF0040283F83620BB684FF000024F
:1034E00083F83520BB684FF0000283F8342003E0F6
:1034F00000BF00BF00E000BF07F11007BD4680BD60
:1035000080B487B000AFF860B9607A607B80BB6838
:103510001B6B3B61BB68DB8FFB8219E03B69DA68A0
:10352000FB689A420CD13B69FA681A613B697A6878
:103530005A613B697A881A833B693A6ADA610AE020
:103540003B6903F120033B61FB8A03F1FF33FB82FC
:10355000FB8A002BE2D107F11C07BD4680BC7047F7
:1035600080B483B000AF4FF00003FB711DE0FA7927
:1035700013464FEA43039B184FEA83031A4646F269
:103580009023C2F20003D3183B603B684FF0000267
:103590001A813B684FF000021A603B684FF000024E
:1035A0005A60FB7903F10103FB71FB793F2BDED9F4
:1035B00007F10C07BD4680BC704700BF80B582B0E4
:1035C00000AF78607B6893F837301846FFF724F92E
:1035D0007B6893F8372046F29C53C2F200031B78B5
:1035E0009A4203D1786800F053F802E0786800F05E
:1035F00005F807F10807BD4680BD00BF80B485B05F
:1036000000AF78607B6893F837301A4613464FEA6C
:1036100043039B184FEA83031A4646F29023C2F2F3
:103620000003D318FB60FB681B89002B12D1FB68D9
:103630004FF001021A817B684FF00002DA607B686C
:103640004FF000021A61FB687A681A60FB687A68BA
:103650005A6017E0FB681B8903F101039AB2FB680B
:103660001A81FB681A687B68DA607B684FF0000299
:103670001A61FB681B68BB60BB687A681A61FB68EB
:103680007A681A6007F11407BD4680BC704700BF16
:1036900080B485B000AF78607B6893F837301A4605
:1036A00013464FEA43039B184FEA83031A4646F238
:1036B0009023C2F20003D318FB60FB681B89002B28
:1036C00012D1FB684FF001021A817B684FF00002B3
:1036D000DA607B684FF000021A61FB687A681A6052
:1036E000FB687A685A6016E0FB681B8903F10103E6
:1036F0009AB2FB681A817B684FF00002DA60FB68BF
:103700005B68BB607B68BA681A61BB687A68DA601C
:10371000FB687A685A6007F11407BD4680BC7047A1
:1037200080B586B000AF78607B6893F837301A4672
:1037300013464FEA43039B184FEA83031A4646F2A7
:103740009023C2F20003D3187B617B681B693B6145
:103750007B68DB68FB603B69002B24D1FB68002B96
:1037600012D17B694FF000021A817B694FF0000291
:103770001A607B694FF000025A607B6893F837301B
:103780001846FFF775F822E07B691B8903F1FF33C8
:103790009AB27B691A81FB684FF000021A617B695B
:1037A000FA681A6013E07B691B8903F1FF339AB250
:1037B0007B691A813B69FA68DA60FB68002B03D1E8
:1037C0007B693A695A6002E0FB683A691A617B6872
:1037D0004FF000021A617B684FF00002DA6007F1D7
:1037E0001807BD4680BD00BF80B584B000AF7860CB
:1037F00039603B68002B16D007F10E0378683968F2
:103800004FF00202FDF7D6FDFB89002B05D17B6846
:103810004FF0030283F836200AE07B684FF0020283
:1038200083F8362004E07B684FF0020283F83620EC
:103830007868FFF775FF07F11007BD4680BD00BF30
:1038400080B582B000AF78607868FDF7D1FE7B6804
:1038500093F8363003F00403002B02D17868FFF7A9
:10386000ADFE07F10807BD4680BD00BF80B586B03C
:1038700000AF78604FF00003FB60FCF789FC034663
:10388000FB6046F26A63C2F200034FF000021A8046
:1038900046F28423C2F200034FF000021A6046F69B
:1038A0001C13C2F200034FF000021A6046F2786364
:1038B000C2F200034FF000021A6046F25073C2F2E7
:1038C00000034FF000021A81F868FCF765FCFCF772
:1038D0005FFC0346FB6046F27463C2F200031B68A0
:1038E0007B61F868FCF758FC3AE0FCF751FC0346B2
:1038F000FB607B694FF000029A677B694FF0000222
:10390000C3F8A8207B694FF00002C3F890207B69C0
:103910004FF00002A3F88C207B694FF00002A3F85F
:103920008E207B694FF00002C3F89C207B694FF02A
:103930000002C3F8A02002F037F902467B69C3F801
:1039400098207B6903F16403BB60BB684FF0000201
:103950009A817B69D3F8B8307B61F868FCF71CFC6E
:103960007B69002BC1D1FCF713FC0346FB6046F6D4
:103970001C03C2F200031B683B61F868FCF70CFCF7
:1039800011E0FCF705FC0346FB603B6903F12003F3
:10399000BB60BB684FF000029A813B699B693B6149
:1039A000F868FCF7F9FB3B69002BEAD1FDF76CFEE8
:1039B00002F0AEFA7B684FF000021A8007F1180798
:1039C000BD4680BD80B586B000AF78604FF0000383
:1039D0003B6107F10E0346F29060C2F20000194607
:1039E00001F010FCFB89002B03D0FA897B681A8058
:1039F00085E007F10E034FF002004FF000011A4678
:103A0000FCF7DCFBFB89002B03D0FA897B681A806A
:103A100075E0FCF7BDFB03463B6146F28823C2F22A
:103A200000034FF000021A603869FCF7B5FB4FF055
:103A300000037B6146F2AC43C0F600031A6846F20D
:103A40009443C0F600031B689A420CD946F2AC437B
:103A5000C0F600031A6846F29443C0F600031B68E0
:103A6000B2FBF3F37B617B69002B0DD146F2AC43D3
:103A7000C0F600031A684CF6CD43CCF6CC43A3FB4A
:103A800002134FEAD3037B6107F10E0378694FF00D
:103A900000011A46FCF792FB07F10E0346F2906014
:103AA000C2F20000194601F08FF9FB89002B03D008
:103AB000FA897B681A8022E0FCF76AFB03463B61C7
:103AC00046F28423C2F200034FF000021A6046F26D
:103AD0008823C2F200031A6846F62C03C2F20003E0
:103AE0001A6046F29153C2F200034FF001021A70BD
:103AF0003869FCF751FB7B684FF000021A8007F130
:103B00001807BD4680BD00BF80B590B000AF78609B
:103B10004FF00003BB610EE046F29443C0F6000391
:103B20001B684FEA430207F10A0310464FF00001F9
:103B30001A46FCF743FB46F29153C2F200031B788E
:103B4000012BE9D107F10A031846FFF78FFE4FF06A
:103B50000003FB6146F2AC43C0F600031A6846F26C
:103B60009443C0F600031B689A420CD946F2AC435A
:103B7000C0F600031A6846F29443C0F600031B68BF
:103B8000B2FBF3F3FB61FB69002B0DD146F2AC43B2
:103B9000C0F600031A684CF6CD43CCF6CC43A3FB29
:103BA00002134FEAD303FB6101F0FEFF03467B6182
:103BB000FCF7EEFA0346BB6146F28823C2F200032B
:103BC0001A6846F64003C2F200031A6046F28823E0
:103BD000C2F200034FF000021A60B869FCF7DCFA89
:103BE00046F62C03C2F200031A6846F64003C2F2FE
:103BF00000031B689A4240F2848046F62C03C2F20E
:103C000000031A6841F67F23C0F206039A4206D8E1
:103C100042F210737B624FF001033B623BE046F6D9
:103C20002C03C2F200031A6840F6FF03C0F23D0302
:103C30009A4206D84FF47A737B624FF00A033B62D4
:103C400029E046F62C03C2F200031A6845F6FF137A
:103C5000C0F262239A4206D84FF064037B624FF0B1
:103C600064033B6217E046F62C03C2F200031A68B5
:103C700048F2FF33C1F2D7739A4206D84FF00A03D5
:103C80007B624FF47A733B6205E04FF001037B6285
:103C900042F210733B6246F62C03C2F200031A682C
:103CA0003B6AB2FBF3F33B6146F64003C2F200030A
:103CB0001B687A6A02FB03F23B69B2FBF3F39BB227
:103CC000C3F51C5303F110039AB246F28863C2F2A3
:103CD00000031A8046F26A63C2F200031A8846F2B1
:103CE0008863C2F200031B889A4211D246F28863AD
:103CF000C2F200031A8846F26A63C2F200031A8015
:103D000006E046F28863C2F2000342F210721A80A3
:103D1000FDF784F84FF00003BB63FCF739FA034664
:103D2000BB6146F27463C2F200031B68BB62B869F0
:103D3000FCF732FA22E0FCF72BFA0346BB61BB6AC0
:103D4000D3F89C20BB6AC3F8A020BB6A4FF00002E6
:103D5000C3F89C20B869FCF71FFABB6AD3F8A030FF
:103D6000BA6BD318BB63FCF713FA0346BB61BB6A9B
:103D7000D3F8B830BB62B869FCF70EFABB6A002B07
:103D8000D9D1BB6B002B43D0BA6B41F67F23C0F275
:103D900006039A4206D842F210733B634FF00103C8
:103DA0007B632FE0BA6B40F6FF03C0F23D039A42FB
:103DB00006D84FF47A733B634FF00A037B6321E02C
:103DC000BA6B45F6FF13C0F262239A4206D84FF051
:103DD00064033B634FF064037B6313E0BA6B48F208
:103DE000FF33C1F2D7739A4206D84FF00A033B6300
:103DF0004FF47A737B6305E04FF001033B6342F2BB
:103E000010737B63BA6B7B6BB2FBF3F3FB6205E071
:103E10004FF000033B634FF00103FB62FCF7B8F97E
:103E20000346BB6146F27463C2F200031B68BB62C7
:103E3000B869FCF7B1F935E0BB6AD3F8A0303A6B4A
:103E400002FB03F2FB6AB2FBF3F3FB87FA8F42F249
:103E500010739A4202D942F21073FB87BB6AFA8F41
:103E6000A3F88C20BB6AB3F88E30FA8F9A4203D93C
:103E7000BB6AFA8FA3F88E20BB6A03F1B001BB6A5C
:103E800003F1AC0207F10A03B86A01F037F9FCF755
:103E90007FF90346BB61BB6AD3F8B830BB62B8692F
:103EA000FCF77AF9BB6A002BC6D146F65003C2F282
:103EB00000031B78012B0BD146F65003C2F200031E
:103EC0004FF000021A7007F10A031846FFF7CEFC04
:103ED00001F06AFE02467B69D31AFB6046F2842336
:103EE000C2F200031A68FB689A4205D246F28423A4
:103EF000C2F20003FA681A6007F10A03F8694FF08A
:103F000000011A46FCF75AF94EE600BF80B58CB0A6
:103F10000AAF786046F28823C2F200034FF0000235
:103F20001A6046F64003C2F200034FF000021A6026
:103F300046F62C03C2F200034FF000021A6046F26C
:103F40009153C2F200034FF000021A7046F650037C
:103F5000C2F200034FF000021A7046F29843C0F616
:103F600000031B68002B04D17B6846F62B621A8085
:103F700052E046F2A043C0F600031A6846F2A84396
:103F8000C0F600031B689A4204D27B6846F62C6296
:103F90001A8041E046F29043C0F600031B783E2BA6
:103FA00004D97B6846F62A621A8035E046F29043CF
:103FB000C0F60003187846F29843C0F6000319686B
:103FC00046F29C43C0F600031A6846F2A043C0F6CE
:103FD00000031B6800900191029203934FF00003CD
:103FE00004934FF0000305934FF0000306934FF046
:103FF000030307937B68089346F65800C2F200005B
:1040000046F29831C0F6000143F60932C0F60002CC
:104010004FF0000300F01AFD07F10807BD4680BD10
:1040200080B483B000AF786046F62403C2F2000388
:104030004FF000021A6046F65203C2F200034FF03E
:1040400000021A807B684FF000021A8007F10C070B
:10405000BD4680BC704700BF80B483B000AF7860BD
:104060007B68922B00F2878101A252F823F000BFF7
:10407000BD420008BD420008BD420008BD42000824
:10408000BD420008BD420008BD420008BD42000814
:10409000BD420008774300087743000877430008D3
:1040A000BD420008774300087743000877430008C3
:1040B0007743000877430008BD42000877430008B3
:1040C000BD420008BD420008BD4200087743000819
:1040D00077430008BD420008BD420008BD42000809
:1040E000BD420008BD420008BD42000877430008F9
:1040F000DF42000877430008774300087743000851
:10410000DF420008DF420008DF420008DF4200080B
:104110007743000877430008774300087743000897
:104120007743000877430008774300087743000887
:104130007743000877430008774300087743000877
:104140007743000877430008774300087743000867
:104150007743000877430008774300087743000857
:104160007743000877430008774300087743000847
:1041700005430008774300087743000877430008A9
:104180007743000877430008774300087743000827
:104190007743000877430008774300087743000817
:1041A0007743000877430008774300087743000807
:1041B00077430008774300087743000877430008F7
:1041C00077430008774300087743000877430008E7
:1041D00077430008774300087743000877430008D7
:1041E00077430008774300087743000877430008C7
:1041F0002B4300082B4300082B4300082B430008E7
:104200002B4300082B4300082B4300082B430008D6
:104210002B43000877430008774300082B4300082E
:1042200077430008774300082B4300082B4300081E
:10423000774300082B4300082B4300082B4300085A
:104240002B4300082B4300082B4300082B43000896
:10425000774300082B4300082B43000877430008EE
:104260002B4300082B4300087743000877430008DE
:104270005143000851430008774300087743000882
:104280005143000851430008774300087743000872
:1042900051430008514300085143000851430008AE
:1042A0005143000877430008514300087743000852
:1042B00051430008514300085143000843F63003BE
:1042C000C4F2020343F63002C4F2020211687A68B3
:1042D0004FF0010000FA02F20A431A604BE043F685
:1042E0003403C4F2020343F63402C4F2020211683A
:1042F0007A68A2F120024FF0010000FA02F20A43AC
:104300001A6038E043F63803C4F2020343F6380279
:10431000C4F2020211687A68A2F140024FF0010073
:1043200000FA02F20A431A6025E04FF46153C4F226
:1043300002034FF46152C4F2020211687A68A2F1DA
:1043400060024FF0010000FA02F20A431A6012E024
:1043500043F64403C4F2020343F64402C4F20202E9
:1043600011687A68A2F180024FF0010000FA02F2AF
:104370000A431A6000BF07F10C07BD4680BC7047B6
:1043800080B586B000AF786039604FF000037B6184
:104390004FF000033B614FF00003FB607A684FF081
:1043A0000003C4F202039A424DD07A684FF480634E
:1043B000C4F202039A4246D07A684FF40063C4F212
:1043C00002039A423FD07A684FF44063C4F202037A
:1043D0009A4238D07A684FF48053C4F202039A426A
:1043E00031D07A684FF4A053C4F202039A422AD023
:1043F0007A684FF4C053C4F202039A4223D07A6819
:104400004FF4E053C4F202039A421CD07A684FF48E
:104410000053C4F202039A4215D07A684FF4105345
:10442000C4F202039A420ED07A684FF42053C4F2C9
:1044300002039A4207D046F2AC30C0F600004FF0BB
:10444000CF01FDF711FC3B681B68002B07D146F23A
:10445000AC30C0F600004FF0D001FDF705FC3B6822
:104460001B79002B13D03B681B79012B0FD03B68C5
:104470001B79022B0BD03B681B79032B07D046F22C
:10448000AC30C0F600004FF0D101FDF7EDFB3B680A
:10449000DB79002B0FD03B68DB79012B0BD03B681D
:1044A000DB79022B07D046F2AC30C0F600004FF0AB
:1044B000D201FDF7D9FB4FF000037B61B7E07B69C8
:1044C0004FF0010202FA03F33B613B681A683B6953
:1044D0001340FB60FA683B699A4240F0A4807B6815
:1044E0001B681A467B694FEA43034FF0030101FA48
:1044F00003F36FEA03031A407B681A607B681B684A
:104500001A463B681B7919467B694FEA430301FA57
:1045100003F31A437B681A603B681B79012B03D0B5
:104520003B681B79022B60D13B685B79002B13D071
:104530003B685B79012B0FD03B685B79022B0BD07A
:104540003B685B79032B07D046F2AC30C0F6000025
:104550004FF0E401FDF788FB7B689B681A467B6996
:104560004FEA43034FF0030101FA03F36FEA030339
:104570001A407B689A607B689B681A463B685B7947
:1045800019467B694FEA430301FA03F31A437B6838
:104590009A603B689B79002B0BD03B689B79012B81
:1045A00007D046F2AC30C0F600004FF0EB01FDF74B
:1045B0005BFB7B685B681A467B699BB24FF001012D
:1045C00001FA03F36FEA03031A407B685A607B68C1
:1045D0005B681A463B689B7919467B699BB201FA76
:1045E00003F39BB21A437B685A607B68DB681A4608
:1045F0007B699BB24FEA43034FF0030101FA03F3D7
:104600006FEA03031A407B68DA607B68DB681A464E
:104610003B68DB7919467B694FEA430301FA03F3F0
:104620001A437B68DA607B6903F101037B617B6974
:104630000F2B7FF644AF07F11807BD4680BD00BFC2
:1046400080B582B000AF78607B68002B34D07B6887
:10465000012B31D07B68022B2ED07B68032B2BD013
:104660007B68042B28D07B68052B25D07B68062B24
:1046700022D07B68072B1FD07B68082B1CD07B685F
:10468000092B19D07B680A2B16D07B680B2B13D013
:104690007B680C2B10D07B680D2B0DD07B680E2B0C
:1046A0000AD07B680F2B07D046F2FC30C0F6000022
:1046B0004FF0FA01FDF7D8FA4FF47053C4F2020339
:1046C0007A68D2B21A7007F10807BD4680BD00BFF4
:1046D00080B582B000AF0346FB71FB79002B0AD096
:1046E000FB79012B07D046F2FC30C0F6000040F207
:1046F0000911FDF7B9FAFB79002B0CD04FF4705378
:10470000C4F202034FF47052C4F20202126842F47F
:1047100080721A600BE04FF47053C4F202034FF43E
:104720007052C4F20202126822F480721A6007F119
:104730000807BD4680BD00BF80B500AF4FF0010047
:1047400000F002F880BD00BF80B584B000AF786093
:104750004FF00003FB60FBF71BFD0346FB6046F6D2
:104760003413C2F200037A681A60F868FBF714FD8C
:1047700007F11007BD4680BD80B500AF4FF46D4313
:10478000CEF200034FF46D42CEF20002D2F8882040
:1047900042F47002C3F888204FF46053C4F202035D
:1047A0004FF46052C4F20202126842F001021A6031
:1047B0004FF46053C4F202034FF000029A604FF4CA
:1047C0006053C4F202034FF46052C4F20202126852
:1047D00022F0847222F480321A604FF46053C4F2E3
:1047E000020343F21002C2F200425A604FF46053D7
:1047F000C4F202034FF46052C4F20202126822F4BF
:1048000080221A604FF46053C4F202034FF000029A
:10481000DA6000F009F84FF46D43CEF200034FF078
:1048200000629A6080BD00BF80B483B000AF4FF0DB
:1048300000037B604FF000033B604FF46053C4F211
:1048400002034FF46052C4F20202126842F4803252
:104850001A604FF46053C4F202031B6803F4003380
:104860003B607B6803F101037B603B68002B03D155
:104870007B68B3F5A04FECD14FF46053C4F2020350
:104880001B6803F40033002B03D04FF001033B609F
:1048900002E04FF000033B603B68012B40F0828058
:1048A0004FF46053C4F202034FF46052C4F20202A8
:1048B000126C42F080521A644FF4E043C4F20003D9
:1048C0004FF4E042C4F20002126842F440421A601F
:1048D0004FF46053C4F202034FF46052C4F2020278
:1048E00092689A604FF46053C4F202034FF460522E
:1048F000C4F20202926842F400429A604FF460539C
:10490000C4F202034FF46052C4F20202926842F40D
:10491000A0529A604FF46053C4F2020345F2084279
:10492000C0F240725A604FF46053C4F202034FF475
:104930006052C4F20202126842F080721A6000BF34
:104940004FF46053C4F202031B6803F00073002BA2
:10495000F6D04FF47053C4F2020340F205621A60BD
:104960004FF46053C4F202034FF46052C4F20202E7
:10497000926822F003029A604FF46053C4F202037B
:104980004FF46052C4F20202926842F002029A604E
:1049900000BF4FF46053C4F202039B6803F00C03A2
:1049A000082BF6D14FF46053C4F202034FF4605267
:1049B000C4F20202926822F400029A604FF460533B
:1049C000C4F202034FF48142C3F20002C3F8842010
:1049D0004FF46053C4F202034FF46052C4F2020277
:1049E000126842F080621A6000BF4FF46053C4F254
:1049F00002031B6803F00063002BF6D007F10C07DD
:104A0000BD4680BC704700BF80B400AFBD4680BCCF
:104A1000704700BF80B483B000AF786046F61C03D7
:104A2000C2F200034FF000021A6046F26863C2F25D
:104A300000034FF000021A807B684FF000021A80DA
:104A400007F10C07BD4680BC704700BF80B58CB035
:104A500002AFF860B9607A603B604FF00003BB6161
:104A600046F28A63C2F200031B78002B04D03B6D30
:104A700047F24A121A80FAE0FB68002B04D13B6D22
:104A800047F2AD121A80F2E07B68002B04D13B6D37
:104A900047F24F121A80EAE07B6B002B04D13B6D8A
:104AA00046F62F621A80E2E046F2A843C0F6000301
:104AB0001B68FA6B9A4204D23B6D46F630621A804C
:104AC000D5E0BA6BFB6B9A4204D33B6D46F631627C
:104AD0001A80CCE097F830303F2B04D93B6D46F27A
:104AE00073221A80C3E097F830303F2B0BD1FA685D
:104AF00046F25C73C2F200039A4204D03B6D46F268
:104B000073221A80B3E0F86800F03EFC3B6D4FF072
:104B100000021A80B7F84C3003F00103DBB2002B1F
:104B20001BD0B7F84C3003F00203002B15D07B6B81
:104B3000FB614FF000037B620BE0FB694FF000026A
:104B40001A60FB6903F10403FB617B6A03F1010353
:104B50007B627A6AFB6B9A42EFD3BB6B4FEA8303AB
:104B60007A6BD3187B61FB6B0093B7F84C300193E1
:104B7000786839687A6B7B69FCF7A2F90346FB61B8
:104B8000FB687A689A62FB683A68DA62FB68BA681E
:104B90001A62FB6897F8302083F83720FB68FA69BF
:104BA0001A60FB687A699A60FB687A6C5A65FB68E0
:104BB000BA6C5A60FB687A6B5A62FB68FA6B9A634C
:104BC000FB68B7F84C209A874FF0000387F8233032
:104BD00010E097F82330FA6803F11E034FEA8303CD
:104BE000D3184FF000025A6097F8233003F1010305
:104BF00087F8233097F82330002BEAD0FB6803F1C5
:104C00006402B7F8403010461946FCF77BFFF8689D
:104C1000FCF714F9FBF7BCFA0346BB61FB6893F899
:104C200037301846FDF7F8FDF868FEF731FDF868F3
:104C300000F00EFB46F28C63C2F200031B8803F106
:104C400001039AB246F28C63C2F200031A8046F264
:104C50008D23C2F200031B78012B03D0B869FBF748
:104C60009BFA04E0B869FBF797FAFDF7F1FF07F14B
:104C70002807BD4680BD00BF80B584B000AF786016
:104C800039604FF00003FB6046F28A63C2F2000312
:104C90001B78002B04D03B6847F24E121A808EE03E
:104CA0007A6846F25C73C2F200039A4204D13B6810
:104CB00047F24C121A8082E07B68002B0CD1FBF784
:104CC00067FA0346FB6046F26463C2F200031B68A6
:104CD0007B60F868FBF760FAFBF75AFA0346FB6063
:104CE0007B6893F83630072B36D801A252F823F0B0
:104CF000114D0008194D0008214D0008214D0008F4
:104D0000694D0008194D0008214D0008214D00088B
:104D10007868FEF705FD28E07868FCF769FC24E078
:104D20007868FCF765FC7B6893F83430072B0FD864
:104D30004FF0010202FA03F303F08502002A09D1C1
:104D400003F07A03002B03D07868FEF7CDFA02E077
:104D500000BF00E000BF08E0F868FBF71DFA3B6801
:104D600046F62D621A802AE000BF7B6803F16403D7
:104D70001846FCF777FE7868FCF776F8786800F05C
:104D800099FA46F28C63C2F200031B8803F1FF33E9
:104D90009AB246F28C63C2F200031A80786800F07F
:104DA000F3FA7B684FF0FF0283F83620F868FBF7D0
:104DB000F3F93B684FF000021A80FDF749FF07F155
:104DC0001007BD4680BD00BF80B584B000AF7860DD
:104DD00039604FF00003FB6046F28A63C2F20003C1
:104DE0001B78002B04D03B6847F255121A801DE057
:104DF000FBF7CEF90346FB607B68002B07D046F239
:104E00006463C2F200031B687A689A4207D1F868AB
:104E1000FBF7C2F93B6847F257121A8006E0F868C0
:104E2000FBF7BAF97868396800F0B0FB07F11007B2
:104E3000BD4680BD90B587B000AFF8607A603B603A
:104E40000B467B814FF000037B6146F28A63C2F21E
:104E500000031B78002B06D03B6846F2AE121A8086
:104E60004FF000031CE17B89002B09D0B3F5004F04
:104E700006D03B6845F625621A804FF000030FE12B
:104E800000BF7B68002B03D07B684FF000021A60E4
:104E9000FBF77EF903467B6146F26463C2F20003CE
:104EA0001B685B6C002B52D046F26463C2F20003B5
:104EB0001B685A6C02F1FF325A6446F26463C2F214
:104EC00000031B685B6C3B617B68002B07D046F2DC
:104ED0006463C2F200031B681A6C7B681A6046F2B6
:104EE0006463C2F200031C6800F05EFE024646F2F4
:104EF0006463C2F200031B681B6CD31AC4F8A430AD
:104F000046F26463C2F200031B68D3F8A82046F29D
:104F10006463C2F200031B68D3F8A4309A420DD236
:104F200046F26463C2F200031A6846F26463C2F296
:104F300000031B68D3F8A430C2F8A8307869FBF7E7
:104F40002BF93B684FF000021A803B69A8E07B898F
:104F50001BB2002B09DA7869FBF71EF93B6846F2B1
:104F6000B0121A804FF000039AE046F27C23C2F29E
:104F700000031B78002B09D07869FBF70DF93B681B
:104F800046F663521A804FF0000389E04FF00000AC
:104F90004FF000014FF00702FB68FEF727F8786931
:104FA000FBF7FAF8FDF754FEFBF7F2F803467B61D6
:104FB00046F26463C2F200031B6893F83530012B9C
:104FC00042D0032B50D0002B5AD17B68002B36D017
:104FD00046F26463C2F200031B681A6C7B681A60B5
:104FE00046F26463C2F200031C6800F0DDFD024675
:104FF00046F26463C2F200031B681B6CD31AC4F848
:10500000A43046F26463C2F200031B68D3F8A82000
:1050100046F26463C2F200031B68D3F8A4309A42DC
:105020000DD246F26463C2F200031A6846F264636A
:10503000C2F200031B68D3F8A430C2F8A8303B6862
:105040004FF000021A8020E07B68002B07D046F268
:105050006463C2F200031B681A6C7B681A603B68C9
:1050600046F2A9121A8010E07B68002B03D07B68FF
:105070004FF000021A603B6847F2D9221A8004E020
:105080003B6846F62E621A8000BF46F26463C2F2A5
:1050900000031B685B6C3B617869FBF77DF83B693B
:1050A000184607F11C07BD4690BD00BF80B586B00D
:1050B00000AFF8600B467A607B817B89002B09D0BA
:1050C000B3F5004F06D07B6845F625621A804FF095
:1050D00000030EE000BF00F067FD03467B617B89A3
:1050E000F86819467A697B6800F004FB03463B6167
:1050F0003B69184607F11807BD4680BD80B588B0EA
:1051000000AFF860B9607A603B604FF000037B61EC
:1051100046F28A63C2F200031B78002B04D03B687E
:1051200047F259121A8069E0BB68002B04D13B6832
:1051300046F2D5221A8061E07B68002B04D13B68DF
:1051400046F2D5221A8059E0FBF722F803467B612C
:10515000FB68002B05D146F26463C2F200031B68B2
:10516000FB60FB681B68002B0FD17869FBF714F814
:10517000BB684FF000021A607B684FF000021A60B3
:105180003B6847F252121A8038E0FB689B8F03F0AD
:105190000103002B0FD17869FAF7FEFFBB684FF0CF
:1051A00000021A607B684FF000021A603B6847F209
:1051B00054121A8022E07869FAF7EEFF4FF00003EC
:1051C000FB61FB685B6ABB6107E0BB6903F1040339
:1051D000BB61FB6903F10103FB61BB691B68002B29
:1051E000F3D0BB68FA691A60FB689A6BFB69D21A44
:1051F0007B681A603B684FF000021A8007F12007B5
:10520000BD4680BD80B582B000AF7860396046F29F
:105210008A63C2F200031B78002B04D03B6847F27C
:105220005D121A800FE07A6846F25C73C2F20003E6
:105230009A4204D13B6847F25B121A8003E0786817
:10524000396800F0F1FA07F10807BD4680BD00BFDC
:1052500080B483B000AF78607B684FF00002C3F881
:10526000B42046F27463C2F200031B68002B05D120
:105270007B684FF00002C3F8B8200FE046F2746379
:10528000C2F200031A687B68C3F8B82046F2746360
:10529000C2F200031B687A68C3F8B42046F2746354
:1052A000C2F200037A681A6007F10C07BD4680BCA1
:1052B000704700BF80B485B000AF78607B68D3F8DA
:1052C000B430FB607B68D3F8B830BB60FB68002B60
:1052D00013D146F27463C2F20003BA681A60BB6865
:1052E000002B04D0BB684FF00002C3F8B4207B68E9
:1052F0004FF00002C3F8B8201FE0BB68002B0AD1B2
:10530000FB684FF00002C3F8B8207B684FF0000242
:10531000C3F8B42011E0FB68BA68C3F8B820BB68D2
:10532000FA68C3F8B4207B684FF00002C3F8B820D5
:105330007B684FF00002C3F8B42007F11407BD46A4
:1053400080BC704780B483B000AF786046F274636D
:10535000C2F200034FF000021A6046F28C63C2F200
:1053600000034FF000021A8046F28463C2F2000389
:105370004FF000021A607B684FF000021A8007F1BC
:105380000C07BD4680BC704780B584B000AF786024
:105390007B684FF000021A607B684FF000029A6051
:1053A0007B684FF000025A607B684FF00002DA60C1
:1053B0007B684FF000021A617B684FF000025A616F
:1053C0007B684FF000029A617B684FF00002DA615F
:1053D0007A6846F2F043C0F6000313627B684FF030
:1053E00000025A627B684FF000029A627B684FF0BD
:1053F0000002DA627B684FF000021A637B684FF0AC
:105400000002DA877B684FF000021A647B684FF075
:105410000002DA657B684FF00002A3F860207B6829
:1054200003F1640318464FF00001FCF76BFB7B6847
:105430004FF000025A677B684FF000029A677B6862
:105440004FF00002C3F880207B684FF00002A3F801
:1054500088207B684FF00002C3F884204FF00003DF
:10546000FB730DE0FB7B7A6803F11E034FEA8303B5
:10547000D3184FF000025A60FB7B03F10103FB736A
:10548000FB7B002BEED07B684FF000025A647B68F8
:105490004FF00002C3F8A4207B684FF00002C3F86D
:1054A000A8207B684FF000029A637B684FF00002EF
:1054B00083F88A207B684FF00002C3F8B0207B6835
:1054C0004FF00002C3F8AC207B684FF000029A87CF
:1054D0007B684FF000429A647B684FF00002DA6408
:1054E0007B684FF000021A657B684FF000025A6536
:1054F0007B684FF000029A657B684FF00002A3F8CA
:105500008C207B684FF00002A3F88E207B684FF060
:105510000002C3F890207B684FF00002C3F894208B
:1055200000F042FB0346BB607B68BA68C3F8982072
:105530007B684FF00002C3F89C207B684FF00002AC
:1055400083F834207B684FF0000283F835207B68B5
:105550004FF0000283F836207B684FF0400283F85A
:1055600037207B684FF00002C3F8B4207B684FF00F
:105570000002C3F8B8207A6846F2F843C0F6000388
:10558000C2F8BC3007F11007BD4680BD80B584B0BD
:1055900000AF786039604FF00003FB60FAF7F8FD68
:1055A0000346FB603B684FF000021A807B6893F86B
:1055B0003630072B79D801A252F823F0DD550008C8
:1055C000DD550008DD550008DD550008ED550008E3
:1055D000215600084F5600087D560008F868FAF773
:1055E000DBFD3B6847F253121A8066E07B6893F854
:1055F0008A3003F1FF33DAB27B6883F88A207B6854
:1056000093F88A30002B07D17B684FF0000283F8B3
:1056100036207868FEF714F9F868FAF7BDFD4CE01B
:105620007B6893F88A3003F1FF33DAB27B6883F842
:105630008A207B6893F88A30002B04D17B684FF076
:10564000010283F83620F868FAF7A6FD35E07B689A
:1056500093F88A3003F1FF33DAB27B6883F88A204B
:105660007B6893F88A30002B04D17B684FF00202EC
:1056700083F83620F868FAF78FFD1EE07B6893F810
:105680008A3003F1FF33DAB27B6883F88A207B68C3
:1056900093F88A30002B04D17B684FF0030283F823
:1056A0003620F868FAF778FD07E0F868FAF774FD35
:1056B0003B6846F62D621A8001E0FDF7C9FA07F152
:1056C0001007BD4680BD00BF80B582B000AF46F276
:1056D0006463C2F200031B681846FBF7DBFB07F1AB
:1056E00006034FF000001946FFF7C6FA07F1080756
:1056F000BD4680BD80B588B002AFF8607A603B607F
:105700000B467B814FF000033B61FAF741FD0346F6
:105710003B61FB68002B05D146F26463C2F20003D3
:105720001B68FB60FB687A681A643B684FF00002F4
:105730001A80FB6893F83630072B62D84FF00102CD
:1057400002FA03F303F0CC02002A20D103F0330362
:10575000002B56D0FB685B6CB3F1FF3F09D1386971
:10576000FAF71AFD3B6846F6C5521A804FF000035F
:1057700054E000BFFB685B6C03F10102FB685A64F4
:10578000FB685B6C7B613869FAF706FD45E0FB68F6
:1057900093F83430072B17D17B6800934FF000004B
:1057A000F9684FF000024FF00003FDF71BFEFB68A5
:1057B0005B6C7B613869FAF7EFFC7B891BB2002BCD
:1057C0002ADBFDF745FA27E0FB685B6CB3F1FF3F8E
:1057D00009D13869FAF7E0FC3B6846F6C5521A80F1
:1057E0004FF000031AE000BFFB685B6C03F101029D
:1057F000FB685A64FB685B6C7B613869FAF7CCFC28
:105800000AE03869FAF7C8FC3B6846F62D621A8050
:105810004FF000037B6100E000BF7B69184607F191
:105820001807BD4680BD00BF80B584B000AF78606A
:1058300039604FF00003FB60FAF7AAFC0346FB60F7
:105840007B68002B05D146F26463C2F200031B683B
:105850007B6046F26463C2F200031B687A689A4276
:105860000ED146F27C23C2F200031B78002B07D036
:10587000F868FAF791FC3B6846F663521A806DE0CF
:105880003B684FF000021A807B6893F83630072B94
:105890005AD801A252F823F0B9580008DB58000882
:1058A000F7580008135900082F5900082F5900080D
:1058B0002F5900082F5900087B684FF0040283F825
:1058C00036207B684FF0010283F88A207868FDF764
:1058D00027FFF868FAF760FC3EE07B684FF00502AE
:1058E00083F836207B684FF0010283F88A20F8683D
:1058F000FAF752FC30E07B684FF0060283F836205E
:105900007B684FF0010283F88A20F868FAF744FCBC
:1059100022E07B684FF0070283F836207B684FF067
:10592000010283F88A20F868FAF736FC14E07B68F5
:1059300093F88A3003F10103DAB27B6883F88A2096
:10594000F868FAF729FC07E0F868FAF725FC3B68E5
:1059500046F62D621A8001E0FDF77AF907F110078B
:10596000BD4680BD002103E00B4B5B584350043122
:105970000A480B4B42189A42F6D30A4A02E0002327
:1059800042F8043B084B9A42F9D3FEF7F5FE00F0CB
:10599000D9FBFCF7D5F8704720650008000000200F
:1059A0001000002010000020807C0020FEE7FEE7B1
:1059B000FEE7FEE7FEE7FEE780B483B000AF786065
:1059C00046F62413C2F200034FF000021A6046F6B6
:1059D0005403C2F200034FF000021A807B684FF0BC
:1059E00000021A8007F10C07BD4680BC704700BF5B
:1059F00080B582B002AFFAF727FEFCF75DF94FF0F1
:105A00000100FCF7B7F9FCF7DDF94FF00000FCF7F7
:105A1000D7FA4FF48050FCF74FFB4FF4A050FCF73F
:105A200011FB4FF0070300934FF480004FF0190172
:105A30004FF4A8724FF00203FCF7F6F94FF00100A3
:105A4000FCF760FA00BF4FF03900FCF7A5FC0346F5
:105A5000002BF8D04FF00500FEF7F2FD4FF00100EB
:105A6000FEF736FE4FF00200FCF76AFA00BFFCF7C3
:105A700097FA0346082BFAD100F028F8BD4680BDFE
:105A800080B584B000AF3B461846FCF751FB7B68FD
:105A9000184607F11007BD4680BD00BF80B582B033
:105AA00000AFFFF7EDFF03467B6046F2AC43C0F664
:105AB00000031B687A68B2FBF3F33B603868FBF7BE
:105AC0001BFB07F10807BD4680BD00BF80B582B053
:105AD00000AF4FF00600FEF7BFFA4FF4A0733B6033
