:020000040800F2
:10000000000002204D1700089417000896170008FA
:10001000981700089A1700089C1700089E170008F8
:100020009E1700089E1700089E1700089E170008DC
:100030009E1700089E17000863020008FD080008CC
:10004000CD020008DD020008ED020008FD020008F4
:100050000D0300081D0300082D0300083D030008E0
:100060004D0300085D0300086D0300087D030008D0
:100070008D0300089D030008AD030008BD030008C0
:10008000CD030008DD030008ED030008FD030008B0
:100090000D0400081D0400082D0400083D0400089C
:1000A0004D0400085D0400086D0400087D0400088C
:1000B0008D0400089D040008AD040008BD0400087C
:1000C000CD040008DD040008ED040008FD0400086C
:1000D0000D0500081D0500082D0500083D05000858
:1000E0004D0500085D0500086D0500087D05000848
:1000F0008D0500089D050008AD050008BD05000838
:10010000CD050008DD050008ED050008FD05000827
:100110000D0600081D0600082D0600083D06000813
:100120004D0600085D0600086D0600087D06000803
:100130008D0600089D060008AD060008BD060008F3
:10014000CD060008DD060008ED060008FD060008E3
:100150000D0700081D0700082D0700083D070008CF
:100160004D0700085D0700086D0700087D070008BF
:100170008D0700089D070008AD070008BD070008AF
:10018000CD070008DD07000872B6704762B67047F9
:10019000EFF3108072B6704780F31088704730BF5D
:1001A000704720BF7047B0FA80F0704790FAA0F017
:1001B000B0FA80F0704790FAA0F0704780B582B036
:1001C00000AF00F08BFB07F1060340F27040C2F273
:1001D00000004FF000011A4601F0F6F940F2F87302
:1001E000C2F200031B6803F1FF3240F2F873C2F25F
:1001F00000031A6040F2F873C2F200031B68002B80
:1002000014D140F2F073C2F200031A6840F2F8739E
:10021000C2F200031A6007F1060340F26050C2F216
:1002200000004FF000011A4601F0CEF907F108076F
:10023000BD4680BD1B481C490170002080F3098821
:100240001A48016881F3088819481A49016062B6A2
:10025000FEE71748174901607047154815490160C6
:10026000704772B6EFF3098028B1203880E8F00FAC
:1002700011490968086000B5104880475DF804EB33
:100280000F4810490A7802700B480F490A6802604B
:10029000106890E8F00F203080F309884EF0040ECB
:1002A00062B6704722ED00E0FF0000004801002028
:1002B00004ED00E0000000103405002039080008BB
:1002C0006C040020600400204005002080B500AFD1
:1002D0004FF0000000F08AFA80BD00BF80B500AF8B
:1002E0004FF0010000F082FA80BD00BF80B500AF82
:1002F0004FF0020000F07AFA80BD00BF80B500AF79
:100300004FF0030000F072FA80BD00BF80B500AF6F
:100310004FF0040000F06AFA80BD00BF80B500AF66
:100320004FF0050000F062FA80BD00BF80B500AF5D
:100330004FF0060000F05AFA80BD00BF80B500AF54
:100340004FF0070000F052FA80BD00BF80B500AF4B
:100350004FF0080000F04AFA80BD00BF80B500AF42
:100360004FF0090000F042FA80BD00BF80B500AF39
:100370004FF00A0000F03AFA80BD00BF80B500AF30
:100380004FF00B0000F032FA80BD00BF80B500AF27
:100390004FF00C0000F02AFA80BD00BF80B500AF1E
:1003A0004FF00D0000F022FA80BD00BF80B500AF15
:1003B0004FF00E0000F01AFA80BD00BF80B500AF0C
:1003C0004FF00F0000F012FA80BD00BF80B500AF03
:1003D0004FF0100000F00AFA80BD00BF80B500AFFA
:1003E0004FF0110000F002FA80BD00BF80B500AFF1
:1003F0004FF0120000F0FAF980BD00BF80B500AFE9
:100400004FF0130000F0F2F980BD00BF80B500AFDF
:100410004FF0140000F0EAF980BD00BF80B500AFD6
:100420004FF0150000F0E2F980BD00BF80B500AFCD
:100430004FF0160000F0DAF980BD00BF80B500AFC4
:100440004FF0170000F0D2F980BD00BF80B500AFBB
:100450004FF0180000F0CAF980BD00BF80B500AFB2
:100460004FF0190000F0C2F980BD00BF80B500AFA9
:100470004FF01A0000F0BAF980BD00BF80B500AFA0
:100480004FF01B0000F0B2F980BD00BF80B500AF97
:100490004FF01C0000F0AAF980BD00BF80B500AF8E
:1004A0004FF01D0000F0A2F980BD00BF80B500AF85
:1004B0004FF01E0000F09AF980BD00BF80B500AF7C
:1004C0004FF01F0000F092F980BD00BF80B500AF73
:1004D0004FF0200000F08AF980BD00BF80B500AF6A
:1004E0004FF0210000F082F980BD00BF80B500AF61
:1004F0004FF0220000F07AF980BD00BF80B500AF58
:100500004FF0230000F072F980BD00BF80B500AF4E
:100510004FF0240000F06AF980BD00BF80B500AF45
:100520004FF0250000F062F980BD00BF80B500AF3C
:100530004FF0260000F05AF980BD00BF80B500AF33
:100540004FF0270000F052F980BD00BF80B500AF2A
:100550004FF0280000F04AF980BD00BF80B500AF21
:100560004FF0290000F042F980BD00BF80B500AF18
:100570004FF02A0000F03AF980BD00BF80B500AF0F
:100580004FF02B0000F032F980BD00BF80B500AF06
:100590004FF02C0000F02AF980BD00BF80B500AFFD
:1005A0004FF02D0000F022F980BD00BF80B500AFF4
:1005B0004FF02E0000F01AF980BD00BF80B500AFEB
:1005C0004FF02F0000F012F980BD00BF80B500AFE2
:1005D0004FF0300000F00AF980BD00BF80B500AFD9
:1005E0004FF0310000F002F980BD00BF80B500AFD0
:1005F0004FF0320000F0FAF880BD00BF80B500AFC8
:100600004FF0330000F0F2F880BD00BF80B500AFBE
:100610004FF0340000F0EAF880BD00BF80B500AFB5
:100620004FF0350000F0E2F880BD00BF80B500AFAC
:100630004FF0360000F0DAF880BD00BF80B500AFA3
:100640004FF0370000F0D2F880BD00BF80B500AF9A
:100650004FF0380000F0CAF880BD00BF80B500AF91
:100660004FF0390000F0C2F880BD00BF80B500AF88
:100670004FF03A0000F0BAF880BD00BF80B500AF7F
:100680004FF03B0000F0B2F880BD00BF80B500AF76
:100690004FF03C0000F0AAF880BD00BF80B500AF6D
:1006A0004FF03D0000F0A2F880BD00BF80B500AF64
:1006B0004FF03E0000F09AF880BD00BF80B500AF5B
:1006C0004FF03F0000F092F880BD00BF80B500AF52
:1006D0004FF0400000F08AF880BD00BF80B500AF49
:1006E0004FF0410000F082F880BD00BF80B500AF40
:1006F0004FF0420000F07AF880BD00BF80B500AF37
:100700004FF0430000F072F880BD00BF80B500AF2D
:100710004FF0440000F06AF880BD00BF80B500AF24
:100720004FF0450000F062F880BD00BF80B500AF1B
:100730004FF0460000F05AF880BD00BF80B500AF12
:100740004FF0470000F052F880BD00BF80B500AF09
:100750004FF0480000F04AF880BD00BF80B500AF00
:100760004FF0490000F042F880BD00BF80B500AFF7
:100770004FF04A0000F03AF880BD00BF80B500AFEE
:100780004FF04B0000F032F880BD00BF80B500AFE5
:100790004FF04C0000F02AF880BD00BF80B500AFDC
:1007A0004FF04D0000F022F880BD00BF80B500AFD3
:1007B0004FF04E0000F01AF880BD00BF80B500AFCA
:1007C0004FF04F0000F012F880BD00BF80B500AFC1
:1007D0004FF0500000F00AF880BD00BF80B500AFB8
:1007E0004FF0510000F002F880BD00BF80B584B02A
:1007F00000AF78604FF00003FB60FFF7C9FC0346D1
:10080000FB6000F09FF9F868FFF7C6FC7B68512B8E
:100810000CD840F20003C2F200037A6853F8223089
:10082000BB60BB68002B01D0BB68984700F0AEF9F5
:1008300007F11007BD4680BD80B582B000AF40F221
:100840000473C2F200031B68002B05D040F204734E
:10085000C2F200031B68984700F0A2FF03467B60CA
:1008600040F23453C2F200031A6840F24053C2F21D
:1008700000031B689A4225D040F23453C2F20003B1
:100880001A6840F23453C2F200031B68D3F8983060
:100890007968CB1AC2F8943040F23453C2F20003A4
:1008A0001A6840F23453C2F200031B68D3F89C105C
:1008B00040F23453C2F200031B68D3F89430CB18D3
:1008C000C2F89C3040F24053C2F200031B687A68C1
:1008D000C3F8982007F10807BD4680BD80B500AF7A
:1008E00040F25053C2F200031B68002B05D040F2C7
:1008F0005053C2F200031B68984780BD80B582B098
:1009000000AF4FF000037B60FFF742FC03467B60C3
:1009100040F25A53C2F200031B7803F10103DAB22A
:1009200040F25A53C2F200031A707868FFF734FCA1
:10093000FFF744FC00F02AF907F10807BD4680BD27
:1009400080B487B000AF78607B68DB697B617B69CE
:10095000002B3CD07B684FF000021A657B691A6857
:100960007B689A420DD17B685B693B617B693A6920
:100970001A603B69002B13D03B694FF000029A616B
:100980000EE07B689B693B617B685B69FB603B6950
:10099000FA685A61FB68002B02D0FB683A699A61D9
:1009A0007B684FF000025A617B684FF000029A6149
:1009B0007B684FF00002DA617B684FF00002DA6476
:1009C0007B699B8803F1FF339AB27B699A8007F1B8
:1009D0001C07BD4680BC704780B584B000AF4FF0A7
:1009E00009004FF0010100F02DF84FF470437B60D7
:1009F0004FF001033B724FF002037B724FF0000394
:100A0000BB724FF00003FB7207F104034FF4406028
:100A1000C4F20200194600F0E5FB4FF44063C4F253
:100A200002034FF480521A834FF44063C4F202036E
:100A30004FF44062C4F20202526982F480525A6159
:100A4000EBE700BF80B483B000AF78600B46FB706B
:100A5000FB78002B0DD04FF46053C4F202034FF427
:100A60006052C4F20202126B11467A680A431A639A
:100A70000EE04FF46053C4F202034FF46052C4F22C
:100A80000202126B11467A686FEA02020A401A6388
:100A900007F10C07BD4680BC704700BF80B582B02F
:100AA00000AF4FF00003FB7040F2FC73C2F2000392
:100AB0007B6007E0FB7803F12003FB707B6803F1A8
:100AC00004037B607B681B68002BF3D07B681B688A
:100AD0001846FFF768FB0346DAB2FB78D318FB70C1
:100AE000FB78184607F10807BD4680BD80B487B083
:100AF00000AF0346FB71FB794FEA5313FB75FB799B
:100B000003F01F033B614FF00103FB603B69C3F13E
:100B10001F03FA6802FA03F3FB60FA7DF97D40F2E5
:100B2000FC73C2F2000353F82110FB68194340F232
:100B3000FC73C2F2000343F8221007F11C07BD4604
:100B400080BC704780B400AF40F25D13C2F2000376
:100B50001B78012B14D140F25A53C2F200031B78C8
:100B6000F92B0FD840F25A53C2F200031B7803F15D
:100B70000103DAB240F25A53C2F200031A7002E0E3
:100B800000BF00E000BFBD4680BC704780B582B0AA
:100B900000AF4FF000037B6040F25D13C2F2000330
:100BA0001B78012B7ED1FFF7F3FA03467B6040F2FE
:100BB0005A53C2F200031B78002B03D17868FFF769
:100BC000EBFA70E040F25A53C2F200031B7803F1D3
:100BD000FF33DAB240F25A53C2F200031A7040F205
:100BE0005A53C2F200031B78002B03D07868FFF73A
:100BF000D3FA58E040F24C13C2F200031B78002BEA
:100C000003D07868FFF7C8FA4DE0FFF747FF0346C7
:100C10001A4640F26043C2F200031A7040F2604389
:100C2000C2F200031B78194640F26012C2F20002C1
:100C30000B464FEA43035B184FEA8303D3181A6845
:100C400040F24053C2F200031A6040F24053C2F235
:100C500000031A6840F23453C2F200031B689A4240
:100C600003D17868FFF798FA1DE040F24053C2F2D2
:100C700000031B68D3F8902002F10102C3F8902012
:100C800040F25453C2F200031B6803F1010240F228
:100C90005453C2F200031A60FFF7DFFA7868FFF7D7
:100CA0007BFA00E000BF07F10807BD4680BD00BF2A
:100CB00080B582B000AF4FF000037B6040F25A5322
:100CC000C2F200031B78002B57D140F24C13C2F242
:100CD00000031B78002B52D1FFF75AFA03467B60C2
:100CE000FFF7DCFE03461A4640F26043C2F20003FF
:100CF0001A7040F26043C2F200031B78194640F2BA
:100D00006012C2F200020B464FEA43035B184FEA3F
:100D10008303D3181A6840F24053C2F200031A60EA
:100D200040F24053C2F200031A6840F23453C2F258
:100D300000031B689A4203D17868FFF72DFA1FE081
:100D400040F24053C2F200031B68D3F8902002F136
:100D50000102C3F8902040F25453C2F200031B6812
:100D600003F1010240F25453C2F200031A60FFF78C
:100D700070FA7868FFF710FA02E000BF00E000BFE9
:100D800007F10807BD4680BD80B487B000AF78602A
:100D900039603A6841F63003C0F60003C2F8BC304F
:100DA0007B6803F108037B617B691B683B613B69DE
:100DB000002B07D03B699B68FB60FB681A6A7B6865
:100DC000DA6105E07A6841F63003C0F60003D361CA
:100DD00007F11C07BD4680BC704700BF80B586B0D8
:100DE00000AF78607B681B6B3B617B68DB8FFB82AD
:100DF00012E03B69DB68FB60FB6803F10803BB6042
:100E0000B868396900F018F83B6903F120033B61C9
:100E1000FB8A03F1FF33FB82FB8A002BE9D17B685D
:100E20004FF00002DA877B684FF000021A6307F187
:100E30001807BD4680BD00BF80B485B000AF7860A4
:100E400039607B681B89012B08D17B684FF0000259
:100E50001A607B684FF000025A6029E03B681B680B
:100E6000002B0AD13B685B68FB60FB684FF0000217
:100E70001A607B68FA681A601AE03B685B68002BAE
:100E80000AD13B681B68BB60BB684FF000025A6028
:100E90007B68BA685A600BE03B681B68BB603B68C4
:100EA0005B68FB60BB68FA685A60FB68BA681A60E6
:100EB0007B681B8903F1FF339AB27B681A813B6818
:100EC0004FF000025A603B684FF000021A6007F1D1
:100ED0001407BD4680BC704780B586B002AFF8608D
:100EE000B9607A607B80BB6893F83630072B7AD87C
:100EF0004FF0010202FA03F303F03302002A74D127
:100F000003F0C002002A38D103F00C03002B69D093
:100F1000BB6893F83430032B08D17B88BA69009200
:100F2000F868B9687A6800F065F809E0BB687A6823
:100F3000DA65BB687A88A3F86020BB68BA691A646E
:100F4000FB68002B06D0B868FFF748FFF868B9685F
:100F5000FFF71AFFB86800F02FF9BB684FF00002E6
:100F600083F83620BB684FF0000283F83520BB6859
:100F70004FF0000283F8342038E0BB6893F8343037
:100F8000032B08D17B88BA690092F868B9687A683F
:100F900000F030F809E0BB687A68DA65BB687A88E7
:100FA000A3F86020BB68BA691A64B868FFF7C8FC88
:100FB000FB68002B06D0B868FFF710FFF868B96827
:100FC000FFF7E2FEBB684FF0040283F83620BB68EF
:100FD0004FF0000283F83520BB684FF0000283F821
:100FE000342003E000BF00BF00E000BF07F110079E
:100FF000BD4680BD80B487B000AFF860B9607A604C
:101000007B80BB681B6B3B61BB68DB8FFB8219E09D
:101010003B69DA68FB689A420CD13B69FA681A614D
:101020003B697A685A613B697A881A833B693A6AF4
:10103000DA610AE03B6903F120033B61FB8A03F1BB
:10104000FF33FB82FB8A002BE2D107F11C07BD4670
:1010500080BC704780B582B000AF78607B6893F841
:1010600037301846FFF742FD7B6893F8372040F28F
:101070006C43C2F200031B789A4203D1786800F0F7
:1010800053F802E0786800F005F807F10807BD465C
:1010900080BD00BF80B485B000AF78607B6893F8F6
:1010A00037301A4613464FEA43039B184FEA83032F
:1010B0001A4640F26013C2F20003D318FB60FB68CB
:1010C0001B89002B12D1FB684FF001021A817B684B
:1010D0004FF00002DA607B684FF000021A61FB6893
:1010E0007A681A60FB687A685A6017E0FB681B89A7
:1010F00003F101039AB2FB681A81FB681A687B68E6
:10110000DA607B684FF000021A61FB681B68BB6005
:10111000BB687A681A61FB687A681A6007F114077D
:10112000BD4680BC704700BF80B485B000AF78601A
:101130007B6893F837301A4613464FEA43039B18EF
:101140004FEA83031A4640F26013C2F20003D31839
:10115000FB60FB681B89002B12D1FB684FF001027A
:101160001A817B684FF00002DA607B684FF0000262
:101170001A61FB687A681A60FB687A685A6016E040
:10118000FB681B8903F101039AB2FB681A817B6833
:101190004FF00002DA60FB685B68BB607B68BA688E
:1011A0001A61BB687A68DA60FB687A685A6007F18E
:1011B0001407BD4680BC704780B582B000AF786030
:1011C0007868FFF7BDFB7B6893F8363003F00403C3
:1011D000002B02D17868FFF73DFF07F10807BD46F5
:1011E00080BD00BF80B487B000AF786039604FF039
:1011F00000037B614FF000033B614FF00003FB6095
:101200004FF000037B618EE07B694FF0010202FA30
:1012100003F33B613B681A683B691340FB60FA6863
:101220003B699A427BD17B681B681A467B694FEA0F
:1012300043034FF0030101FA03F36FEA03031A407B
:101240007B681A607B681B681A463B681B791946E5
:101250007B694FEA430301FA03F31A437B681A6080
:101260003B681B79012B03D03B681B79022B38D1DB
:101270007B689B681A467B694FEA43034FF0030182
:1012800001FA03F36FEA03031A407B689A607B68F4
:101290009B681A463B685B7919467B694FEA4303B2
:1012A00001FA03F31A437B689A607B685B681A460D
:1012B0007B699BB24FF0010101FA03F36FEA03036C
:1012C0001A407B685A607B685B681A463B689B796A
:1012D00019467B699BB201FA03F39BB21A437B6800
:1012E0005A607B68DB681A467B699BB24FEA43030E
:1012F0004FF0030101FA03F36FEA03031A407B681E
:10130000DA607B68DB681A463B68DB7919467B69E3
:101310004FEA430301FA03F31A437B68DA607B69FF
:1013200003F101037B617B690F2B7FF66DAF07F142
:101330001C07BD4680BC704780B500AF4FF46D43BD
:10134000CEF200034FF46D42CEF20002D2F88820B4
:1013500042F47002C3F888204FF46053C4F20203D1
:101360004FF46052C4F20202126842F001021A60A5
:101370004FF46053C4F202034FF000029A604FF43E
:101380006053C4F202034FF46052C4F202021268C6
:1013900022F0847222F480321A604FF46053C4F257
:1013A000020343F21002C2F200425A604FF460534B
:1013B000C4F202034FF46052C4F20202126822F433
:1013C00080221A604FF46053C4F202034FF000020F
:1013D000DA6000F009F84FF46D43CEF200034FF0ED
:1013E00000629A6080BD00BF80B483B000AF4FF050
:1013F00000037B604FF000033B604FF46053C4F286
:1014000002034FF46052C4F20202126842F48032C6
:101410001A604FF46053C4F202031B6803F40033F4
:101420003B607B6803F101037B603B68002B03D1C9
:101430007B68B3F5A04FECD14FF46053C4F20203C4
:101440001B6803F40033002B03D04FF001033B6013
:1014500002E04FF000033B603B68012B40F08280CC
:101460004FF46053C4F202034FF46052C4F202021C
:10147000126C42F080521A644FF4E043C4F200034D
:101480004FF4E042C4F20002126842F440421A6093
:101490004FF46053C4F202034FF46052C4F20202EC
:1014A00092689A604FF46053C4F202034FF46052A2
:1014B000C4F20202926842F400429A604FF4605310
:1014C000C4F202034FF46052C4F20202926842F482
:1014D000A0529A604FF46053C4F2020345F20842EE
:1014E000C0F240725A604FF46053C4F202034FF4EA
:1014F0006052C4F20202126842F080721A6000BFA9
:101500004FF46053C4F202031B6803F00073002B16
:10151000F6D04FF47053C4F2020340F205621A6031
:101520004FF46053C4F202034FF46052C4F202025B
:10153000926822F003029A604FF46053C4F20203EF
:101540004FF46052C4F20202926842F002029A60C2
:1015500000BF4FF46053C4F202039B6803F00C0316
:10156000082BF6D14FF46053C4F202034FF46052DB
:10157000C4F20202926822F400029A604FF46053AF
:10158000C4F202034FF48142C3F20002C3F8842084
:101590004FF46053C4F202034FF46052C4F20202EB
:1015A000126842F080621A6000BF4FF46053C4F2C8
:1015B00002031B6803F00063002BF6D007F10C0751
:1015C000BD4680BC704700BF80B586B000AFF860F4
:1015D0000B467A607B817B89002B09D0B3F5004FE5
:1015E00006D07B6845F625621A804FF000030EE0B6
:1015F00000BF00F0D5F803467B617B89F868194687
:101600007A697B6800F008F803463B613B6918463D
:1016100007F11807BD4680BD80B588B002AFF860FD
:101620007A603B600B467B814FF000033B61FEF725
:10163000AFFD03463B61FB68002B05D140F23453FC
:10164000C2F200031B68FB60FB687A681A643B689F
:101650004FF000021A80FB6893F83630072B62D8EF
:101660004FF0010202FA03F303F0CC02002A20D16A
:1016700003F03303002B56D0FB685B6CB3F1FF3FE4
:1016800009D13869FEF788FD3B6846F6C5521A80D5
:101690004FF0000354E000BFFB685B6C03F10102F4
:1016A000FB685A64FB685B6C7B613869FEF774FD0C
:1016B00045E0FB6893F83430072B17D17B68009323
:1016C0004FF00000F9684FF000024FF00003FFF701
:1016D00003FCFB685B6C7B613869FEF75DFD7B8911
:1016E0001BB2002B2ADBFFF7E3FA27E0FB685B6CF9
:1016F000B3F1FF3F09D13869FEF74EFD3B6846F66E
:10170000C5521A804FF000031AE000BFFB685B6C03
:1017100003F10102FB685A64FB685B6C7B6138690A
:10172000FEF73AFD0AE03869FEF736FD3B6846F6FB
:101730002D621A804FF000037B6100E000BF7B69DF
:10174000184607F11807BD4680BD00BF002103E021
:101750000B4B5B58435004310A480B4B42189A42DA
:10176000F6D30A4A02E0002342F8043B084B9A42AF
:10177000F9D3FFF7E1FD00F023F8FFF72DF97047EB
:1017800038180008000000200000002000000020A1
:1017900004080020FEE7FEE7FEE7FEE7FEE7FEE7BF
:1017A00080B483B000AF41F20403CEF200031B68A3
:1017B0007B607B68184607F10C07BD4680BC70470C
:1017C00070B50D4D0D4E761BB61006D0002455F8A1
:1017D000043B01349847A642F9D1094D094E761BC6
:1017E00000F028F8B61006D0002455F8043B013468
:1017F0009847A642F9D170BD00000000000000002B
:10180000000000000000000075432F4F532D494990
:10181000492049646C65205461736B005461736B9B
:10182000205100005461736B2053656D000000006F
:041830002000000094
:04183400F8B500BF44
:00000001FF
