:020000040800F2
:1000000000000220D1590008205A0008245A000894
:10001000285A00082C5A0008305A0008345A0008A0
:10002000345A0008345A0008345A0008345A000878
:10003000345A0008345A00087D050008550E00089F
:1000400055060008610600086D06000879060008DC
:1000500085060008910600089D060008A90600080C
:10006000B5060008C1060008CD060008D90600083C
:10007000E5060008F1060008FD060008090700086B
:1000800015070008210700082D0700083907000898
:1000900045070008510700085D07000869070008C8
:1000A00075070008810700088D07000899070008F8
:1000B000A5070008B1070008BD070008C907000828
:1000C000D5070008E1070008ED070008F907000858
:1000D00005080008110800081D0800082908000884
:1000E00035080008410800084D08000859080008B4
:1000F00065080008710800087D08000889080008E4
:1001000095080008A1080008AD080008B908000813
:10011000C5080008D1080008DD080008E908000843
:10012000F5080008010900080D0900081909000870
:1001300025090008310900083D090008490900089F
:1001400055090008610900086D09000879090008CF
:1001500085090008910900089D090008A9090008FF
:10016000B5090008C1090008CD090008D90900082F
:10017000E5090008F1090008FD090008090A00085E
:10018000150A0008210A000810B5054C237833B978
:10019000044B13B10448AFF300800123237010BD5A
:1001A0004804002000000000E065000808B5064B88
:1001B0001BB106480649AFF300800648036813B137
:1001C000054B03B1984708BD00000000E06500083A
:1001D0004C040020440400200000000072B6704768
:1001E00062B67047EFF3108072B6704780F31088E4
:1001F000704730BF704720BF7047B0FA80F070473B
:1002000090FAA0F0B0FA80F0704790FAA0F0704732
:1002100080B586B000AFF8600B467A607B81002322
:100220007B61314B1B78002B04D07B6847F2752231
:100230001A8056E02D4B1B78002B04D07B6846F6C5
:1002400063521A804DE07B89082B1ED801A252F818
:1002500023F000BF790200088B0200087902000831
:100260008B020008950200088B0200088B02000830
:100270008B02000879020008FB68002B04D17B6820
:1002800047F27E221A802CE005E07B6845F6256265
:100290001A8026E000BFFFF7A5FF7861144B1B68AA
:1002A000012283F83620124B1A687B891046F968C0
:1002B0001A467B6800F0FEFE7B681B88002B03D08B
:1002C0007869FFF793FF0CE0094B1B68184603F0B1
:1002D000BDFB7869FFF78AFF02F010FF7B68002200
:1002E0001A801837BD4680BD227D00201479002079
:1002F000FC7C002080B588B000AF7B600346FB81AA
:100300000B46BB8113467B810023FB61754B1B7839
:10031000002B04D0FB6A47F275221A80DEE0724B94
:100320001B78002B04D0FB6A46F663521A80D5E096
:100330003B8D03F00E037B837B8B082B26D801A01B
:1003400050F823F0690300088D03000869030008D2
:100350008D030008970300088D0300088D03000833
:100360008D030008690300087B68002B0DD17B8991
:10037000002B0AD1BB89002B07D1FB89002B04D1AC
:10038000FB6A47F27E221A80A8E005E0FB6A45F688
:1003900025621A80A2E000BF3B8D23F01E03002BD4
:1003A0000CBF00230123DBB27B767B7E012B04D1C3
:1003B000FB6A45F625621A8090E03B8D03F010033E
:1003C000002B01D0012300E000233B763B7E012B74
:1003D00020D07B68B3F57A7F04D3FB6A47F27B2297
:1003E0001A807BE07B893B2B04D9FB6A47F27A2297
:1003F0001A8073E0BB893B2B04D9FB6A47F2792250
:100400001A806BE0FB89632B17D9FB6A47F27822CD
:100410001A8063E0BA8942F20F739A4204D9FB6AE8
:1004200047F279221A8059E0FB89B3F57A7F04D329
:10043000FB6A47F278221A8050E02C4B1B687B61E4
:10044000FB894FF4616202FB03F1BA8913461B0179
:100450009B1A9B00CA187B8913447A6902FB03F23A
:100460004FF4FA717B69B1FBF3F17B680B44796956
:1004700001FB03F11E4BA3FB01039B0913443B61EA
:100480003B69002B26D0FFF7ADFEF861194B1B68C6
:10049000012283F83620174B1A687B8B1046396986
:1004A0001A46FB6A00F006FEFB6A1B88002B03D08D
:1004B000F869FFF79BFE11E00E4B1B68184603F02E
:1004C000C5FAF869FFF792FE02F018FEFB6A0022F7
:1004D0001A8003E0FB6A47F27E221A802037BD466D
:1004E00080BD00BF227D00201479002060650008D7
:1004F000D34D6210FC7C002080B582B000AF00F0CC
:100500009DFCBB1D0D4800211A4604F08FFE0C4BCC
:100510001B685A1E0A4B1A60094B1B68002B09D135
:10052000084B1A68064B1A60BB1D074800211A4683
:1005300004F07CFE0837BD4680BD00BF387C00203B
:10054000C07F0020B87F0020287D00201C481D4966
:100550000170002080F309881B48016881F3088836
:100560001A481B49016062B6FFF7FEBF17481849D9
:1005700001607047154816490160704772B6EFF385
:10058000098028B1203880E8F00F12490968086016
:1005900000B5114880475DF804EB104810490A780F
:1005A00002700C480F490A680260106890E8F00F6A
:1005B000203080F309884EF0040E62B670470000C8
:1005C00022ED00E0FF000000B866002004ED00E02E
:1005D00000000010FC7C0020CD0D0008347C0020C1
:1005E000287C0020087D002080B500AFFFF7F6FDD5
:1005F00080BD00BF80B584B000AF78603960002353
:10060000FB607B68512B0AD8FFF7ECFDF860054BC7
:100610007A68396843F82210F868FFF7E7FD103769
:10062000BD4680BD6404002080B582B000AF0023C9
:100630007B6006E078680649FFF7DCFF7B680133E2
:100640007B607B68512BF5D90837BD4680BD00BF64
:10065000710A000880B500AF002000F0E7F980BD06
:1006600080B500AF012000F0E1F980BD80B500AF9A
:10067000022000F0DBF980BD80B500AF032000F060
:10068000D5F980BD80B500AF042000F0CFF980BD62
:1006900080B500AF052000F0C9F980BD80B500AF7E
:1006A000062000F0C3F980BD80B500AF072000F040
:1006B000BDF980BD80B500AF082000F0B7F980BD5E
:1006C00080B500AF092000F0B1F980BD80B500AF62
:1006D0000A2000F0ABF980BD80B500AF0B2000F020
:1006E000A5F980BD80B500AF0C2000F09FF980BD5A
:1006F00080B500AF0D2000F099F980BD80B500AF46
:100700000E2000F093F980BD80B500AF0F2000F0FF
:100710008DF980BD80B500AF102000F087F980BD55
:1007200080B500AF112000F081F980BD80B500AF29
:10073000122000F07BF980BD80B500AF132000F0DF
:1007400075F980BD80B500AF142000F06FF980BD51
:1007500080B500AF152000F069F980BD80B500AF0D
:10076000162000F063F980BD80B500AF172000F0BF
:100770005DF980BD80B500AF182000F057F980BD4D
:1007800080B500AF192000F051F980BD80B500AFF1
:100790001A2000F04BF980BD80B500AF1B2000F09F
:1007A00045F980BD80B500AF1C2000F03FF980BD49
:1007B00080B500AF1D2000F039F980BD80B500AFD5
:1007C0001E2000F033F980BD80B500AF1F2000F07F
:1007D0002DF980BD80B500AF202000F027F980BD45
:1007E00080B500AF212000F021F980BD80B500AFB9
:1007F000222000F01BF980BD80B500AF232000F05F
:1008000015F980BD80B500AF242000F00FF980BD40
:1008100080B500AF252000F009F980BD80B500AF9C
:10082000262000F003F980BD80B500AF272000F03E
:10083000FDF880BD80B500AF282000F0F7F880BD3E
:1008400080B500AF292000F0F1F880BD80B500AF81
:100850002A2000F0EBF880BD80B500AF2B2000F01F
:10086000E5F880BD80B500AF2C2000F0DFF880BD3A
:1008700080B500AF2D2000F0D9F880BD80B500AF65
:100880002E2000F0D3F880BD80B500AF2F2000F0FF
:10089000CDF880BD80B500AF302000F0C7F880BD36
:1008A00080B500AF312000F0C1F880BD80B500AF49
:1008B000322000F0BBF880BD80B500AF332000F0DF
:1008C000B5F880BD80B500AF342000F0AFF880BD32
:1008D00080B500AF352000F0A9F880BD80B500AF2D
:1008E000362000F0A3F880BD80B500AF372000F0BF
:1008F0009DF880BD80B500AF382000F097F880BD2E
:1009000080B500AF392000F091F880BD80B500AF10
:100910003A2000F08BF880BD80B500AF3B2000F09E
:1009200085F880BD80B500AF3C2000F07FF880BD29
:1009300080B500AF3D2000F079F880BD80B500AFF4
:100940003E2000F073F880BD80B500AF3F2000F07E
:100950006DF880BD80B500AF402000F067F880BD25
:1009600080B500AF412000F061F880BD80B500AFD8
:10097000422000F05BF880BD80B500AF432000F05E
:1009800055F880BD80B500AF442000F04FF880BD21
:1009900080B500AF452000F049F880BD80B500AFBC
:1009A000462000F043F880BD80B500AF472000F03E
:1009B0003DF880BD80B500AF482000F037F880BD1D
:1009C00080B500AF492000F031F880BD80B500AFA0
:1009D0004A2000F02BF880BD80B500AF4B2000F01E
:1009E00025F880BD80B500AF4C2000F01FF880BD19
:1009F00080B500AF4D2000F019F880BD80B500AF84
:100A00004E2000F013F880BD80B500AF4F2000F0FD
:100A10000DF880BD80B500AF502000F007F880BD14
:100A200080B500AF512000F001F880BD80B584B0E2
:100A300000AF78600023FB60FFF7D4FBF86002F0A2
:100A4000D7FAF868FFF7D2FB7B68512B09D8074B20
:100A50007A6853F82230BB60BB68002B01D0BB68BA
:100A6000984702F0DFFA1037BD4680BD64040020CD
:100A700080B400AFBD465DF8047B704780B483B09E
:100A800000AF1E4B7B607B681D4A1A607B681B4A67
:100A90005A607B6800229A607B680022DA607B687B
:100AA00000221A617B6800225A617B6800229A61E9
:100AB0007B680022DA617B6800221A627B68002270
:100AC0001A637B680022DA627B6800225A627B68C4
:100AD0000C4A9A637B680B4ADA637B684FF4B8422E
:100AE0001A647B684FF4B8425A64074B034A1A6091
:100AF0000C37BD465DF8047B704700BF6C0A0020D0
:100B000048454150B40A0020B466002080B582B048
:100B100000AF78603960786800213A6800F004F826
:100B20000837BD4680BD00BF80B48BB000AFF86011
:100B30000B467A60FB727B68002B00D151E0FB68AA
:100B4000002B00D14DE000233B6200237B6109E0D4
:100B50003B6A1B023B62FB7A3A6A13433B627B6946
:100B600001337B617B69032BF2D97B687B62FB6875
:100B7000DBB203F003033B61FB68BB613B69002B05
:100B800013D03B697B610AE0BB695A1CBA61FA7AEF
:100B90001A707B6A013B7B627B6901337B617B6AF4
:100BA000002B02D07B69032BEED9BB69FB6107E008
:100BB000FB691A1DFA613A6A1A607B6A043B7B6220
:100BC0007B6A032BF4D8FB69BB6107E0BB695A1C45
:100BD000BA61FA7A1A707B6A013B7B627B6A002BEE
:100BE000F4D12C37BD465DF8047B704780B500AF6B
:100BF000034B1B68002B02D0014B1B68984780BD3C
:100C0000C07E002080B400AF094B1A68094B1B68F6
:100C10009B001A44084B1A60074B1B6823F007031C
:100C20001A46054B1A60BD465DF8047B704700BF4D
:100C30002C65000830650008B866002080B500AF5C
:100C4000034B1B68002B02D0014B1B68984780BDEB
:100C5000DC7E002080B582B000AF7860054B1B6859
:100C6000002B03D0034B1B68786898470837BD46B4
:100C700080BD00BF307C002080B582B000AF7860BE
:100C8000054B1B68002B03D0034B1B687868984703
:100C90000837BD4680BD00BF147D002080B582B0FE
:100CA00000AF7860054B1B68002B03D0034B1B681B
:100CB000786898470837BD4680BD00BF1879002086
:100CC00080B487B000AFF860B9607A603B603B6A7F
:100CD0009B007A6813447B617B6923F007037B6187
:100CE0007B69043B7B617B694FF080721A607B6992
:100CF000043B7B61FA687B691A607B69043B7B611A
:100D0000314A7B691A607B69043B7B617B694FF0E8
:100D100012321A607B69043B7B617B694FF00332BE
:100D20001A607B69043B7B617B694FF002321A6079
:100D30007B69043B7B613A687B691A607B69043B91
:100D40007B61BA687B691A607B69043B7B617B6964
:100D50004FF011321A607B69043B7B617B694FF075
:100D600010321A607B69043B7B617B694FF009326A
:100D70001A607B69043B7B617B694FF008321A6023
:100D80007B69043B7B617B694FF007321A607B69AA
:100D9000043B7B617B694FF006321A607B69043B40
:100DA0007B617B694FF005321A607B69043B7B6194
:100DB0007B694FF004321A607B6918461C37BD46C8
:100DC0005DF8047B704700BF6D57000880B582B0A6
:100DD00000AF174B1B68002B02D0154B1B689847C0
:100DE00004F0F4FE7860134B1A68134B1B689A42A8
:100DF00016D0104B1B680F4A1268D2F898207968F9
:100E00008A1AC3F894200B4B1B680A4A1268D2F85E
:100E10009C10084A1268D2F894200A44C3F89C2017
:100E2000054B1B687A68C3F898200837BD4680BD1B
:100E3000CC7E0020FC7C0020087D002080B500AF27
:100E4000034B1B68002B02D0014B1B68984780BDE9
:100E5000187D002080B582B000AF00237B60FFF7D3
:100E6000C1F97860074B1B780133DAB2054B1A7071
:100E70007868FFF7BBF9FFF73FFB02F0D3F80837BC
:100E8000BD4680BD227D002080B485B000AF786073
:100E90000F4B7A68013A1A600E4B1B68FB60FB68C7
:100EA00023F07F43FB600B4BFA681A600A4B0A4A37
:100EB000126842F005021A60074B074A126842F0B6
:100EC00002021A601437BD465DF8047B704700BF0C
:100ED00014E000E020ED00E010E000E080B500AF9D
:100EE00000F02CF800F024F880BD00BF80B582B07F
:100EF00000AF00237B60FFF775F97860044810218C
:100F0000FFF704FE7868FFF771F90837BD4680BD2A
:100F1000C066002080B483B000AF7860034B7A686D
:100F20001A600C37BD465DF8047B7047BC66002034
:100F300080B500AFFFF7DAFF80BD00BF80B500AF1E
:100F4000024B00221A6004F01FFE80BDBC66002028
:100F500080B483B000AF7860064B00221A60064B65
:100F600000221A807B6800221A800C37BD465DF88B
:100F7000047B7047E47E0020E07E002080B584B0D2
:100F800000AF786007F1080207F10E03002000218E
:100F900004F05CF8FB89002B06D1044B1B78012B75
:100FA00002D100F0E7F9EDE7ECE700BF257900207A
:100FB00080B58CB00AAF7860214B00221A60214BBB
:100FC00000221A6000F050F81F4B1B68002B04D160
:100FD0007B6847F212221A802FE01C4B1A681C4BC8
:100FE0001B689A4204D27B6847F213221A8024E0DD
:100FF000184B1B783E2B04D97B6847F211221A80CC
:101000001BE0144B1878104B1968134B1A680F4BE0
:101010001B68009001910292039300230493002324
:101020000593002306930B2307937B6808930B48D3
:101030000B490C4A002303F03DFE0837BD4680BD36
:10104000C87E0020B47F0020686500087065000835
:101050005C650008646500086C650008387C002049
:10106000CC6100087D0F000880B483B000AF00237E
:10107000FB8010E0FB88DA000C4B13443B603B68BC
:1010800000221A603B6800229A803B680022DA80C6
:10109000FB880133FB80064B1B88FA889A42E9D310
:1010A0000C37BD465DF8047B704700BFD08100203F
:1010B0007865000880B48BB000AFF860B9603B6021
:1010C0001346FB80FB88042B1FD1744B1B68BA6846
:1010D000D31A013B3B623B6A13F5803F0DD9FB6895
:1010E0000022DA64FB6800221A65FB680022DA61DC
:1010F0003B6847F27E221A80CAE0FB68BA68DA646D
:101100003B6A5A1CFB681A6542E0BB68002B31D071
:10111000FB88082B24D1FB689A6CBB681344FB61E5
:101120005E4B1B68FA69D31A013B3B623A6ABB68A3
:101130009A4203D2FB68FA69DA6405E0574B1A68F1
:10114000BB681A44FB68DA64FB68DA6C534B1B68B3
:10115000D21AFB681A65FB68DA6CFB689A6417E0C0
:101160004E4B1A68BB681A44FB68DA64FB68BA68BD
:101170001A650DE0FB680022DA64FB6800221A653C
:10118000FB680022DA613B6847F27E221A807FE02A
:10119000FB68DB6C424A1288B3FBF2F102FB01F2FE
:1011A0009B1A7B837B8BDA003E4B13447B617B690C
:1011B0009B88002B0CD1FB6800225A61FB6800223F
:1011C0009A617B69FA681A607B6901229A804FE014
:1011D0007B691B687B6242E07B6ADA6C2F4B1B6881
:1011E000D21A7B6A1A65FB681A6D7B6A1B6D9A427C
:1011F00013D97B6A5B69002B03D07B6A5B697B62D6
:101200002DE0FB6800225A61FB687A6A9A617B6A6A
:10121000FA685A6100237B6221E07B6A9B69002B9C
:101220000CD1FB6800229A61FB687A6A5A617B6A7A
:10123000FA689A617B69FA681A600EE07B6A9B69BA
:101240003B61FB683A699A61FB687A6A5A613B695B
:10125000FA685A617B6AFA689A6100237B627B6A4A
:10126000002BB9D17B699B8801339AB27B699A8044
:101270007B69DA887B699B889A4203D27B699A886A
:101280007B69DA80FB687A69DA613B6800221A8040
:101290002C37BD465DF8047B704700BFC87E002038
:1012A00078650008D081002080B487B000AF7860F6
:1012B0007B68DB697B617B69002B35D07B68002212
:1012C0001A657B691A687B689A420CD17B685B69F6
:1012D0003B617B693A691A603B69002B12D03B691C
:1012E00000229A610EE07B689B693B617B685B69C9
:1012F000FB603B69FA685A61FB68002B02D0FB680F
:101300003A699A617B6800225A617B6800229A617F
:101310007B680022DA617B680022DA647B699B8843
:10132000013B9AB27B699A801C37BD465DF8047B0D
:10133000704700BF80B483B000AF0023FB800AE099
:10134000FB88DA00094B13443B603B680022DA80DB
:10135000FB880133FB80064B1B88FA889A42EFD347
:101360000C37BD465DF8047B704700BFD08100207C
:101370007865000880B588B000AF00237B61FEF778
:1013800031FF786104F022FC3861734B1B685A1CF2
:10139000714B1A60704B1B68704A1288B3FBF2F1F4
:1013A00002FB01F29B1AFB81FB89DA006C4B1344B0
:1013B000BB60BB681B68BB610023FB77B4E0BB6903
:1013C000002B00F0AF80BB695B697B60BB6993F861
:1013D0003630072B00F2A28001A252F823F000BFA2
:1013E0001D150008011400081D150008311400081F
:1013F0001D1500088F1400081D150008BF140008F3
:10140000BB69DA6C544B1B68D21ABB691A65BB699D
:10141000DA6C514B1B689A4207D1BB69002283F8F2
:101420003620B86902F08EFB79E00123FB7776E085
:10143000BB69DA6C484B1B68D21ABB691A65BB6979
:10144000DA6C454B1B689A421ED1BB690022DA65F3
:10145000BB690022A3F8602004F0B8FB0246BB6918
:101460001A64B86902F008F9B86902F06BFBBB694D
:10147000002283F83620BB69032283F83520BB693C
:10148000002283F834204AE00123FB7747E0BB6960
:10149000DA6C314B1B68D21ABB691A65BB69DA6C0E
:1014A0002D4B1B689A4207D1BB69042283F8362072
:1014B000B869FFF7F9FE32E00123FB772FE0BB6943
:1014C000DA6C254B1B68D21ABB691A65BB69DA6CEA
:1014D000214B1B689A421ED1BB690022DA65BB69A9
:1014E0000022A3F8602004F071FB0246BB691A6475
:1014F000B86902F0C1F8B869FFF7D6FEBB690422EB
:1015000083F83620BB69032283F83520BB690022AB
:1015100083F8342003E00123FB7700E000BF7B6801
:10152000BB6101E00123FB77FB7F002B3FF447AF5A
:1015300004F04CFB02463B69D31A3B60094B1A6826
:101540003B689A4202D2074B3A681A607869FEF704
:101550004DFE2037BD4680BDC87E0020786500085E
:10156000D0810020B47F002080B588B002AF7860C1
:1015700000237B612B48012103F03EF87B69012B9E
:1015800022D0022B3BD0002B00D049E026484FF45C
:10159000807103F009F80346012B09D101237B6117
:1015A00007F11203214800211A4601F0CFFA37E073
:1015B0000023009307F11203019300200021002271
:1015C0001423FEF797FE2BE017484FF4807102F0CA
:1015D000EBFF0346002B06D102237B61114801215A
:1015E00002F0FCFF1CE00023009307F112030193BB
:1015F0000020002100221423FEF77CFE10E007F1FA
:101600000C0307F11202009209480021002201F0A8
:10161000B7F900237B610348012102F0EDFF00BF11
:10162000ACE700BF00040240000C0240D46F002071
:10163000746C002080B588B002AF786000237B61B5
:1016400000E000BF7B69032BFBD801A252F823F016
:1016500061160008831600081117000837170008E4
:1016600007F10C0307F11202009241480021002209
:1016700001F086F93F48022102F0BEFF01237B61A1
:1016800074E03D484FF4806102F08EFF0346012B69
:1016900010D13A4B44221A70384B1B7807F11202D2
:1016A0000092374819460122002303F011FA022361
:1016B0007B612CE030484FF4007102F075FF034667
:1016C000012B18D12C484FF4806102F06DFF0346C6
:1016D000002B10D1294B47221A70284B1B7807F199
:1016E00012020092264819460122002303F0F0F965
:1016F00002237B610BE00023009307F112030193A7
:101700000020002100221423FEF7F4FD2EE02DE03E
:1017100019484FF4006102F047FF0346012B09D13D
:1017200003237B6107F11203164800211A4601F0DA
:101730000DFA1BE01AE010484FF4006102F034FF8C
:101740000346002B06D10B48022102F047FF00237D
:101750007B610AE00023009307F11203019300204C
:10176000002100221423FEF7C5FD00BF69E700BF7A
:10177000D46F002000040240000C0240A06800204A
:10178000FC730020EC78002080B588B002AF786050
:1017900000237B6100E000BF7B69072BFBD801A21F
:1017A00052F823F0C5170008F91700082F18000891
:1017B00049180008E31800088F180008B518000839
:1017C000091900085C484FF4805102F0EDFE034611
:1017D000012B10D107F10C0307F1100200925748BA
:1017E0000021002201F0CCF85548102102F004FF3E
:1017F00001237B619FE09EE04F484FF4804102F05F
:10180000D3FE0346012B11D14D48102102F0E6FE14
:1018100007F110034B4800211A4601F097F93B8A63
:10182000002B02D102237B6100E084E083E007F11A
:101830000C0307F11002009243480021002201F03E
:101840009FF803237B6176E007F10A0307F10C029E
:10185000009207F1100201923C480021002203F09F
:101860003FF80346FB74FB7C472B05D105237B61C6
:101870003348102102F0C0FEFB7C442B06D1042328
:101880007B612F48202102F0B7FE54E053E030483E
:101890004FF4807102F088FE0346012B09D107F155
:1018A00010032C4800211A4601F050F906237B61F1
:1018B00041E040E026484FF4807102F075FE034697
:1018C000002B0DD107F11003234800211A4601F027
:1018D0003DF91B48102102F081FE00237B612AE0C4
:1018E00029E015484FF4004102F05EFE0346012B4B
:1018F00009D107F11003194800211A4601F026F911
:1019000007237B6117E016E00B484FF4004102F01B
:101910004BFE0346002B0DD107F110030E480021AA
:101920001A4601F013F90648202102F057FE002361
:101930007B61FFE700BF2EE7000C0240EC7800203F
:10194000000402404C6C0020A4680020FC730020BE
:10195000001002409C6C0020C46C0020F86600203F
:1019600080B588B002AF786000237B617B69012B72
:101970001AD0022B2BD0002B00D0F7E707F10C0375
:1019800007F1120200921B480021002200F0F8FF2C
:101990007B8A002B07D118484FF4805102F02CFEAF
:1019A00001237B6125E024E014484FF4005102F04C
:1019B000FBFD0346012B09D107F11203104800215A
:1019C0001A4601F0C3F802237B6112E011E007F12F
:1019D0000C0307F1120200920A480021002200F0D5
:1019E000CFFF05484FF4805102F0F8FD00237B61E2
:1019F000BCE7BBE74C6C002000040240000C024036
:101A0000A4680020C46C002080B588B002AF786064
:101A100000237B617B69012B16D0022B25D0002B84
:101A200000D03AE007F10C0307F1120200921B48C4
:101A30000021002200F0A4FF19484FF4005102F0E9
:101A4000DBFD01237B6128E016484FF4806102F042
:101A5000ABFD0346002B07D011484FF4005102F0B4
:101A6000CBFD02237B6118E017E00E484FF4806144
:101A700002F09AFD0346002B0ED107F112030A482B
:101A800000211A4601F062F805484FF4005102F0B7
:101A9000A5FD00237B61FFE700BFBBE79C6C002036
:101AA0000004024000100240746C002080B588B031
:101AB00002AF786000237B6124484FF4804102F03C
:101AC0008DFD7B69012B16D0022B25D0002B00D079
:101AD0003AE007F10C0307F1120200921C480021C2
:101AE000002200F04DFF19484FF4804102F084FDC0
:101AF00001237B6128E017484FF4007102F054FD88
:101B00000346002B07D011484FF4804102F074FDCA
:101B100002237B6118E017E00E484FF4007102F0D9
:101B200043FD0346002B0ED107F112030A480021A2
:101B30001A4601F00BF805484FF4804102F04EFDC3
:101B400000237B61FFE700BFBBE700BF000402404A
:101B5000F866002000100240746C002080B487B04A
:101B600000AF78602E4B1B68002B04D17B6845F2D8
:101B70001E721A804EE02B4B1B88002B04D17B6811
:101B800045F21D721A8045E0254B1B687B61244B92
:101B90001B683B613B6910333B61224B1B88013B57
:101BA000BB810023FB8114E07B693A691A607B6981
:101BB00000225A607B6900221A817B690022DA6068
:101BC0007B6910337B613B6910333B61FB890133D7
:101BD000FB81FA89BB899A42E6D37B6900221A60AD
:101BE0007B6900225A607B6900221A817B6900228E
:101BF000DA600B4B1A680C4B1A600A4B1A880A4BB6
:101C00009A80094B0022DA80074B00221A817B68F8
:101C100000221A801C37BD465DF8047B704700BF68
:101C20004065000838650008E87D002080B485B074
:101C300000AF78607B685B89FB817B685B89002BE8
:101C400026D07B681B68BB60154B1A68BB681A609E
:101C50007B685A68124B1A60114BDA887B685B8983
:101C6000D31A9AB20E4BDA800D4B9A887B685B8947
:101C700013449AB20A4B9A807B6800225A817B688F
:101C800000229A817B6800221A607B6800225A60D9
:101C9000FB8918461437BD465DF8047B704700BFCA
:101CA000E87D002080B483B000AF78600B467B8075
:101CB0007B687A881A817B6800225A817B680022BF
:101CC0009A817B6800221A607B6800225A600C3778
:101CD000BD465DF8047B704780B487B000AFF86004
:101CE000B9607A603B60FB685B89002B0ED1BB68F2
:101CF00000221A807B68002B02D07B6800221A60C9
:101D00003B6846F292521A8000233CE0FB685B6815
:101D10007B617B695B683B617B691A89BB681A8060
:101D20007B68002B03D07B69DA687B681A607B696B
:101D30001A68FB685A60FB685B68002B06D1FB6879
:101D400000221A60FB6800225A8105E0FB685B896B
:101D5000013B9AB2FB685A810E4B1A687B691A6084
:101D60000C4B7A691A600B4B9B8801339AB2094B72
:101D70009A80084BDB88013B9AB2064BDA803B68BD
:101D800000221A803B6918461C37BD465DF8047B6B
:101D9000704700BFE87D002080B487B000AFF860D6
:101DA000B960FA80BB80FB685A89FB681B899A423C
:101DB00004D37B6A46F293521A806BE0384B9B88BF
:101DC000002B04D17B6A45F21D721A8062E0344B0D
:101DD0001B687B617B691A68314B1A60304B9B88AA
:101DE000013B9AB22E4B9A802D4BDB8801339AB27D
:101DF0002B4BDA802A4B1A89294BDB889A4203D273
:101E0000274BDA88264B1A81FB685B89002B0CD1A3
:101E1000FB687A691A60FB687A695A60FB6801227C
:101E20005A817B6900221A601EE0BB8803F0100310
:101E3000002B0CD1FB681B683B613B697A691A6017
:101E4000FB687A691A607B6900221A6006E0FB6809
:101E50005A687B691A60FB687A695A60FB685B891B
:101E600001339AB2FB685A81FB689A89FB685B89E7
:101E70009A4203D2FB685A89FB689A817B69BA68E7
:101E80005A607B69FA881A817B693A6ADA607B6AF0
:101E900000221A801C37BD465DF8047B704700BFE6
:101EA000E87D002080B58CB00AAF00F079F9FEF72C
:101EB0009BFBBB1D184600F0C3FFBB1D7C487D4942
:101EC000022202F0BBFCBB1D7B487C49002200F0D3
:101ED00011FDBB1D7A487B49002200F00BFDBB1DA4
:101EE00079487A49002200F005FDBB1D7848794900
:101EF000002200F0FFFCBB1D77487849002200F06B
:101F0000F9FCBB1D76487749002200F0F3FCBB1DAD
:101F100075487649002200F0EDFCBB1D74487549F8
:101F2000002200F0E7FCBB1D73487449002200F05A
:101F3000E1FCBB1D72486749002200F0DBFC714BDD
:101F40005B6E022200926F4A019202934FF48073FB
:101F50000393002304930023059300230693032394
:101F60000793BB1D089368486849694A002302F03B
:101F7000A1FE684B1B6B0A220092664A01920293F3
:101F800080230393002304930023059300230693E7
:101F900003230793BB1D08935F486049604A0023F1
:101FA00002F088FE5F4B1B6B0A2200925D4A019291
:101FB00002938023039300230493002305930023BB
:101FC000069303230793BB1D089357485749584A64
:101FD000002302F06FFE574B1B6B0A220092554AFA
:101FE000019202938023039300230493002305931B
:101FF0000023069303230793BB1D08934E484F49C4
:102000004F4A002302F056FE4E4B1B6B08220092F3
:102010004C4A0192029380230393002304930023EC
:1020200005930023069303230793BB1D089346489B
:102030004649474A002302F03DFE464B1B6B0822EF
:102040000092444A01920293802303930023049355
:10205000002305930023069303230793BB1D0893D6
:102060003D483E493E4A002302F024FE3D4B1B6B97
:10207000092200923B4A019202938023039300239A
:102080000493002305930023069303230793BB1DAA
:10209000089335483549364A002302F00BFEBB1D34
:1020A000184601F0FDF8002318460837BD4680BDEC
:1020B000FC730020E0610008D46F0020F461000888
:1020C000746C00200C620008EC7800202462000888
:1020D000D06600203C6200084C6C0020546200086E
:1020E000A46800206C6200089C6C002084620008D8
:1020F000C46C00209C620008F8660020BC620008E6
:10210000AC6D00206C060020AC050020D4620008F5
:1021100075210008CC6800202C740020E4620008BF
:1021200069150008EC7600208C6B0020EC6200083A
:1021300035160008D46D0020E0670020F462000826
:1021400089170008EC740020CC6A0020F8620008AF
:10215000091A0008FC710020EC6C00201C630008C8
:10216000AD1A0008FC6F00202067002040630008C3
:102170006119000880B584B000AF786003F072FC8C
:10218000FEF7ACFE03F0B8FCFEF778FC02F06EFA46
:1021900007F10E03184601F077FD1037BD4680BDEC
:1021A00080B582B000AF0220012100F02BFA4FF27F
:1021B00033033B6001233B710123BB7103237B711C
:1021C0000023FB713B462648194602F05FF90420C4
:1021D000012100F017FA40F676333B6001233B7192
:1021E0000123BB7103237B710023FB713B461D4818
:1021F000194602F04BF90820012100F003FA4FF4D0
:102200007F433B6000233B710023BB7103237B7141
:102210000023FB713B461448194602F037F91020A1
:10222000012100F0EFF94FF47F433B6000233B7145
:102230000023BB7103237B710023FB713B460B48DA
:10224000194602F023F906484FF2330102F0C6F9AD
:10225000044840F6763102F0C1F90837BD4680BD2A
:102260000004024000080240000C0240001002403E
:1022700080B400AF164B164A126842F001021A6091
:10228000134B00229A60124A114B1B6823F0A8538B
:1022900023F4102313600E4B0E4A5A600C4B0E4A67
:1022A000C3F884200A4B0D4AC3F88820084B084A1B
:1022B000126822F480221A60054B0022DA60044B77
:1022C0000022C3F88C20BD465DF8047B704700BF38
:1022D000003802401030002400300020003000247C
:1022E00080B483B000AF0346FB71054B00221A7027
:1022F000034BFA791A700C37BD465DF8047B7047C2
:102300000238024080B582B000AF00233B6000235A
:10231000FB710023BB71312000F092F90346BB71C1
:102320003B6801333B603B68B3F5A04F02D0BB79FB
:10233000002BF0D0312000F083F90346002B02D0AF
:102340000123FB7101E00023FB71FB79184608377C
:10235000BD4680BD80B485B000AFF860B9607A60DA
:102360003B600A4B7A689101BA6811433A68520897
:10237000013A12041143FA681143BA6912060A437A
:102380005A601437BD465DF8047B70470038024040
:1023900080B483B000AF0346FB71044BFA791A6036
:1023A0000C37BD465DF8047B704700BF60004742B4
:1023B00080B485B000AF78600023FB60094B9B6858
:1023C000FB60FB6823F00303FB60FA687B68134340
:1023D000FB60044BFA689A601437BD465DF8047BD5
:1023E000704700BF0038024080B400AF054B9B68C7
:1023F000DBB203F00C03DBB21846BD465DF8047B8C
:10240000704700BF0038024080B485B000AF7860EC
:102410000023FB60094B9B68FB60FB6823F0F00323
:10242000FB60FA687B681343FB60044BFA689A60B0
:102430001437BD465DF8047B704700BF003802408A
:1024400080B485B000AF78600023FB60094B9B68C7
:10245000FB60FB6823F4E053FB60FA687B6813437E
:10246000FB60044BFA689A601437BD465DF8047B44
:10247000704700BF0038024080B485B000AF78607C
:102480000023FB60094B9B68FB60FB6823F46043FF
:10249000FB607B68DB00FA681343FB60034BFA6860
:1024A0009A601437BD465DF8047B704700380240DF
:1024B00080B489B000AF78600023BB6100237B61EA
:1024C0000023FB6102233B610023FB600223BB600E
:1024D000484B9B6803F00C03BB61BB69042B07D01E
:1024E000082B09D0002B3FD17B68434A1A603FE09C
:1024F0007B68424A1A603BE03E4B5B6803F4800312
:102500009B0DFB603B4B5B6803F03F03BB60FB68CC
:10251000002B0DD0394ABB68B2FBF3F2354B59683A
:1025200047F6C0730B409B0903FB02F3FB610CE011
:10253000314ABB68B2FBF3F22E4B596847F6C073C1
:102540000B409B0903FB02F3FB612A4B5B6803F41E
:1025500040331B0C01335B003B61FA693B69B2FB02
:10256000F3F27B681A6003E07B68234A1A6000BFBD
:10257000204B9B6803F0F003BB61BB691B09BB6187
:102580001F4ABB6913441B78DBB27B617B681A6806
:102590007B69DA407B685A60164B9B6803F4E05312
:1025A000BB61BB699B0ABB61154ABB6913441B78BD
:1025B000DBB27B617B685A687B69DA407B689A6032
:1025C0000C4B9B6803F46043BB61BB695B0BBB6155
:1025D0000B4ABB6913441B78DBB27B617B685A688A
:1025E0007B69DA407B68DA602437BD465DF8047B9E
:1025F000704700BF003802400024F40000127A0047
:102600000000002080B483B000AF78600B46FB7000
:10261000FB78002B06D0094B084A116B7A680A43F5
:102620001A6306E0054B054A116B7A68D2430A40EB
:102630001A630C37BD465DF8047B704700380240D2
:1026400080B487B000AF0346FB710023FB6000231A
:102650007B610023FB74FB795B09DBB2FB60FB68E9
:10266000012B03D1124B1B687B6109E0FB68022B35
:1026700003D10F4B1B6F7B6102E00D4B5B6F7B61E6
:10268000FB7903F01F03FB60FB687A6922FA03F30E
:1026900003F00103002B02D00123FB7401E00023AF
:1026A000FB74FB7C18461C37BD465DF8047B704705
:1026B0000038024080B485B000AF484BFB60484B07
:1026C000BB60484BFB60484BFB60484BBB60484BD2
:1026D000FB60484B7B60484BFB60484BFB60484BC2
:1026E000FB60484BFB60484B7B60484B7B60484B32
:1026F000FB60484B7B60484BFB60484B7B60484B22
:10270000FB60484B7B60484B7B60484B7B60484B91
:102710007B60484BFB60484BFB60484BFB60484B81
:102720007B60484BFB60484BFB60484B7B60484BF1
:102730007B60484B7B60484B7B60484B7B60484BE1
:102740007B60484B7B60484BFB60484BFB60484BD1
:10275000FB60484BFB60484B7B60484B7B60484BC1
:102760007B60484BFB60484BFB60484BFB60484B31
:102770007B60484B7B60484B7B60484BBB60484B61
:102780007B60484BFB60484BFB60484BFB60484B11
:10279000FB60484BFB60484BFB60484BFB60484B81
:1027A0007B60484BFB60484BFB60484B7B60484B71
:1027B0007B60484BFB60484BFB60484B7B60484B61
:1027C000FB60484BFB60484B7B60484B7B60484B51
:1027D0007B601437BD465DF8047B70474863000892
:1027E000B0640008496300084A6300084C630008AD
:1027F0005063000854630008516300087C630008BC
:102800007D6300087E63000880630008826300081F
:102810008663000888630008A8630008AA630008AC
:10282000AC630008AE630008B0630008B263000840
:10283000B4630008E0630008E1630008E263000895
:10284000E4630008E6630008E7630008E863000843
:10285000EA630008EC630008EE630008F063000818
:10286000F2630008F463000824640008256400088B
:102870002664000827640008286400082A64000809
:102880002C6400085464000855640008566400086D
:1028900057640008586400085A6400085C64000823
:1028A00060640008616400086264000863640008F2
:1028B00064640008656400086664000867640008D2
:1028C000686400086A6400086B6400086C640008AF
:1028D0006E64000870640008716400087464000885
:1028E000A8640008A9640008AA640008AC64000891
:1028F000AE64000880B586B000AFF860B9607A6059
:102900003B6000237B611B4B1B78002B04D03B6892
:1029100042F6E1621A802AE0FB68002B04D13B6892
:1029200045F6C3521A8022E0FDF75CFC7861FB6833
:10293000114A1A60FB687A681A62FB6800225A62C0
:10294000FB68BA685A60FB680833184600F010FE4E
:10295000F86800F03FF9094B1B8801339AB2074B26
:102960001A807869FDF742FC3B6800221A8018370C
:10297000BD4680BD227D002053454D41B87E0020DC
:1029800080B58EB000AFF860B9603B601346FB8045
:1029900000237B63694B1B78002B05D03B6C46F210
:1029A000AE121A800023C4E0FB68002B05D13B6CFB
:1029B00045F6C3521A800023BBE0FB88002B08D0E9
:1029C000B3F5004F05D03B6C45F625621A80002315
:1029D000AFE000BFFB681A68594B9A4205D03B6CC8
:1029E00045F6C4521A800023A3E03B68002B02D0B6
:1029F0003B6800221A60FDF7F5FB7863FB681B6AF1
:102A0000002B16D0FB681B6A5A1EFB681A623B68D3
:102A1000002B03D0FB685A6A3B681A60FB681B6A8C
:102A20003B63786BFDF7E2FB3B6C00221A803B6B4B
:102A30007FE0FB881BB2002B0BDAFB681B6A3B6351
:102A4000786BFDF7D3FB3B6C46F2B0121A803B6B00
:102A50006FE03C4B1B78002B08D0786BFDF7C6FB72
:102A60003B6C46F663521A80002362E007F11003C4
:102A70001846F9680622BB6800F0A4FC786BFDF7E5
:102A8000B5FB00F03BFBFDF7ADFB78632E4B1B68FD
:102A900093F83530032B3CD801A252F823F000BF45
:102AA000B12A0008C92A0008F92A0008E32A000808
:102AB0003B68002B04D0244B1B681A6C3B681A60DF
:102AC0003B6C00221A802DE03B68002B04D01E4B8B
:102AD0001B681A6C3B681A603B6C46F2A9121A809C
:102AE00020E03B68002B02D03B6800221A603B6C60
:102AF00047F2D9221A8015E03B68002B04D0124B14
:102B00001B681A6C3B681A603B6C45F6C2521A800F
:102B100008E03B6C46F62E621A80786BFDF766FB88
:102B2000002306E0FB681B6A3B63786BFDF75EFBE6
:102B30003B6B18463837BD4680BD00BF227D002064
:102B400053454D4114790020FC7C002080B586B0AF
:102B500000AFF8600B467A607B81FB68002B05D1E3
:102B60007B6845F6C3521A8000232DE07B89B3F5BC
:102B7000007F11D0B3F5007F02DC002B0CD005E004
:102B8000B3F5004F08D0B3F5024F05D07B6845F68A
:102B900025621A80002317E000BFFB681A680C4BFF
:102BA0009A4205D07B6845F6C4521A8000230BE098
:102BB00003F00CF878617B89F86819467A697B68BC
:102BC00000F044F838613B6918461837BD4680BDAF
:102BD00053454D4180B483B000AF78607B680E4AA6
:102BE000DA617B6800225A610C4B1B68002B03D111
:102BF0007B6800229A6107E0084B1A687B689A613B
:102C0000064B1B687A685A61044B7A681A600C3765
:102C1000BD465DF8047B7047BC6400082C7C002036
:102C200080B483B000AF7860064B00221A60064B78
:102C300000221A807B6800221A800C37BD465DF89E
:102C4000047B70472C7C0020B87E002080B58EB0BD
:102C500002AFF8607A603B600B467B8100237B62A9
:102C6000FDF7C0FA7862FB6808333B623B6A1B8958
:102C7000002B21D1FB681B6AB3F1FF3F08D1786AB2
:102C8000FDF7B4FA3B6846F6C5521A80002348E0C7
:102C900000BFFB681B6A5A1CFB681A62FB681B6A50
:102CA000FB61FB687A685A62786AFDF79FFA3B68B5
:102CB00000221A80FB6934E07B8903F40073002B47
:102CC00003D03B6A1B89FB8501E00123FB853B6A3E
:102CD0001B68BB6212E0BB6A9B68BB61BB6A5B6836
:102CE0007B617B680093F868B9690022002300F0DB
:102CF00035FD7B69BB62FB8D013BFB85FB8D002BAA
:102D0000E9D1FB681B6AFB61786AFDF76FFA7B8982
:102D10001BB2002B01DB00F0F1F93B6800221A80A6
:102D2000FB6918463037BD4680BD00BF80B483B014
:102D300000AF00237B6007E0074B7A68002143F86F
:102D400022107B6801337B607B68012BF4D90C3740
:102D5000BD465DF8047B7047C47F002080B582B01B
:102D600000AF0023FB700E4B7B6005E0FB78203347
:102D7000FB707B6804337B607B681B68002BF5D09D
:102D80007B681B681846FDF738FA0346DAB2FB7811
:102D90001344FB70FB7818460837BD4680BD00BF62
:102DA000C47F002080B487B000AF0346FB71FB797D
:102DB0005B09FB75FB7903F01F033B610123FB609B
:102DC0003B69C3F11F03FA6802FA03F3FB60FA7D63
:102DD000F97D064B53F82110FB681943034B43F868
:102DE00022101C37BD465DF8047B7047C47F00206D
:102DF00080B487B000AF0346FB71FB795B09FB75BC
:102E0000FB7903F01F033B610123FB603B69C3F1C6
:102E10001F03FA6802FA03F3FB60FA7DF97D074BA2
:102E200053F82110FB68DB431940044B43F8221090
:102E30001C37BD465DF8047B704700BFC47F00208F
:102E400080B584B000AF7860FDF7DCFE564B002201
:102E50001A70564B00221A70554B00221A70554BAF
:102E600000221A60544B00221A60544B00221A7040
:102E7000534B00221A70534B00221A70524B1B689E
:102E8000002B15D0514B1B68FB60FB68002B0FD04B
:102E90004D4B1B68BB6008E0BB68013BBB60FB6837
:102EA00000221A60FB680433FB60BB68002BF3D17F
:102EB000474B00221A60474B00221A60464B002203
:102EC0001A60464B00221A60454B00221A60454B9F
:102ED00000221A60444B00221A60444B00221A70F0
:102EE000FFF724FF00F0F0FC7868FEF731F87B680C
:102EF0001B88002B00D053E0786801F039F97B681B
:102F00001B88002B00D04BE07868FEF727FE7B681B
:102F10001B88002B00D043E0786802F08DFD7B68B1
:102F20001B88002B00D03BE0786801F04BFE7B68EB
:102F30001B88002B00D033E07868FFF771FE7B68B8
:102F40001B88002B00D02BE0786802F095FA7B6894
:102F50001B88002B00D023E0786800F0FFF97B6825
:102F60001B88002B00D01BE07868FEF721F87B68F7
:102F70001B88002B00D013E0786801F08FF87B6885
:102F80001B88002B00D00BE0786802F02FFE7B68D6
:102F90001B88002B00D003E0FFF78CFB01F048FCFE
:102FA0001037BD4680BD00BF227D0020257900205E
:102FB00014790020FC7C0020087D0020347C002057
:102FC000287C0020047D0020306500082C65000866
:102FD000307C0020147D002018790020C07E002065
:102FE000DC7E0020CC7E0020187D0020247900208B
:102FF00080B400AF094B1B78012B00D00AE0084BCE
:103000001B78F92B00D905E0054B1B780133DAB2A8
:10301000034B1A70BD465DF8047B7047257900208C
:10302000227D002080B582B000AF00237B602B4B57
:103030001B78012B00D04DE0FDF7D4F87860284BC9
:103040001B78002B03D17868FDF7D0F842E0244BC1
:103050001B78013BDAB2224B1A70214B1B78002BF4
:1030600003D07868FDF7C2F834E01E4B1B78002BC4
:1030700003D07868FDF7BAF82CE0FFF76FFE03463F
:103080001A46194B1A70184B1B781A4617491346E3
:103090005B0013449B000B441A68154B1A60144BD9
:1030A0001A68144B1B689A4203D17868FDF79EF8A2
:1030B00010E00F4B1B68D3F890200132C3F890202A
:1030C0000D4B1B685A1C0C4B1A60FDF753FA7868BD
:1030D000FDF78CF80837BD4680BD00BF257900207C
:1030E000227D002014790020287C002028790020EF
:1030F000087D0020FC7C00201C7D002080B582B073
:1031000000AF00237B601E4B1B78002B00D034E007
:103110001C4B1B78002B00D02FE0FDF763F8786084
:10312000FFF71CFE03461A46174B1A70164B1B7806
:103130001A46164913465B0013449B000B441A6859
:10314000134B1A60124B1A68124B1B689A4203D138
:103150007868FDF74BF810E00D4B1B68D3F8902012
:103160000132C3F890200C4B1B685A1C0A4B1A60A2
:10317000FDF7FCF97868FDF739F80837BD4680BDE2
:10318000227D002014790020287C0020287900204E
:10319000087D0020FC7C00201C7D002080B584B0D0
:1031A00000AF78600023FB60164B1B78002B04D027
:1031B0007B6846F662521A8020E0134B1B78012B85
:1031C00004D07B6845F689621A8017E00F4B1B78A4
:1031D000F92B04D97B6845F209221A800EE0FDF72D
:1031E00001F8F860094B1B780133DAB2074B1A700B
:1031F000F868FCF7FBFF7B6800221A801037BD4699
:1032000080BD00BF227D0020257900201479002098
:1032100080B584B000AF78600023FB601D4B1B7845
:10322000002B04D07B6846F665521A802EE01A4BBC
:103230001B78012B04D07B6845F689621A8025E053
:10324000164B1B78002B04D17B6846F664521A801B
:103250001CE0FCF7C7FFF860104B1B78013BDAB2AB
:103260000E4B1A700D4B1B78002B07D0F868FCF73B
:10327000BDFF7B6846F663521A8007E0F868FCF7EA
:10328000B5FFFFF73BFF7B6800221A801037BD4671
:1032900080BD00BF227D0020257900201479002008
:1032A00080B582B000AF7860174B1B78002B23D11C
:1032B000FFF754FD03461A46144B1A70134B1A7845
:1032C000134B1A70114B1B781A46124913465B00B8
:1032D00013449B000B441A680F4B1A600E4B1A687C
:1032E0000E4B1A60084B01221A70FDF72FF97B680C
:1032F00043F699221A8003E07B6845F68A621A80B9
:103300000837BD4680BD00BF25790020287C0020FD
:10331000347C002028790020087D0020FC7C0020DF
:1033200080B584B000AF78600023FB60FCF75AFFE3
:10333000F860084B1B685A1C064B1A60064B1B684A
:103340005A1C054B1A60F868FCF750FFFDF74EFC5D
:10335000ECE700BFD47E00202079002080B58CB03F
:103360000AAF7860104B00221A60104B1968104B9E
:103370001A68104B1B683F20009001910292039342
:103380000023049300230593002306930B23079344
:103390007B68089308480949094A002301F08AFC20
:1033A0000837BD4680BD00BFD47E00200065000800
:1033B0000465000808650008F47D0020C06400086A
:1033C0002133000880B586B000AFF860B9603B607B
:1033D0001346FB711A4B1B68FA7983F83420184B9B
:1033E0001B68002283F83520154B1B681846396886
:1033F00000F082FBBB68002B11D0BB6808337B61F7
:10340000FB68BA68DA600E4B1B681846F96801223F
:1034100000F018F87869F96800F0BCF807E0084B8C
:103420001B680022DA87064B1B6800221A63044BD4
:103430001B68B868194600F039F81837BD4680BDDA
:10344000FC7C002080B487B000AFF860B960134600
:10345000FB80FB68FA88DA87FB68BA681A63002386
:10346000FB821AE0BB6800225A60BB6800221A6027
:10347000BB6800221A61BB6800225A61BB68002247
:103480001A83BB680022DA61BB68FA689A60BB687D
:103490002033BB60FB8A0133FB82FA8AFB889A42A5
:1034A000E0D31C37BD465DF8047B704780B487B01D
:1034B00000AF786039607B68002B12D07B685A6857
:1034C0003B68C3F8BC207B6808337B617B691B6861
:1034D0003B613B699B68FB60FB681A6A7B68DA6149
:1034E00016E03B6893F83430022B02D0072B05D04E
:1034F00009E03B68094AC3F8BC2009E03B68084A78
:10350000C3F8BC2004E03B68064AC3F8BC2000BFF7
:103510001C37BD465DF8047B704700BFD4640008CB
:10352000DC640008E864000880B487B000AF78600D
:1035300039603B680D4AC3F8BC207B6808337B6167
:103540007B691B683B613B69002B07D03B699B682B
:10355000FB60FB681A6A7B68DA6102E07B68034AF9
:10356000DA611C37BD465DF8047B7047E8640008EB
:1035700080B483B000AF78607B6800221A607B68FB
:1035800000225A607B6800221A810C37BD465DF824
:10359000047B704780B489B000AF786039603B68C5
:1035A0009B68BB61BB6993F83730FB757B681B89EF
:1035B000002B0FD17B6801221A813B6800225A60E0
:1035C0003B6800221A607B683A681A607B683A6838
:1035D0005A604CE07B681B8901339AB27B681A8180
:1035E0007B681B68FB610CE0FB699B683B613B6986
:1035F00093F83730FA7D9A4200D205E0FB695B68A8
:10360000FB61FB69002BEFD1FB69002B0FD13B68FD
:1036100000225A607B685B68FB603B68FA681A604E
:10362000FB683A685A607B683A685A601FE0FB6939
:103630001B68002B0CD1FB693A681A603B680022BA
:103640001A603B68FA695A607B683A681A600EE053
:10365000FB691B68FB603B68FA681A603B68FA69A3
:103660005A60FB683A685A60FB693A681A60243706
:10367000BD465DF8047B704780B586B000AF7860CA
:103680007B681B6B3B617B68DB8FFB820FE03B69D8
:10369000DB68FB60FB680833BB60B868396900F021
:1036A00013F83B6920333B61FB8A013BFB82FB8AB9
:1036B000002BECD17B680022DA877B6800221A633A
:1036C0001837BD4680BD00BF80B485B000AF7860BC
:1036D00039607B681B89012B06D17B6800221A6048
:1036E0007B6800225A6027E03B681B68002B09D1E9
:1036F0003B685B68FB60FB6800221A607B68FA68C5
:103700001A6019E03B685B68002B09D13B681B68B5
:10371000BB60BB6800225A607B68BA685A600BE0E5
:103720003B681B68BB603B685B68FB60BB68FA6812
:103730005A60FB68BA681A607B681B89013B9AB2C1
:103740007B681A813B6800225A603B6800221A603D
:103750001437BD465DF8047B704700BF80B586B066
:1037600002AFF860B9607A607B80BB6893F836304E
:10377000072B77D801A252F823F000BF6538000864
:10378000653800089D3700089D3700086538000837
:10379000653800080138000801380008BB6893F854
:1037A0003430032B08D17B88BA690092F868B96875
:1037B0007A6800F05BF809E0BB687A68DA65BB6894
:1037C0007A88A3F86020BB68BA691A64FB68002B8A
:1037D00006D0B868FFF750FFF868B968FFF7A4FE95
:1037E000B86800F0AFF9BB68002283F83620BB68E8
:1037F000002283F83520BB68002283F8342032E0B1
:10380000BB6893F83430032B08D17B88BA690092E7
:10381000F868B9687A6800F029F809E0BB687A6846
:10382000DA65BB687A88A3F86020BB68BA691A6455
:10383000B868FDF739FDFB68002B06D0B868FFF7C4
:103840001BFFF868B968FFF76FFEBB68042283F8B6
:103850003620BB68002283F83520BB68002283F83D
:10386000342000E000BF1037BD4680BD80B487B073
:1038700000AFF860B9607A607B80BB681B6B3B610E
:10388000BB68DB8FFB8217E03B69DA68FB689A4212
:103890000CD13B69FA681A613B697A685A613B69E5
:1038A0007A881A833B693A6ADA6108E03B69203317
:1038B0003B61FB8A013BFB82FB8A002BE4D11C3776
:1038C000BD465DF8047B704780B483B000AF002331
:1038D000FB7113E0FA7913465B0013449B000B4A1B
:1038E00013443B603B6800221A813B6800221A6047
:1038F0003B6800225A60FB790133FB71FB793F2B57
:10390000E8D90C37BD465DF8047B70472879002064
:1039100080B582B000AF78607B6893F83730184686
:10392000FFF740FA7B6893F83720074B1B789A42E1
:1039300003D1786800F04AF802E0786800F006F8F1
:103940000837BD4680BD00BF347C002080B485B000
:1039500000AF78607B6893F837301A4613465B00F7
:1039600013449B00184A1344FB60FB681B89002B1F
:103970000FD1FB6801221A817B680022DA607B6824
:1039800000221A61FB687A681A60FB687A685A60DC
:1039900015E0FB681B8901339AB2FB681A81FB684A
:1039A0001A687B68DA607B6800221A61FB681B6812
:1039B000BB60BB687A681A61FB687A681A60143762
:1039C000BD465DF8047B70472879002080B485B03F
:1039D00000AF78607B6893F837301A4613465B0077
:1039E00013449B00184A1344FB60FB681B89002B9F
:1039F0000FD1FB6801221A817B680022DA607B68A4
:103A000000221A61FB687A681A60FB687A685A605B
:103A100014E0FB681B8901339AB2FB681A817B684A
:103A20000022DA60FB685B68BB607B68BA681A6179
:103A3000BB687A68DA60FB687A685A601437BD46FA
:103A40005DF8047B704700BF2879002080B586B000
:103A500000AF78607B6893F837301A4613465B00F6
:103A600013449B00234A13447B617B681B693B61C1
:103A70007B68DB68FB603B69002B1FD1FB68002B78
:103A80000FD17B6900221A817B6900221A607B6951
:103A900000225A607B6893F837301846FFF7A8F980
:103AA0001FE07B691B89013B9AB27B691A81FB6825
:103AB00000221A617B69FA681A6012E07B691B892F
:103AC000013B9AB27B691A813B69FA68DA60FB684C
:103AD000002B03D17B693A695A6002E0FB683A69BE
:103AE0001A617B6800221A617B680022DA6018374D
:103AF000BD4680BD2879002080B584B000AF7860D5
:103B000039603B68002B13D007F10E0378683968E1
:103B10000222FDF7CFFAFB89002B04D17B68032238
:103B200083F8362008E07B68022283F8362003E021
:103B30007B68022283F836207868FFF787FF10370A
:103B4000BD4680BD80B582B000AF78607868FDF773
:103B5000ABFB7B6893F8363003F00403002B02D1F3
:103B60007868FFF7D5FE0837BD4680BD80B586B0C2
:103B700000AF78600023FB60FCF734FBF8603B4B40
:103B800000221A803A4B00221A603A4B00221A6037
:103B9000394B00221A60394B00221A81F868FCF771
:103BA00025FBFCF71FFBF860354B1B687B61F86851
:103BB000FCF71CFB30E0FCF715FBF8607B6900228A
:103BC0009A677B690022C3F8A8207B690022C3F8AA
:103BD00090207B690022A3F88C207B690022A3F847
:103BE0008E207B690022C3F89C207B690022C3F8E9
:103BF000A02001F0EBFF02467B69C3F898207B69A7
:103C00006433BB60BB6800229A817B69D3F8B8300B
:103C10007B61F868FCF7EAFA7B69002BCBD1FCF7F3
:103C2000E1FAF860174B1B683B61F868FCF7DEFAB5
:103C30000EE0FCF7D7FAF8603B692033BB60BB6845
:103C400000229A813B699B693B61F868FCF7CEFAD8
:103C50003B69002BEDD1FDF76DFB02F01BF97B6892
:103C600000221A801837BD4680BD00BF027D0020AB
:103C70001C790020B47F0020107D0020E87D00200A
:103C80000C7D0020B47E002080B586B000AF786047
:103C900000233B6107F10E033248194601F062FB35
:103CA000FB89002B03D0FA897B681A8056E007F164
:103CB0000E03022000211A46FCF7AAFAFB89002B0A
:103CC00003D0FA897B681A8048E0FCF78BFA3861E8
:103CD000254B00221A603869FCF788FA00237B61C3
:103CE000224B1A68224B1B689A4206D91F4B1A684E
:103CF0001F4B1B68B2FBF3F37B617B69002B06D182
:103D00001A4B1A681B4BA3FB0213DB087B6107F1FC
:103D10000E03786900211A46FCF77AFA07F10E03C0
:103D20001048194601F060F9FB89002B03D0FA898D
:103D30007B681A8012E0FCF755FA38610E4B0022BE
:103D40001A60094B1A680D4B1A600D4B01221A704C
:103D50003869FCF74BFA7B6800221A801837BD4699
:103D600080BD00BF287D002020790020606500080C
:103D700048650008CDCCCCCC1C790020C47E002046
:103D8000297C002080B590B000AF78600023BB6133
:103D900009E0854B1B685A0007F10A031046002111
:103DA0001A46FCF735FA814B1B78012BF1D107F14C
:103DB0000A031846FFF7DAFE0023FB617C4B1A6802
:103DC000794B1B689A4206D9794B1A68764B1B6867
:103DD000B2FBF3F3FB61FB69002B06D1744B1A684D
:103DE000744BA3FB0213DB08FB6101F0EFFE78616B
:103DF000FCF7F8F9B861704B1A68704B1A606E4B9B
:103E000000221A60B869FCF7F1F96D4B1A686B4B28
:103E10001B689A424FD96A4B1A686A4B9A4205D876
:103E200042F210737B6201233B6224E0644B1A6808
:103E3000654B9A4205D84FF47A737B620A233B6242
:103E400019E05F4B1A68614B9A4204D864237B6285
:103E500064233B620FE05A4B1A685D4B9A4205D8C7
:103E60000A237B624FF47A733B6204E001237B6296
:103E700042F210733B62524B1A683B6AB2FBF3F397
:103E80003B614E4B1B687A6A02FB03F23B69B2FB53
:103E9000F3F39BB2C3F51C5310339AB24D4B1A8007
:103EA0004D4B1A884B4B1B889A4208D2494B1A88B3
:103EB000494B1A8003E0474B42F210721A80FCF71C
:103EC000BDFE0023BB63FCF78DF9B861434B1B6853
:103ED000BB62B869FCF78AF91FE0FCF783F9B861A7
:103EE000BB6AD3F89C20BB6AC3F8A020BB6A00223F
:103EF000C3F89C20B869FCF779F9BB6AD3F8A03005
:103F0000BA6B1344BB63FCF76DF9B861BB6AD3F8B5
:103F1000B830BB62B869FCF769F9BB6A002BDCD129
:103F2000BB6B002B31D0BA6B264B9A4205D842F2BC
:103F300010733B6301237B6321E0BA6B224B9A42EF
:103F400005D84FF47A733B630A237B6317E0BA6B9F
:103F50001E4B9A4204D864233B6364237B630EE0C8
:103F6000BA6B1B4B9A4205D80A233B634FF47A7312
:103F70007B6304E001233B6342F210737B63BA6B03
:103F80007B6BB2FBF3F3FB6203E000233B63012393
:103F9000FB62FCF727F9B861104B1B68BB62B8697C
:103FA000FCF724F951E000BF48650008297C002097
:103FB00060650008CDCCCCCC20790020D87E0020D4
:103FC000C47E00207F1A0600FF083D00FF596202F0
:103FD000FF83D717207D0020027D00200C7D00206C
:103FE000BB6AD3F8A0303A6B02FB03F2FB6AB2FB68
:103FF000F3F3FB87FA8F42F210739A4202D942F22E
:104000001073FB87BB6AFA8FA3F88C20BB6AB3F8E6
:104010008E30FA8F9A4203D9BB6AFA8FA3F88E20AA
:10402000BB6A03F1B001BB6A03F1AC0207F10A03FA
:10403000B86A01F01FF9FCF7D5F8B861BB6AD3F88C
:10404000B830BB62B869FCF7D1F8BB6A002BC7D1A6
:10405000104B1B78012B07D10E4B00221A7007F171
:104060000A031846FFF782FD01F0B0FD02467B69A6
:10407000D31AFB60084B1A68FB689A4202D2064BBF
:10408000FA681A6007F10A03F86900211A46FCF77A
:10409000BFF8AAE6E87E00201C79002080B58CB02D
:1040A0000AAF7860254B00221A60254B00221A6067
:1040B000244B00221A60244B00221A70234B00224A
:1040C0001A70234B1B68002B04D17B6846F62B62C9
:1040D0001A802FE01F4B1A681F4B1B689A4204D2AC
:1040E0007B6846F62C621A8024E01C4B1B783E2B22
:1040F00004D97B6846F62A621A801BE0174B1878B1
:10410000134B1968164B1A68124B1B6800900191EB
:104110000292039300230493002305930023069344
:10412000032307937B6808930E480F490F4A002327
:1041300000F0C0FD0837BD4680BD00BF20790020DB
:10414000D87E0020C47E0020297C0020E87E00204C
:104150004C650008546500085C650008446500086B
:1041600050650008F07E0020EC640008853D0008E2
:1041700080B483B000AF7860064B00221A60064B13
:1041800000221A807B6800221A800C37BD465DF839
:10419000047B7047BC7E0020EA7E002080B483B0A0
:1041A00000AF78607B68922B00F2608101A252F828
:1041B00023F000BF01440008014400080144000846
:1041C00001440008014400080144000801440008BB
:1041D00001440008014400086D4400086D440008D3
:1041E0006D440008014400086D4400086D44000857
:1041F0006D4400086D4400086D4400080144000847
:104200006D4400080144000801440008014400080E
:104210006D4400086D440008014400080144000892
:10422000014400080144000801440008014400085A
:104230006D440008154400086D4400086D440008F2
:104240006D44000815440008154400081544000892
:10425000154400086D4400086D4400086D440008D2
:104260006D4400086D4400086D4400086D4400086A
:104270006D4400086D4400086D4400086D4400085A
:104280006D4400086D4400086D4400086D4400084A
:104290006D4400086D4400086D4400086D4400083A
:1042A0006D4400086D4400086D4400086D4400082A
:1042B0006D4400082B4400086D4400086D4400085C
:1042C0006D4400086D4400086D4400086D4400080A
:1042D0006D4400086D4400086D4400086D440008FA
:1042E0006D4400086D4400086D4400086D440008EA
:1042F0006D4400086D4400086D4400086D440008DA
:104300006D4400086D4400086D4400086D440008C9
:104310006D4400086D4400086D4400086D440008B9
:104320006D4400086D4400086D4400086D440008A9
:104330006D4400084144000841440008414400081D
:104340004144000841440008414400084144000839
:1043500041440008414400086D4400086D440008D1
:10436000414400086D4400086D44000841440008C1
:10437000414400086D4400084144000841440008DD
:1043800041440008414400084144000841440008F9
:10439000414400086D4400084144000841440008BD
:1043A0006D44000841440008414400086D44000881
:1043B0006D44000857440008574400086D44000845
:1043C0006D44000857440008574400086D44000835
:1043D0006D4400085744000857440008574400083B
:1043E00057440008574400086D440008574400082B
:1043F0006D4400085744000857440008574400081B
:104400001D4B1D4A11687A68012000FA02F20A4326
:104410001A602BE0194B194A11687A68203A01207A
:1044200000FA02F20A431A6020E0154B144A1168A0
:104430007A68403A012000FA02F20A431A6015E055
:10444000104B104A11687A68603A012000FA02F2B3
:104450000A431A600AE00C4B0B4A11687A68803AEA
:10446000012000FA02F20A431A6000BF0C37BD4671
:104470005DF8047B704700BF30380240343802409A
:1044800038380240403802404438024080B487B097
:1044900000AF7860396000237B6100233B6100231B
:1044A000FB6000237B6176E07B69012202FA03F363
:1044B0003B613B681A683B691340FB60FA683B69E3
:1044C0009A4265D17B681A687B695B00032101FA17
:1044D00003F3DB431A407B681A607B681A683B6809
:1044E0001B7919467B695B0001FA03F31A437B6869
:1044F0001A603B681B79012B03D03B681B79022BA8
:104500002ED17B689A687B695B00032101FA03F373
:10451000DB431A407B689A607B689A683B685B79EA
:1045200019467B695B0001FA03F31A437B689A60C2
:104530007B685A687B699BB2012101FA03F3DB4374
:104540001A407B685A607B685A683B689B791946B9
:104550007B699BB201FA03F39BB21A437B685A60F2
:104560007B68DA687B699BB25B00032101FA03F385
:10457000DB431A407B68DA607B68DA683B68DB798A
:1045800019467B695B0001FA03F31A437B68DA6022
:104590007B6901337B617B690F2B85D91C37BD4655
:1045A0005DF8047B704700BF80B485B000AF7860D1
:1045B0000B467B800023FB737B681A697B88134062
:1045C000002B02D00123FB7301E00023FB73FB7B74
:1045D00018461437BD465DF8047B704780B483B03D
:1045E00000AF78600B467B807B687A881A830C3733
:1045F000BD465DF8047B704780B483B000AF78603F
:104600000B467B807B687A885A830C37BD465DF801
:10461000047B704780B483B000AF7860044B7A6845
:10462000D2B21A700C37BD465DF8047B704700BFEC
:10463000003C024080B483B000AF0346FB71FB79BD
:10464000002B06D0084B084A126842F480721A60A8
:1046500005E0054B044A126822F480721A600C3798
:10466000BD465DF8047B7047003C024080B500AF5A
:10467000012000F001F880BD80B584B000AF786003
:104680000023FB60FBF7AEFDF860044B7A681A600C
:10469000F868FBF7ABFD1037BD4680BDCC7F00202E
:1046A00080B500AF154B154AD2F8882042F470024D
:1046B000C3F88820124B124A126842F001021A60B5
:1046C0000F4B00229A600E4A0D4B1B6823F0847337
:1046D00023F4803313600A4B0A4A5A60084B084A95
:1046E000126822F480221A60054B0022DA6000F082
:1046F0000BF8024B4FF000629A6080BD00ED00E0C5
:10470000003802401030002480B483B000AF002392
:104710007B6000233B60414B404A126842F4803288
:104720001A603E4B1B6803F400333B607B68013327
:104730007B603B68002B03D17B68B3F5A04FF0D1C1
:10474000364B1B6803F40033002B02D001233B607F
:1047500001E000233B603B68012B42D12F4B2F4AE5
:10476000126C42F080521A642D4B2D4A126842F4AA
:1047700040421A60294B294A92689A60274B274A7F
:10478000926842F400429A60244B244A926842F4B0
:10479000A0529A60214B234A5A60204B1F4A12684C
:1047A00042F080721A6000BF1C4B1B6803F000735C
:1047B000002BF9D01C4B40F205621A60174B174AC8
:1047C000926822F003029A60144B144A926842F0F5
:1047D00002029A6000BF114B9B6803F00C03082B88
:1047E000F9D10E4B0D4A926822F400029A600B4BED
:1047F0000E4AC3F88420094B084A126842F08062CE
:104800001A6000BF054B1B6803F00063002BF9D052
:104810000C37BD465DF8047B704700BF003802408E
:104820000070004008544007003C024080400030C7
:1048300080B400AFBD465DF8047B704780B586B09C
:1048400000AFF860B9603B601346FB8000237B61DA
:10485000204B1B78002B04D03B6842F6E1621A80A3
:1048600034E0FB68002B04D13B6845F6C3521A8044
:104870002CE0FB88002B04D13B6846F294521A804E
:1048800024E0FBF7AFFC7861FB68134A1A60FB6811
:10489000BA685A60FB6803F12002FB88104619468B
:1048A000FDF700FAFB6808331846FEF761FEF8686A
:1048B00000F062F9094B1B8801339AB2074B1A804A
:1048C0007869FBF793FC3B6800221A801837BD46D5
:1048D00080BD00BF227D002051554555007D002040
:1048E00080B58EB000AFF860B9603B601346FB80C6
:1048F00000233B63724B1B78002B05D07B6C46F288
:10490000AE121A800023D7E0FB68002B05D17B6C28
:1049100045F6C3521A800023CEE03B68002B05D138
:104920007B6C46F2D5221A800023C5E0FB88002B61
:1049300008D0B3F5004F05D07B6C45F625621A8090
:104940000023B9E000BFFB681A685E4B9A4205D0AD
:104950007B6C45F6C4521A800023ADE03B6C002B03
:1049600002D03B6C00221A60FBF73CFC3863FB680A
:104970002033184639683A6C7B6CFDF7ADF97863E3
:104980007B6C1B88002B04D1386BFBF72FFC7B6BF7
:1049900092E0FB881BB2002B08DA386BFBF726FC91
:1049A0007B6C46F2B0121A80002385E0464B1B78E0
:1049B000002B08D0386BFBF719FC7B6C46F6635272
:1049C0001A80002378E007F110031846F9680522E1
:1049D000BB68FEF7F7FC386BFBF708FCFEF78EFBB5
:1049E000FBF700FC3863394B1B6893F83530032B19
:1049F00054D801A252F823F0094A0008354A0008A9
:104A0000794A0008594A0008304B1B68DB6D7B630C
:104A10002E4B1B68B3F860203B681A803B6C002B60
:104A200004D02A4B1B681A6C3B6C1A607B6C00220A
:104A30001A803DE000237B633B6800221A803B6CB8
:104A4000002B04D0214B1B681A6C3B6C1A607B6CEA
:104A500046F2A9121A802BE000237B633B680022F8
:104A60001A803B6C002B02D03B6C00221A607B6CDE
:104A700047F2D9221A801BE000237B633B680022A7
:104A80001A803B6C002B04D0104B1B681A6C3B6CDB
:104A90001A607B6C45F6C2521A8009E000237B63E2
:104AA0003B6800221A807B6C46F62E621A8000BF9B
:104AB000386BFBF79BFB7B6B18463837BD4680BDD8
:104AC000227D00205155455514790020FC7C0020A2
:104AD00080B588B002AFF860B960FA80BB80FB682F
:104AE000002B04D13B6A45F6C3521A803EE0BB88D6
:104AF000B3F5047F22D0B3F5047F07DC102B1DD063
:104B0000B3F5007F1AD0002B18D012E048F2100243
:104B1000934213D048F21002934203DCB3F5004FE6
:104B20000CD006E0B3F5024F08D048F210229342B1
:104B300004D03B6A45F625621A8017E000BFFB6887
:104B40001A680C4B9A4204D03B6A45F6C4521A804C
:104B50000CE001F03BF87861FA88BB887969009134
:104B6000396A0191F868B96800F042F81837BD4613
:104B700080BD00BF5155455580B483B000AF78600B
:104B80007B680E4ADA617B6800225A610C4B1B6815
:104B9000002B03D17B6800229A6107E0084B1A685A
:104BA0007B689A61064B1B687A685A61044B7A6885
:104BB0001A600C37BD465DF8047B7047A865000895
:104BC000B47E002080B483B000AF7860064B002232
:104BD0001A60064B00221A807B6800221A800C376C
:104BE000BD465DF8047B7047B47E0020007D002048
:104BF00080B58CB002AFF860B960FA80BB8000234A
:104C0000FB61FBF7EFFAF861FB680833BB61BB6936
:104C10001B89002B1AD1BB8803F01003002B02D193
:104C20000023BB8401E01023BB84FB6803F1200157
:104C3000FA88BB8C386B0090786B01900846B96895
:104C4000FDF7AAF8F869FBF7D1FA30E0BB8803F466
:104C50000073002B03D0BB691B89FB8401E0012397
:104C6000FB84BB691B683B6212E03B6A9B687B610B
:104C70003B6A5B683B61FB883A6B0092F868796934
:104C8000BA68FEF76BFD3B693B62FB8C013BFB8422
:104C9000FB8C002BE9D1F869FBF7A8FABB881BB2A3
:104CA000002B01DBFEF72AFA7B6B00221A802837E3
:104CB000BD4680BD80B58CB002AFF860B9607A6047
:104CC0003B600023BB61744B1B78002B04D03B6D11
:104CD00047F24A121A80DCE0FB68002B04D13B6DDE
:104CE00047F2AD121A80D4E07B68002B04D13B6DF3
:104CF00047F24F121A80CCE07B6B002B04D13B6D46
:104D000046F62F621A80C4E0644B1B68FA6B9A4225
:104D100004D23B6D46F630621A80BAE0BA6BFB6B88
:104D20009A4204D33B6D46F631621A80B1E097F89F
:104D300030303F2B04D93B6D46F273221A80A8E035
:104D400097F830303F2B08D1FA68554B9A4204D07F
:104D50003B6D46F273221A809BE0F86800F0A8FBD6
:104D60003B6D00221A80B7F84C3003F00103002B92
:104D700017D0B7F84C3003F00203002B11D07B6B37
:104D8000FB6100237B6208E0FB6900221A60FB697B
:104D90000433FB617B6A01337B627A6AFB6B9A4264
:104DA000F2D3BB6B9B007A6B13447B61FB6B00936C
:104DB000B7F84C300193786839687A6B7B69FBF7F8
:104DC0007FFFF861FB687A689A62FB683A68DA628A
:104DD000FB68BA681A62FB6897F8302083F83720BE
:104DE000FB68FA691A60FB687A699A60FB687A6CFA
:104DF0005A65FB68BA6C5A60FB687A6B5A62FB684A
:104E0000FA6B9A63FB68B7F84C209A87002387F8FF
:104E100023300CE097F82330FA681E339B001344CC
:104E200000225A6097F82330013387F8233097F82F
:104E30002330002BEED0FB6803F16402B7F840305A
:104E400010461946FCF72EFFF868FBF703FFFBF747
:104E5000C9F9B861FB6893F837301846FDF7A2FF2F
:104E6000F868FEF7B3FDF86800F09EFA0D4B1B885A
:104E700001339AB20B4B1A800B4B1B78012B03D0DA
:104E8000B869FBF7B3F904E0B869FBF7AFF9FEF7CF
:104E900035F92837BD4680BD227D00205C650008BD
:104EA000F47D0020247D00202579002080B584B089
:104EB00000AF786039600023FB60474B1B78002B04
:104EC00004D03B6847F24E121A8082E07A68434B66
:104ED0009A4204D13B6847F24C121A8079E07B6811
:104EE000002B08D1FBF77EF9F8603D4B1B687B6017
:104EF000F868FBF77BF9FBF775F9F8607B6893F8C6
:104F00003630072B3CD801A252F823F02D4F000871
:104F1000354F00083D4F00083D4F0008914F0008F5
:104F2000354F00083D4F00083D4F00087868FEF7F8
:104F30008DFD2EE07868FCF7B7F92AE07868FCF779
:104F4000B3F97B6893F83430072B17D801A252F8D5
:104F500023F000BF7D4F0008754F00087D4F00080B
:104F6000754F0008754F0008754F0008754F000811
:104F70007D4F00087868FEF77FFB00E000BF08E087
:104F8000F868FBF733F93B6846F62D621A8020E09B
:104F900000BF7B6864331846FCF748FE7868FBF76F
:104FA0006BFE786800F026FA0E4B1B88013B9AB224
:104FB0000C4B1A80786800F07BFA7B68FF2283F83C
:104FC0003620F868FBF712F93B6800221A80FEF7DA
:104FD00095F81037BD4680BD227D0020F47D00206D
:104FE000FC7C0020247D002080B584B000AF786078
:104FF00039600023FB60134B1B78002B04D03B6807
:1050000047F255121A8019E0FBF7ECF8F8607B685C
:10501000002B04D00C4B1B687A689A4207D1F868C1
:10502000FBF7E4F83B6847F257121A8006E0F8688D
:10503000FBF7DCF87868396800F006FB1037BD46EE
:1050400080BD00BF227D0020FC7C002090B587B091
:1050500000AFF8607A603B600B467B8100237B6188
:105060006F4B1B78002B05D03B6846F2AE121A80BE
:105070000023D0E07B89002B08D0B3F5004F05D08A
:105080003B6845F625621A800023C4E000BF7B68B8
:10509000002B02D07B6800221A60FBF7A3F878612E
:1050A000604B1B685B6C002B35D05E4B1B685A6CE9
:1050B000013A5A645B4B1B685B6C3B617B68002B5D
:1050C00004D0584B1B681A6C7B681A60554B1C68DF
:1050D00000F07CFD0246534B1B681B6CD31AC4F8CE
:1050E000A430504B1B68D3F8A8204E4B1B68D3F854
:1050F000A4309A4207D24B4B1B684A4A1268D2F836
:10510000A420C3F8A8207869FBF770F83B68002258
:105110001A803B697FE07B891BB2002B08DA786933
:10512000FBF764F83B6846F2B0121A80002372E085
:105130003D4B1B78002B08D07869FBF757F83B688C
:1051400046F663521A80002365E000200021072202
:10515000FB68FEF737F97869FBF748F8FDF7CEFFF3
:10516000FBF740F878612F4B1B6893F83530012B23
:105170002CD0032B37D0002B40D17B68002B21D0C3
:10518000284B1B681A6C7B681A60264B1C6800F061
:105190001DFD0246234B1B681B6CD31AC4F8A430B8
:1051A000204B1B68D3F8A8201E4B1B68D3F8A430F3
:1051B0009A4207D21B4B1B681A4A1268D2F8A420E5
:1051C000C3F8A8203B6800221A801CE07B68002BF3
:1051D00004D0144B1B681A6C7B681A603B6846F25B
:1051E000A9121A800FE07B68002B02D07B68002296
:1051F0001A603B6847F2D9221A8004E03B6846F601
:105200002E621A8000BF074B1B685B6C3B6178699C
:10521000FAF7ECFF3B6918461C37BD4690BD00BF4E
:10522000227D0020FC7C00201479002080B586B00F
:1052300000AFF8600B467A607B817B89002B08D039
:10524000B3F5004F05D07B6845F625621A80002330
:105250000CE000BF00F0BAFC78617B89F868194661
:105260007A697B6800F094FA38613B691846183710
:10527000BD4680BD80B588B000AFF860B9607A6087
:105280003B6000237B61354B1B78002B04D03B68CF
:1052900047F259121A805DE0BB68002B04D13B68CD
:1052A00046F2D5221A8055E07B68002B04D13B687A
:1052B00046F2D5221A804DE0FAF794FF7861FB6838
:1052C000002B02D1264B1B68FB60FB681B68002B80
:1052D0000DD17869FAF78AFFBB6800221A607B68F3
:1052E00000221A603B6847F252121A8032E0FB68D3
:1052F0009B8F03F00103002B0DD17869FAF776FF3D
:10530000BB6800221A607B6800221A603B6847F283
:1053100054121A801EE07869FAF768FF0023FB61D7
:10532000FB685B6ABB6105E0BB690433BB61FB6979
:105330000133FB61BB691B68002BF5D0BB68FA69C0
:105340001A60FB689A6BFB69D21A7B681A603B682B
:1053500000221A802037BD4680BD00BF227D00207C
:10536000FC7C002080B582B000AF786039600C4BC7
:105370001B78002B04D03B6847F25D121A800CE0CA
:105380007A68084B9A4204D13B6847F25B121A8054
:1053900003E07868396800F08FFA0837BD4680BDB1
:1053A000227D0020F47D002080B483B000AF7860BF
:1053B0007B680022C3F8B4200D4B1B68002B04D17E
:1053C0007B680022C3F8B82009E0094B1A687B68A3
:1053D000C3F8B820064B1B687A68C3F8B420044BA6
:1053E0007A681A600C37BD465DF8047B704700BFD1
:1053F0000C7D002080B485B000AF78607B68D3F866
:10540000B430FB607B68D3F8B830BB60FB68002B1E
:105410000ED1184BBA681A60BB68002B03D0BB686A
:105420000022C3F8B4207B680022C3F8B8201BE038
:10543000BB68002B08D1FB680022C3F8B8207B684A
:105440000022C3F8B4200FE0FB68BA68C3F8B820A4
:10545000BB68FA68C3F8B4207B680022C3F8B820A0
:105460007B680022C3F8B4201437BD465DF8047B86
:10547000704700BF0C7D002080B483B000AF78601F
:10548000084B00221A60084B00221A80074B0022AA
:105490001A607B6800221A800C37BD465DF8047BD9
:1054A000704700BF0C7D0020247D00201C7D002063
:1054B00080B584B000AF78607B6800221A607B689A
:1054C00000229A607B6800225A607B680022DA60C2
:1054D0007B6800221A617B6800225A617B68002287
:1054E0009A617B680022DA617B68554A1A627B68A0
:1054F00000225A627B6800229A627B680022DA628C
:105500007B6800221A637B680022DA877B680022AE
:105510001A647B680022DA657B680022A3F86020A9
:105520007B68643318460021FCF7BCFB7B680022D3
:105530005A677B6800229A677B680022C3F8802044
:105540007B680022A3F888207B680022C3F88420AF
:105550000023FB7309E0FB7B7A681E339B00134436
:1055600000225A60FB7B0133FB73FB7B002BF2D0E4
:105570007B6800225A647B680022C3F8A4207B6801
:105580000022C3F8A8207B6800229A637B6800226F
:1055900083F88A207B680022C3F8B0207B68002251
:1055A000C3F8AC207B6800229A877B684FF00042EA
:1055B0009A647B680022DA647B6800221A657B6843
:1055C00000225A657B6800229A657B680022A3F856
:1055D0008C207B680022A3F88E207B680022C3F811
:1055E00090207B680022C3F8942000F0EFFAB860A6
:1055F0007B68BA68C3F898207B680022C3F89C20B7
:105600007B68002283F834207B68002283F83520F1
:105610007B68002283F836207B68402283F837209D
:105620007B680022C3F8B4207B680022C3F8B8204E
:105630007B68044AC3F8BC201037BD4680BD00BF5C
:10564000AC650008B465000880B584B000AF786030
:1056500039600023FB60FAF7C5FDF8603B68002263
:105660001A807B6893F83630072B72D801A252F863
:1056700023F000BF9556000895560008955600087F
:1056800095560008A5560008D5560008FF56000894
:1056900029570008F868FAF7A9FD3B6847F253124A
:1056A0001A805EE07B6893F88A30013BDAB27B684F
:1056B00083F88A207B6893F88A30002B06D17B68B8
:1056C000002283F836207868FEF73CFAF868FAF78B
:1056D0008DFD46E07B6893F88A30013BDAB27B6847
:1056E00083F88A207B6893F88A30002B03D17B688B
:1056F000012283F83620F868FAF778FD31E07B68FC
:1057000093F88A30013BDAB27B6883F88A207B68A1
:1057100093F88A30002B03D17B68022283F836206D
:10572000F868FAF763FD1CE07B6893F88A30013B68
:10573000DAB27B6883F88A207B6893F88A30002B82
:1057400003D17B68032283F83620F868FAF74EFD10
:1057500007E0F868FAF74AFD3B6846F62D621A80C2
:1057600001E0FDF7CBFC1037BD4680BD80B582B0AF
:1057700000AF064B1B681846FBF790FABB1D0020D4
:105780001946FFF793FB0837BD4680BDFC7C00201F
:1057900080B588B002AFF8607A603B600B467B81D1
:1057A00000233B61FAF71EFD3861FB68002B02D134
:1057B000404B1B68FB60FB687A681A643B680022F8
:1057C0001A80FB6893F83630072B64D801A252F890
:1057D00023F000BFF5570008F55700082B580008C4
:1057E0002B580008F5570008F55700082B580008FB
:1057F0002B580008FB685B6CB3F1FF3F08D1386998
:10580000FAF7F4FC3B6846F6C5521A8000234DE0D7
:1058100000BFFB685B6C5A1CFB685A64FB685B6CDE
:105820007B613869FAF7E2FC3FE0FB6893F83430BB
:10583000072B14D17B6800930020F9680022002315
:10584000FDF78CFFFB685B6C7B613869FAF7CEFC77
:105850007B891BB2002B1DDBFDF750FC25E0FB68AC
:105860005B6CB3F1FF3F08D13869FAF7BFFC3B68C6
:1058700046F6C5521A80002318E000BFFB685B6C37
:105880005A1CFB685A64FB685B6C7B613869FAF7E9
:10589000ADFC0AE009E03869FAF7A8FC3B6846F677
:1058A0002D621A8000237B6100BF7B691846183780
:1058B000BD4680BDFC7C002080B584B000AF786020
:1058C00039600023FB60FAF78DFCF8607B68002BE1
:1058D00002D13D4B1B687B603B4B1B687A689A4248
:1058E0000BD13A4B1B78002B07D0F868FAF77EFCF7
:1058F0003B6846F663521A8063E03B6800221A80D8
:105900007B6893F83630072B51D801A252F823F068
:10591000315900084F590008675900087F5900089D
:105920009759000897590008975900089759000897
:105930007B68042283F836207B68012283F88A2062
:105940007868FEF783F8F868FAF750FC37E07B6870
:10595000052283F836207B68012283F88A20F868C4
:10596000FAF744FC2BE07B68062283F836207B683C
:10597000012283F88A20F868FAF738FC1FE07B6878
:10598000072283F836207B68012283F88A20F86892
:10599000FAF72CFC13E07B6893F88A300133DAB213
:1059A0007B6883F88A20F868FAF720FC07E0F8683B
:1059B000FAF71CFC3B6846F62D621A8001E0FDF701
:1059C0009DFB1037BD4680BDFC7C00201479002073
:1059D000002100F004B80D4B5B58435004310C48D3
:1059E0000C4B42189A42FFF4F6AF0B4A00F003B892
:1059F000002342F8043B094B9A42FFF4F9AFFEF74B
:105A00004FFE00F037FBFCF74DFA7047E0650008E9
:105A100000000020480400204804002018930020C3
:105A2000FFF7FEBFFFF7FEBFFFF7FEBFFFF7FEBFAA
:105A3000FFF7FEBFFFF7FEBF80B483B000AF786012
:105A4000064B00221A60064B00221A807B68002257
:105A50001A800C37BD465DF8047B7047BC7F002080
:105A6000EC7E002080B582B002AFFAF7DDFDFCF7D6
:105A7000FFFB0120FCF734FCFCF744FC0020FCF7A2
:105A8000C3FC4FF48050FCF7F7FC4FF4A050FCF738
:105A9000D7FC072300934FF4800019214FF4A8721C
:105AA0000223FCF757FC0120FCF772FC00BF3920F1
:105AB000FCF7C6FD0346002BF9D00520FEF7AAFD32
:105AC0000120FEF7B7FD0220FCF772FC00BFFCF7D7
:105AD0008BFC0346082BFAD100F022F8BD4680BDAE
