:020000040800F2
:100000000000022099650008E8650008EC6500081A
:10001000F0650008F4650008F8650008FC65000854
:10002000FC650008FC650008FC650008FC6500082C
:10003000FC650008FC6500087D050008550E0008F9
:1000400055060008610600086D06000879060008DC
:1000500085060008910600089D060008A90600080C
:10006000B5060008C1060008CD060008D90600083C
:10007000E5060008F1060008FD060008090700086B
:1000800015070008210700082D0700083907000898
:1000900045070008510700085D07000869070008C8
:1000A00075070008810700088D07000899070008F8
:1000B000A5070008B1070008BD070008C907000828
:1000C000D5070008E1070008ED070008F907000858
:1000D00005080008110800081D0800082908000884
:1000E00035080008410800084D08000859080008B4
:1000F00065080008710800087D08000889080008E4
:1001000095080008A1080008AD080008B908000813
:10011000C5080008D1080008DD080008E908000843
:10012000F5080008010900080D0900081909000870
:1001300025090008310900083D090008490900089F
:1001400055090008610900086D09000879090008CF
:1001500085090008910900089D090008A9090008FF
:10016000B5090008C1090008CD090008D90900082F
:10017000E5090008F1090008FD090008090A00085E
:10018000150A0008210A000810B5054C237833B978
:10019000044B13B10448AFF300800123237010BD5A
:1001A0004804002000000000DC71000808B5064B80
:1001B0001BB106480649AFF300800648036813B137
:1001C000054B03B1984708BD00000000DC71000832
:1001D0004C040020440400200000000072B6704768
:1001E00062B67047EFF3108072B6704780F31088E4
:1001F000704730BF704720BF7047B0FA80F070473B
:1002000090FAA0F0B0FA80F0704790FAA0F0704732
:1002100080B586B000AFF8600B467A607B81002322
:100220007B61314B1B78002B04D07B6847F2752231
:100230001A8056E02D4B1B78002B04D07B6846F6C5
:1002400063521A804DE07B89082B1ED801A252F818
:1002500023F000BF790200088B0200087902000831
:100260008B020008950200088B0200088B02000830
:100270008B02000879020008FB68002B04D17B6820
:1002800047F27E221A802CE005E07B6845F6256265
:100290001A8026E000BFFFF7A5FF7861144B1B68AA
:1002A000012283F83620124B1A687B891046F968C0
:1002B0001A467B6801F094FB7B681B88002B03D0F7
:1002C0007869FFF793FF0CE0094B1B68184604F0B0
:1002D000A1F97869FFF78AFF03F0F4FC7B6800223C
:1002E0001A801837BD4680BD0A800020FC7B0020A4
:1002F000E47F002080B588B000AF7B600346FB81BF
:100300000B46BB8113467B810023FB61754B1B7839
:10031000002B04D0FB6A47F275221A80DEE0724B94
:100320001B78002B04D0FB6A46F663521A80D5E096
:100330003B8D03F00E037B837B8B082B26D801A01B
:1003400050F823F0690300088D03000869030008D2
:100350008D030008970300088D0300088D03000833
:100360008D030008690300087B68002B0DD17B8991
:10037000002B0AD1BB89002B07D1FB89002B04D1AC
:10038000FB6A47F27E221A80A8E005E0FB6A45F688
:1003900025621A80A2E000BF3B8D23F01E03002BD4
:1003A0000CBF00230123DBB27B767B7E012B04D1C3
:1003B000FB6A45F625621A8090E03B8D03F010033E
:1003C000002B01D0012300E000233B763B7E012B74
:1003D00020D07B68B3F57A7F04D3FB6A47F27B2297
:1003E0001A807BE07B893B2B04D9FB6A47F27A2297
:1003F0001A8073E0BB893B2B04D9FB6A47F2792250
:100400001A806BE0FB89632B17D9FB6A47F27822CD
:100410001A8063E0BA8942F20F739A4204D9FB6AE8
:1004200047F279221A8059E0FB89B3F57A7F04D329
:10043000FB6A47F278221A8050E02C4B1B687B61E4
:10044000FB894FF4616202FB03F1BA8913461B0179
:100450009B1A9B00CA187B8913447A6902FB03F23A
:100460004FF4FA717B69B1FBF3F17B680B44796956
:1004700001FB03F11E4BA3FB01039B0913443B61EA
:100480003B69002B26D0FFF7ADFEF861194B1B68C6
:10049000012283F83620174B1A687B8B1046396986
:1004A0001A46FB6A01F09CFAFB6A1B88002B03D0FA
:1004B000F869FFF79BFE11E00E4B1B68184604F02D
:1004C000A9F8F869FFF792FE03F0FCFBFB6A002233
:1004D0001A8003E0FB6A47F27E221A802037BD466D
:1004E00080BD00BF0A800020FC7B00205C710008FA
:1004F000D34D6210E47F002080B582B000AF00F0E1
:100500009DFCBB1D0D4800211A4605F073FC0C4BE9
:100510001B685A1E0A4B1A60094B1B68002B09D135
:10052000084B1A68064B1A60BB1D074800211A4683
:1005300005F060FC0837BD4680BD00BF207F00206D
:10054000A8820020A0820020108000201C481D49A5
:100550000170002080F309881B48016881F3088836
:100560001A481B49016062B6FFF7FEBF17481849D9
:1005700001607047154816490160704772B6EFF385
:10058000098028B1203880E8F00F12490968086016
:1005900000B5114880475DF804EB104810490A780F
:1005A00002700C480F490A680260106890E8F00F6A
:1005B000203080F309884EF0040E62B670470000C8
:1005C00022ED00E0FF000000B866002004ED00E02E
:1005D00000000010E47F0020CD0D00081C7F0020EB
:1005E000107F0020F07F002080B500AFFFF7F6FD00
:1005F00080BD00BF80B584B000AF78603960002353
:10060000FB607B68512B0AD8FFF7ECFDF860054BC7
:100610007A68396843F82210F868FFF7E7FD103769
:10062000BD4680BD6404002080B582B000AF0023C9
:100630007B6006E078680649FFF7DCFF7B680133E2
:100640007B607B68512BF5D90837BD4680BD00BF64
:10065000710A000880B500AF002000F0E7F980BD06
:1006600080B500AF012000F0E1F980BD80B500AF9A
:10067000022000F0DBF980BD80B500AF032000F060
:10068000D5F980BD80B500AF042000F0CFF980BD62
:1006900080B500AF052000F0C9F980BD80B500AF7E
:1006A000062000F0C3F980BD80B500AF072000F040
:1006B000BDF980BD80B500AF082000F0B7F980BD5E
:1006C00080B500AF092000F0B1F980BD80B500AF62
:1006D0000A2000F0ABF980BD80B500AF0B2000F020
:1006E000A5F980BD80B500AF0C2000F09FF980BD5A
:1006F00080B500AF0D2000F099F980BD80B500AF46
:100700000E2000F093F980BD80B500AF0F2000F0FF
:100710008DF980BD80B500AF102000F087F980BD55
:1007200080B500AF112000F081F980BD80B500AF29
:10073000122000F07BF980BD80B500AF132000F0DF
:1007400075F980BD80B500AF142000F06FF980BD51
:1007500080B500AF152000F069F980BD80B500AF0D
:10076000162000F063F980BD80B500AF172000F0BF
:100770005DF980BD80B500AF182000F057F980BD4D
:1007800080B500AF192000F051F980BD80B500AFF1
:100790001A2000F04BF980BD80B500AF1B2000F09F
:1007A00045F980BD80B500AF1C2000F03FF980BD49
:1007B00080B500AF1D2000F039F980BD80B500AFD5
:1007C0001E2000F033F980BD80B500AF1F2000F07F
:1007D0002DF980BD80B500AF202000F027F980BD45
:1007E00080B500AF212000F021F980BD80B500AFB9
:1007F000222000F01BF980BD80B500AF232000F05F
:1008000015F980BD80B500AF242000F00FF980BD40
:1008100080B500AF252000F009F980BD80B500AF9C
:10082000262000F003F980BD80B500AF272000F03E
:10083000FDF880BD80B500AF282000F0F7F880BD3E
:1008400080B500AF292000F0F1F880BD80B500AF81
:100850002A2000F0EBF880BD80B500AF2B2000F01F
:10086000E5F880BD80B500AF2C2000F0DFF880BD3A
:1008700080B500AF2D2000F0D9F880BD80B500AF65
:100880002E2000F0D3F880BD80B500AF2F2000F0FF
:10089000CDF880BD80B500AF302000F0C7F880BD36
:1008A00080B500AF312000F0C1F880BD80B500AF49
:1008B000322000F0BBF880BD80B500AF332000F0DF
:1008C000B5F880BD80B500AF342000F0AFF880BD32
:1008D00080B500AF352000F0A9F880BD80B500AF2D
:1008E000362000F0A3F880BD80B500AF372000F0BF
:1008F0009DF880BD80B500AF382000F097F880BD2E
:1009000080B500AF392000F091F880BD80B500AF10
:100910003A2000F08BF880BD80B500AF3B2000F09E
:1009200085F880BD80B500AF3C2000F07FF880BD29
:1009300080B500AF3D2000F079F880BD80B500AFF4
:100940003E2000F073F880BD80B500AF3F2000F07E
:100950006DF880BD80B500AF402000F067F880BD25
:1009600080B500AF412000F061F880BD80B500AFD8
:10097000422000F05BF880BD80B500AF432000F05E
:1009800055F880BD80B500AF442000F04FF880BD21
:1009900080B500AF452000F049F880BD80B500AFBC
:1009A000462000F043F880BD80B500AF472000F03E
:1009B0003DF880BD80B500AF482000F037F880BD1D
:1009C00080B500AF492000F031F880BD80B500AFA0
:1009D0004A2000F02BF880BD80B500AF4B2000F01E
:1009E00025F880BD80B500AF4C2000F01FF880BD19
:1009F00080B500AF4D2000F019F880BD80B500AF84
:100A00004E2000F013F880BD80B500AF4F2000F0FD
:100A10000DF880BD80B500AF502000F007F880BD14
:100A200080B500AF512000F001F880BD80B584B0E2
:100A300000AF78600023FB60FFF7D4FBF86003F0A1
:100A4000BBF8F868FFF7D2FB7B68512B09D8074B3E
:100A50007A6853F82230BB60BB68002B01D0BB68BA
:100A6000984703F0C3F81037BD4680BD64040020EA
:100A700080B400AFBD465DF8047B704780B483B09E
:100A800000AF1E4B7B607B681D4A1A607B681B4A67
:100A90005A607B6800229A607B680022DA607B687B
:100AA00000221A617B6800225A617B6800229A61E9
:100AB0007B680022DA617B6800221A627B68002270
:100AC0001A637B680022DA627B6800225A627B68C4
:100AD0000C4A9A637B680B4ADA637B684FF4B8422E
:100AE0001A647B684FF4B8425A64074B034A1A6091
:100AF0000C37BD465DF8047B704700BF6C0A0020D0
:100B000048454150B40A0020B466002080B582B048
:100B100000AF78603960786800213A6800F004F826
:100B20000837BD4680BD00BF80B48BB000AFF86011
:100B30000B467A60FB727B68002B00D151E0FB68AA
:100B4000002B00D14DE000233B6200237B6109E0D4
:100B50003B6A1B023B62FB7A3A6A13433B627B6946
:100B600001337B617B69032BF2D97B687B62FB6875
:100B7000DBB203F003033B61FB68BB613B69002B05
:100B800013D03B697B610AE0BB695A1CBA61FA7AEF
:100B90001A707B6A013B7B627B6901337B617B6AF4
:100BA000002B02D07B69032BEED9BB69FB6107E008
:100BB000FB691A1DFA613A6A1A607B6A043B7B6220
:100BC0007B6A032BF4D8FB69BB6107E0BB695A1C45
:100BD000BA61FA7A1A707B6A013B7B627B6A002BEE
:100BE000F4D12C37BD465DF8047B704780B500AF6B
:100BF000034B1B68002B02D0014B1B68984780BD3C
:100C0000A881002080B400AF094B1A68094B1B680B
:100C10009B001A44084B1A60074B1B6823F007031C
:100C20001A46054B1A60BD465DF8047B704700BF4D
:100C3000287100082C710008B866002080B500AF4C
:100C4000034B1B68002B02D0014B1B68984780BDEB
:100C5000C481002080B582B000AF7860054B1B686E
:100C6000002B03D0034B1B68786898470837BD46B4
:100C700080BD00BF187F002080B582B000AF7860D3
:100C8000054B1B68002B03D0034B1B687868984703
:100C90000837BD4680BD00BFFC7F002080B582B014
:100CA00000AF7860054B1B68002B03D0034B1B681B
:100CB000786898470837BD4680BD00BF007C00209B
:100CC00080B487B000AFF860B9607A603B603B6A7F
:100CD0009B007A6813447B617B6923F007037B6187
:100CE0007B69043B7B617B694FF080721A607B6992
:100CF000043B7B61FA687B691A607B69043B7B611A
:100D0000314A7B691A607B69043B7B617B694FF0E8
:100D100012321A607B69043B7B617B694FF00332BE
:100D20001A607B69043B7B617B694FF002321A6079
:100D30007B69043B7B613A687B691A607B69043B91
:100D40007B61BA687B691A607B69043B7B617B6964
:100D50004FF011321A607B69043B7B617B694FF075
:100D600010321A607B69043B7B617B694FF009326A
:100D70001A607B69043B7B617B694FF008321A6023
:100D80007B69043B7B617B694FF007321A607B69AA
:100D9000043B7B617B694FF006321A607B69043B40
:100DA0007B617B694FF005321A607B69043B7B6194
:100DB0007B694FF004321A607B6918461C37BD46C8
:100DC0005DF8047B704700BF3563000880B582B0D2
:100DD00000AF174B1B68002B02D0154B1B689847C0
:100DE00005F0D8FC7860134B1A68134B1B689A42C5
:100DF00016D0104B1B680F4A1268D2F898207968F9
:100E00008A1AC3F894200B4B1B680A4A1268D2F85E
:100E10009C10084A1268D2F894200A44C3F89C2017
:100E2000054B1B687A68C3F898200837BD4680BD1B
:100E3000B4810020E47F0020F07F002080B500AF67
:100E4000034B1B68002B02D0014B1B68984780BDE9
:100E50000080002080B582B000AF00237B60FFF7E8
:100E6000C1F97860074B1B780133DAB2054B1A7071
:100E70007868FFF7BBF9FFF73FFB02F0B7FE0837D2
:100E8000BD4680BD0A80002080B485B000AF786088
:100E90000F4B7A68013A1A600E4B1B68FB60FB68C7
:100EA00023F07F43FB600B4BFA681A600A4B0A4A37
:100EB000126842F005021A60074B074A126842F0B6
:100EC00002021A601437BD465DF8047B704700BF0C
:100ED00014E000E020ED00E010E000E080B500AF9D
:100EE00000F02CF800F024F880BD00BF80B582B07F
:100EF00000AF00237B60FFF775F97860044810218C
:100F0000FFF704FE7868FFF771F90837BD4680BD2A
:100F1000C066002080B483B000AF7860034B7A686D
:100F20001A600C37BD465DF8047B7047BC66002034
:100F300080B500AFFFF7DAFF80BD00BF80B500AF1E
:100F4000024B00221A6005F003FC80BDBC66002045
:100F500080B586B000AFF860B9607A603B6000236E
:100F60007B611B4B1B78002B04D03B6842F6E1628F
:100F70001A802AE0FB68002B04D13B6845F6C35277
:100F80001A8022E0FFF72EF97861FB68114A1A6097
:100F9000FB68BA685A60FB687A681A62FB680022CC
:100FA0005A62FB680833184603F0C6F8F86800F088
:100FB00025FB094B1B8801339AB2074B1A807869CD
:100FC000FFF714F93B6800221A801837BD4680BD30
:100FD0000A800020464C4147C881002080B592B06D
:100FE00002AFF860B9607A607B800023BB639C4BE2
:100FF0001B78002B05D0FB6C46F2AE121A80002342
:101000007BE2FB68002B05D1FB6C45F6C3521A80CE
:10101000002372E27B88B3F5847F43D0B3F5847FED
:1010200014DC082B3ED0082B06DC012B34DB022B12
:1010300038DD042B36D02FE0B3F5807F2CDDB3F5FF
:10104000817F2FDDB3F5827F2CD025E048F20802A6
:10105000934227D048F2080293420BDCB3F5004FCD
:101060001ADD48F2020293421CDD48F20402934268
:1010700018D011E048F20412934213D048F204123F
:10108000934205DCA3F50143013B012B04D809E0A1
:1010900048F20812934205D0FB6C45F625621A808F
:1010A00000232AE200BFFB681A686E4B9A4205D003
:1010B000FB6C45F6C4521A8000231EE27B8803F4C1
:1010C0008073002B03D0012387F83F3002E0002318
:1010D00087F83F30BB6C002B02D0BB6C00221A603B
:1010E0007B8803F00F03FB86FFF77CF8B863FB8E69
:1010F000013B072B00F25B8101A252F823F000BFF5
:101100007112000811130008AF1300082111000824
:10111000AF130008AF130008AF130008C111000897
:10112000FB681A6ABB6813403B633A6BBB689A4220
:101130001ED197F83F30012B06D1FB681A6A3B6B32
:10114000DB431A40FB681A62474B1B683A6BC3F8D3
:101150008420BB6C002B03D0FB685A6ABB6C1A60FE
:10116000B86BFFF743F8FB6C00221A803B6BC4E1BD
:101170007B881BB2002B08DAB86BFFF737F8FB6CE3
:1011800046F2B0121A800023B7E1384B1B78002BCF
:1011900008D0B86BFFF72AF8FB6C46F663521A804A
:1011A0000023AAE107F110027B88796800911046BC
:1011B000F968BA6800F0EAF9B86BFFF717F8FFE0D2
:1011C000FB681A6ABB6813403B633B6B002B1ED065
:1011D00097F83F30012B06D1FB681A6A3B6BDB4363
:1011E0001A40FB681A62204B1B683A6BC3F88420D4
:1011F000BB6C002B03D0FB685A6ABB6C1A60B86BDF
:10120000FEF7F4FFFB6C00221A803B6B75E17B88D4
:101210001BB2002B08DAB86BFEF7E8FFFB6C46F256
:10122000B0121A80002368E1104B1B78002B08D005
:10123000B86BFEF7DBFFFB6C46F663521A800023A7
:101240005BE107F110027B88796800911046F9682C
:10125000BA6800F09BF9B86BFEF7C8FFB0E000BFBA
:101260000A800020464C4147E47F0020FC7B0020A0
:10127000FB681B6ADA43BB6813403B633A6BBB688D
:101280009A421DD197F83F30012B05D1FB681A6AAD
:101290003B6B1A43FB681A629A4B1B683A6BC3F8A4
:1012A0008420BB6C002B03D0FB685A6ABB6C1A60AD
:1012B000B86BFEF79BFFFB6C00221A803B6B1CE1B6
:1012C0007B881BB2002B08DAB86BFEF78FFFFB6C34
:1012D00046F2B0121A8000230FE18B4B1B78002BD3
:1012E00008D0B86BFEF782FFFB6C46F663521A809B
:1012F000002302E107F110027B8879680091104613
:10130000F968BA6800F042F9B86BFEF76FFF57E072
:10131000FB681B6ADA43BB6813403B633B6B002BE3
:101320001DD097F83F30012B05D1FB681A6A3B6B43
:101330001A43FB681A62734B1B683A6BC3F884202C
:10134000BB6C002B03D0FB685A6ABB6C1A60B86B8D
:10135000FEF74CFFFB6C00221A803B6BCDE07B88D4
:101360001BB2002B08DAB86BFEF740FFFB6C46F2AD
:10137000B0121A800023C0E0634B1B78002B08D00A
:10138000B86BFEF733FFFB6C46F663521A800023FE
:10139000B3E007F110027B88796800911046F96884
:1013A000BA6800F0F3F8B86BFEF720FF08E0B86BFE
:1013B000FEF71CFFFB6C45F625621A8000239CE0BB
:1013C00002F080FCFEF70EFFB8634E4B1B6893F8EB
:1013D0003530032B44D801A252F823F0ED13000856
:1013E000051400084114000825140008BB6C002BEC
:1013F00004D0444B1B681A6CBB6C1A60FB6C002257
:101400001A8035E0BB6C002B04D03E4B1B681A6C75
:10141000BB6C1A60B86BFEF7E9FEFB6C46F2A912D2
:101420001A8025E0BB6C002B02D0BB6C00221A6036
:10143000B86BFEF7DBFEFB6C47F2D9221A8017E08F
:10144000BB6C002B04D02F4B1B681A6CBB6C1A6052
:10145000B86BFEF7CBFEFB6C45F6C2521A8007E074
:10146000B86BFEF7C3FEFB6C46F62E621A8000BF17
:10147000FB6C1B88002B01D000233EE0214B1B6836
:10148000D3F884303B6397F83F30012B2ED1FB8E8D
:10149000013B072B21D801A252F823F0CD140008FC
:1014A000CD140008DB140008BD140008DB1400088C
:1014B000DB140008DB140008BD140008FB681A6A7E
:1014C0003B6BDB431A40FB681A620FE0FB681A6A49
:1014D0003B6B1A43FB681A6208E0B86BFEF786FEA6
:1014E000FB6C45F625621A80002306E0B86BFEF718
:1014F0007DFEFB6C00221A803B6B18464037BD46D0
:1015000080BD00BFE47F0020FC7B002080B588B058
:1015100002AFF860B9603B601346FB80FB68002BAC
:1015200005D13B6845F6C3521A80002328E0FB88AA
:10153000002B05DB012B09DDA3F50043012B05D9A9
:101540003B6845F625621A80002319E000BFFB685E
:101550001A680D4B9A4205D03B6845F6C4521A8072
:1015600000230DE005F016F97861FB883A680092D7
:10157000F868B9681A467B6900F066F838613B691B
:1015800018461837BD4680BD464C414780B584B0EB
:1015900000AFF860B9607A607B800C4B1B687A689A
:1015A000C3F88020094B1B687A88A3F88820074B72
:1015B0001B680022C3F88420F868B9680122BB695F
:1015C00002F0E4FC1037BD4680BD00BFE47F002080
:1015D00080B483B000AF7860064B00221A60064BDF
:1015E00000221A807B6800221A800C37BD465DF805
:1015F000047B7047CC810020C881002080B483B078
:1016000000AF78607B680E4ADA617B6800225A611D
:101610000C4B1B68002B03D17B6800229A6107E00A
:10162000084B1A687B689A61064B1B687A685A6196
:10163000044B7A681A600C37BD465DF8047B70472E
:101640009C6D0008CC81002080B58CB000AFF860A4
:10165000B9603B601346FB8000237B62FEF7C2FD4E
:101660007862FB88012B13D0012B02DC002B08D001
:1016700016E0B3F5004F04D048F20102934207D0C0
:101680000EE0FB681A6ABB681A43FB681A6210E036
:10169000FB681A6ABB68DB431A40FB681A6208E001
:1016A000786AFEF7A3FDBB6B45F625621A8000231E
:1016B000B4E0FB683A685A62FB6808333B623B6AF5
:1016C0001B89002B08D1786AFEF790FDBB6B0022C6
:1016D0001A80FB681B6AA1E03B6A1B68FB62FB6A1D
:1016E0009B68BB6280E0FB6A5B68FB61BB6AB3F826
:1016F000883003F00F037B837B8B013B072B5FD884
:1017000001A252F823F000BF731700089D170008CC
:10171000C117000829170008C1170008C1170008E1
:10172000C117000851170008FB681A6ABB6AD3F892
:10173000803013407B61BB6AD3F880207B699A427A
:1017400005D1B86A79693A6800F06CF841E040E088
:10175000FB681A6ABB6AD3F8803013407B617B69EF
:10176000002B05D0B86A79693A6800F05BF830E080
:101770002FE0FB681B6ADA43BB6AD3F88030134062
:101780007B61BB6AD3F880207B699A4205D1B86A35
:1017900079693A6800F046F81BE01AE0FB681B6ABA
:1017A000DA43BB6AD3F8803013407B617B69002B3E
:1017B00005D0B86A79693A6800F034F809E008E0C1
:1017C000786AFEF713FDBB6B43F6FF221A800023F5
:1017D00024E0FB69FB62FB6A002B03D0FB6A9B6879
:1017E000BB6201E00023BB62BB6A002B7FF47BAFCE
:1017F000786AFEF7FBFCFB881BB2002B01DB02F0D2
:1018000061FAFEF7EFFC7862FB681B6A3B61786A5D
:10181000FEF7ECFCBB6B00221A803B6918463037A0
:10182000BD4680BD80B584B000AFF860B9607A6015
:10183000FB68BA68C3F88420FB68002283F835206F
:10184000FB68002283F83420FB687A681A64FB681E
:1018500093F83630072B20D801A252F823F000BFAE
:101860009B1800089B1800088118000881180008C0
:101870009B1800089B180008911800089118000890
:10188000F86802F043FFFB68002283F8362005E089
:10189000FB68042283F8362000E000BFF86802F0FD
:1018A000CFFC1037BD4680BD80B584B000AF7860F6
:1018B00007F1080207F10E030020002104F0AAF945
:1018C000FB89002B06D1044B1B78012B02D100F0C1
:1018D000E7F9EDE7ECE700BF0D7C002080B58CB0A8
:1018E0000AAF7860214B00221A60214B00221A6057
:1018F00000F050F81F4B1B68002B04D17B6847F2A7
:1019000012221A802FE01C4B1A681C4B1B689A424B
:1019100004D27B6847F213221A8024E0184B1B780C
:101920003E2B04D97B6847F211221A801BE0144B2E
:101930001878104B1968134B1A680F4B1B680090EE
:101940000191029203930023049300230593002343
:1019500006930B2307937B6808930B480B490C4AAB
:10196000002303F08BFF0837BD4680BDB081002007
:101970009C820020647100086C7100085871000896
:101980006071000868710008207F0020A06D0008C9
:10199000A918000880B483B000AF0023FB8010E0DA
:1019A000FB88DA000C4B13443B603B6800221A6052
:1019B0003B6800229A803B680022DA80FB88013372
:1019C000FB80064B1B88FA889A42E9D30C37BD4648
:1019D0005DF8047B704700BFB88400207471000874
:1019E00080B48BB000AFF860B9603B601346FB80F9
:1019F000FB88042B1FD1744B1B68BA68D31A013BB8
:101A00003B623B6A13F5803F0DD9FB680022DA6424
:101A1000FB6800221A65FB680022DA613B6847F226
:101A20007E221A80CAE0FB68BA68DA643B6A5A1CF4
:101A3000FB681A6542E0BB68002B31D0FB88082B9D
:101A400024D1FB689A6CBB681344FB615E4B1B6836
:101A5000FA69D31A013B3B623A6ABB689A4203D2E5
:101A6000FB68FA69DA6405E0574B1A68BB681A44E8
:101A7000FB68DA64FB68DA6C534B1B68D21AFB68AC
:101A80001A65FB68DA6CFB689A6417E04E4B1A68BB
:101A9000BB681A44FB68DA64FB68BA681A650DE033
:101AA000FB680022DA64FB6800221A65FB680022EA
:101AB000DA613B6847F27E221A807FE0FB68DB6CCC
:101AC000424A1288B3FBF2F102FB01F29B1A7B83BC
:101AD0007B8BDA003E4B13447B617B699B88002B38
:101AE0000CD1FB6800225A61FB6800229A617B6975
:101AF000FA681A607B6901229A804FE07B691B6853
:101B00007B6242E07B6ADA6C2F4B1B68D21A7B6ADD
:101B10001A65FB681A6D7B6A1B6D9A4213D97B6A42
:101B20005B69002B03D07B6A5B697B622DE0FB68FD
:101B300000225A61FB687A6A9A617B6AFA685A6184
:101B400000237B6221E07B6A9B69002B0CD1FB6840
:101B500000229A61FB687A6A5A617B6AFA689A6124
:101B60007B69FA681A600EE07B6A9B693B61FB68DF
:101B70003A699A61FB687A6A5A613B69FA685A6104
:101B80007B6AFA689A6100237B627B6A002BB9D179
:101B90007B699B8801339AB27B699A807B69DA887A
:101BA0007B699B889A4203D27B699A887B69DA8039
:101BB000FB687A69DA613B6800221A802C37BD46DF
:101BC0005DF8047B704700BFB0810020747100088D
:101BD000B884002080B487B000AF78607B68DB6990
:101BE0007B617B69002B35D07B6800221A657B699D
:101BF0001A687B689A420CD17B685B693B617B69A0
:101C00003A691A603B69002B12D03B6900229A6145
:101C10000EE07B689B693B617B685B69FB603B69AD
:101C2000FA685A61FB68002B02D0FB683A699A6136
:101C30007B6800225A617B6800229A617B680022DF
:101C4000DA617B680022DA647B699B88013B9AB287
:101C50007B699A801C37BD465DF8047B704700BFE6
:101C600080B483B000AF0023FB800AE0FB88DA0079
:101C7000094B13443B603B680022DA80FB88013348
:101C8000FB80064B1B88FA889A42EFD30C37BD467F
:101C90005DF8047B704700BFB884002074710008B1
:101CA00080B588B000AF00237B61FEF79BFA7861B6
:101CB00004F070FD3861734B1B685A1C714B1A603D
:101CC000704B1B68704A1288B3FBF2F102FB01F201
:101CD0009B1AFB81FB89DA006C4B1344BB60BB6829
:101CE0001B68BB610023FB77B4E0BB69002B00F0ED
:101CF000AF80BB695B697B60BB6993F83630072BAB
:101D000000F2A28001A252F823F000BF491E000891
:101D10002D1D0008491E00085D1D0008491E000811
:101D2000BB1D0008491E0008EB1D0008BB69DA6CEA
:101D3000544B1B68D21ABB691A65BB69DA6C514BEC
:101D40001B689A4207D1BB69002283F83620B86924
:101D500002F0DCFC79E00123FB7776E0BB69DA6C0A
:101D6000484B1B68D21ABB691A65BB69DA6C454BD4
:101D70001B689A421ED1BB690022DA65BB6900224A
:101D8000A3F8602004F006FD0246BB691A64B86936
:101D900002F056FAB86902F0B9FCBB69002283F878
:101DA0003620BB69032283F83520BB69002283F803
:101DB00034204AE00123FB7747E0BB69DA6C314B02
:101DC0001B68D21ABB691A65BB69DA6C2D4B1B689C
:101DD0009A4207D1BB69042283F83620B869FFF71D
:101DE000F9FE32E00123FB772FE0BB69DA6C254B6B
:101DF0001B68D21ABB691A65BB69DA6C214B1B6878
:101E00009A421ED1BB690022DA65BB690022A3F8A1
:101E1000602004F0BFFC0246BB691A64B86902F096
:101E20000FFAB869FFF7D6FEBB69042283F83620A3
:101E3000BB69032283F83520BB69002283F8342074
:101E400003E00123FB7700E000BF7B68BB6101E09A
:101E50000123FB77FB7F002B3FF447AF04F09AFC94
:101E600002463B69D31A3B60094B1A683B689A42A9
:101E700002D2074B3A681A607869FEF7B7F9203743
:101E8000BD4680BDB081002074710008B884002078
:101E90009C82002080B588B002AF786000237B610F
:101EA0002348012103F08CF97B69012B1AD0022B06
:101EB0002BD0002B00D039E007F10C03009307F181
:101EC000120301931B48012100220823FFF786F823
:101ED00001237B6107F11203174800211A4601F024
:101EE00019FC23E007F10C03009307F1120301939F
:101EF0001048012100220223FFF770F802237B61C2
:101F00000B48012103F04EF910E007F10C0307F133
:101F10001202009209480021002201F015FB002363
:101F20007B610348012103F04BF900BFBCE700BF10
:101F300000040240AC79002094700020346D002031
:101F400080B588B002AF786000237B6100E000BFFD
:101F50007B69032BFBD801A252F823F06D1F000808
:101F60008F1F00080B2000083720000807F1080326
:101F700007F10E0200923A480021002201F0E4FA33
:101F80003848022103F01CF901237B6166E007F168
:101F90000803009307F10E03019333480221002246
:101FA0000423FFF71BF807F10803009307F10E0362
:101FB00001932D48042101220823FFF70FF838610F
:101FC0003B69002B10D0294B44221A70274B1B78F9
:101FD00007F10E020092264819460122002303F061
:101FE0005BFB02237B6139E0204B47221A701F4BB9
:101FF0001B7807F10E0200921D48194601220023AA
:1020000003F04AFB02237B6128E007F108030093F9
:1020100007F10E0301931448082100220423FEF760
:10202000DDFF03237B6107F10E03124800211A46EE
:1020300001F070FB12E007F10803009307F10E03B3
:1020400001930948082100220123FEF7C7FF054834
:10205000022103F0A7F800237B6100BF77E700BFF0
:102060009470002000040240AC790020A068002099
:10207000BC740020D47B002080B588B002AF7860AB
:1020800000237B6100E000BF7B69072BFBD801A226
:1020900052F823F0B5200008EF2000082B2100089B
:1020A00045210008EF2100088B210008B921000814
:1020B0001B22000807F10C03009307F110030193A2
:1020C0006348102100220423FEF788FF07F10C0368
:1020D00007F1100200925F480021002201F034FA5B
:1020E0005D48102103F06CF801237B61AFE007F13C
:1020F0000C03009307F1100301935548402100227F
:102100000423FEF76BFF5448102103F04BF807F14E
:102110001003524800211A4601F0FCFA3B8A002BBA
:1021200002D102237B6192E091E007F10C0307F1F9
:10213000100200924A480021002201F005FA032310
:102140007B6184E007F10A0307F10C02009207F1BA
:102150001002019243480021002203F0A5F9034632
:10216000FB74FB7C472B05D105237B613A4810218A
:1021700003F026F8FB7C442B06D104237B61364810
:10218000202103F01DF862E061E007F10C030093E9
:1021900007F1100301932E484FF4807100220423AD
:1021A000FEF71CFF07F110032F4800211A4601F02B
:1021B000B1FA06237B614AE007F10C03009307F1B3
:1021C0001003019322484FF4807100220123FEF78F
:1021D00005FF07F11003254800211A4601F09AFA7D
:1021E0001D48102102F0DEFF00237B612FE007F184
:1021F0000C03009307F1100301931548802100227E
:102200000423FEF7EBFE07F11003194800211A46DC
:1022100001F080FA07237B6119E007F10C030093BA
:1022200007F1100301930A48802100220123FEF7E1
:10223000D5FE07F110030D4800211A4601F06AFA95
:102240000548202102F0AEFF00237B6100BF1AE7A2
:10225000AC790020D47B0020000402400C6D0020EB
:10226000A4680020BC7400205C6D0020846D0020F8
:10227000F866002080B588B002AF786000237B61EB
:102280007B69012B1AD0022B2ED0002B00D0F7E750
:1022900007F10C0307F1120200921D4800210022F1
:1022A00001F052F97B8A002B07D11A484FF4805174
:1022B00002F086FF01237B6128E027E007F10C0391
:1022C000009307F1120301931348202100220423F5
:1022D000FEF784FE07F11203104800211A4601F0B0
:1022E00019FA02237B6111E007F10C0307F11202D6
:1022F00000920B480021002201F026F905484FF416
:10230000805102F04FFF00237B61B9E7B8E700BFBF
:102310000C6D002000040240AC790020A46800206D
:10232000846D002080B588B002AF786000237B61A7
:102330007B69012B16D0022B29D0002B00D042E064
:1023400007F10C0307F1120200921F48002100223E
:1023500001F0FAF81D484FF4005102F031FF01235B
:102360007B6130E007F10C03009307F11203019346
:1023700017484FF4806100220423FEF72FFE134814
:102380004FF4005102F01CFF02237B611BE007F1B8
:102390000C03009307F1120301930D484FF4806181
:1023A00000220123FEF71AFE07F11203094800215B
:1023B0001A4601F0AFF905484FF4005102F0F2FE61
:1023C00000237B6100BFB3E75C6D00200004024086
:1023D000AC790020346D002080B588B002AF786001
:1023E00000237B6128484FF4804102F0DBFE7B69CB
:1023F000012B16D0022B29D0002B00D042E007F190
:102400000C0307F11202009220480021002201F083
:102410009BF81D484FF4804102F0D2FE01237B61FE
:1024200030E007F10C03009307F112030193184801
:102430004FF4007100220423FEF7D0FD12484FF440
:10244000804102F0BDFE02237B611BE007F10C031B
:10245000009307F1120301930D484FF4007100221D
:102460000123FEF7BBFD07F112030A4800211A46BB
:1024700001F050F904484FF4804102F093FE00232C
:102480007B6100BFB3E700BF00040240F866002094
:10249000AC790020346D002080B586B002AF786042
:1024A00087484FF4807102F063FE0346002B07D08B
:1024B00007F10E03834801210022FFF727F806E009
:1024C00007F10E037F4801210122FFF71FF87C4826
:1024D0004FF4007102F04CFE0346002B07D007F1C9
:1024E0000E03784802210022FFF710F806E007F1FA
:1024F0000E03744802210122FFF708F870484FF4D8
:10250000806102F035FE0346002B07D007F10E0371
:102510006C4804210022FEF7F9FF06E007F10E03E4
:10252000684804210122FEF7F1FF65484FF400617D
:1025300002F01EFE0346002B07D007F10E03614890
:1025400008210022FEF7E2FF06E007F10E035D48D6
:1025500008210122FEF7DAFF59484FF4805102F0BA
:1025600007FE0346002B07D007F10E035548102144
:102570000022FEF7CBFF06E007F10E0351481021C1
:102580000122FEF7C3FF4E484FF4005102F0F0FD68
:102590000346002B07D007F10E034A4820210022F2
:1025A000FEF7B4FF06E007F10E03464820210122A2
:1025B000FEF7ACFF42484FF4804102F0D9FD0346DC
:1025C000002B07D007F10E033E4840210022FEF702
:1025D0009DFF06E007F10E033A4840210122FEF775
:1025E00095FF37484FF4004102F0C2FD0346002B2F
:1025F00007D007F10E03334880210022FEF786FF43
:1026000006E007F10E032F4880210122FEF77EFF2E
:102610002D484FF4807102F0ABFD0346002B08D02B
:1026200007F10E0327484FF480710022FEF76EFF7A
:1026300007E007F10E0323484FF480710122FEF7F3
:1026400065FF21484FF4007102F092FD0346002B14
:1026500008D007F10E031B484FF400710022FEF76B
:1026600055FF07E007F10E0316484FF400710122F1
:10267000FEF74CFF14484FF4806102F079FD0346E9
:10268000002B08D007F10E030E484FF480610022A2
:10269000FEF73CFF07E007F10E030A484FF48061A4
:1026A0000122FEF733FF0023009307F10E0301938D
:1026B0000020002100223223FDF71CFEF0E600BFBF
:1026C000000C0240AC7900200010024080B487B0BA
:1026D00000AF78602E4B1B68002B04D17B6845F25D
:1026E0001E721A804EE02B4B1B88002B04D17B6896
:1026F00045F21D721A8045E0254B1B687B61244B17
:102700001B683B613B6910333B61224B1B88013BDB
:10271000BB810023FB8114E07B693A691A607B6905
:1027200000225A607B6900221A817B690022DA60EC
:102730007B6910337B613B6910333B61FB8901335B
:10274000FB81FA89BB899A42E6D37B6900221A6031
:102750007B6900225A607B6900221A817B69002212
:10276000DA600B4B1A680C4B1A600A4B1A880A4B3A
:102770009A80094B0022DA80074B00221A817B687D
:1027800000221A801C37BD465DF8047B704700BFED
:102790003C71000834710008D080002080B485B0FE
:1027A00000AF78607B685B89FB817B685B89002B6D
:1027B00026D07B681B68BB60154B1A68BB681A6023
:1027C0007B685A68124B1A60114BDA887B685B8908
:1027D000D31A9AB20E4BDA800D4B9A887B685B89CC
:1027E00013449AB20A4B9A807B6800225A817B6814
:1027F00000229A817B6800221A607B6800225A605E
:10280000FB8918461437BD465DF8047B704700BF4E
:10281000D080002080B483B000AF78600B467B800E
:102820007B687A881A817B6800225A817B68002243
:102830009A817B6800221A607B6800225A600C37FC
:10284000BD465DF8047B704780B487B000AFF86088
:10285000B9607A603B60FB685B89002B0ED1BB6876
:1028600000221A807B68002B02D07B6800221A604D
:102870003B6846F292521A8000233CE0FB685B689A
:102880007B617B695B683B617B691A89BB681A80E5
:102890007B68002B03D07B69DA687B681A607B69F0
:1028A0001A68FB685A60FB685B68002B06D1FB68FE
:1028B00000221A60FB6800225A8105E0FB685B89F0
:1028C000013B9AB2FB685A810E4B1A687B691A6009
:1028D0000C4B7A691A600B4B9B8801339AB2094BF7
:1028E0009A80084BDB88013B9AB2064BDA803B6842
:1028F00000221A803B6918461C37BD465DF8047BF0
:10290000704700BFD080002080B487B000AFF8606F
:10291000B960FA80BB80FB685A89FB681B899A42C0
:1029200004D37B6A46F293521A806BE0384B9B8843
:10293000002B04D17B6A45F21D721A8062E0344B91
:102940001B687B617B691A68314B1A60304B9B882E
:10295000013B9AB22E4B9A802D4BDB8801339AB201
:102960002B4BDA802A4B1A89294BDB889A4203D2F7
:10297000274BDA88264B1A81FB685B89002B0CD128
:10298000FB687A691A60FB687A695A60FB68012201
:102990005A817B6900221A601EE0BB8803F0100395
:1029A000002B0CD1FB681B683B613B697A691A609C
:1029B000FB687A691A607B6900221A6006E0FB688E
:1029C0005A687B691A60FB687A695A60FB685B89A0
:1029D00001339AB2FB685A81FB689A89FB685B896C
:1029E0009A4203D2FB685A89FB689A817B69BA686C
:1029F0005A607B69FA881A817B693A6ADA607B6A75
:102A000000221A801C37BD465DF8047B704700BF6A
:102A1000D080002080B58CB00AAF00F0A5F9FDF79A
:102A2000E3FDBB1D184600F0EFFFBB1D8C488D4930
:102A3000022202F0E7FCBB1D8B488C49002200F00B
:102A40003DFDBB1D8A488B49002200F037FDBB1DB0
:102A500089488A49002200F031FDBB1D8848894918
:102A6000002200F02BFDBB1D87488849002200F0A2
:102A700025FDBB1D86488749002200F01FFDBB1DB8
:102A800085488649002200F019FDBB1D8448854910
:102A9000002200F013FDBB1D83488449002200F092
:102AA0000DFDBB1D82487749002200F007FDBB1DCC
:102AB000804881490022FEF74BFA804B5B6E022270
:102AC00000927E4A019202934FF480730393002395
:102AD0000493002305930023069303230793BB1D50
:102AE000089377487749784A002302F0C7FE774B6E
:102AF0001B6B0A220092754A019202938023039372
:102B000000230493002305930023069303230793D4
:102B1000BB1D08936E486F496F4A002302F0AEFE5A
:102B20006E4B1B6B0A2200926C4A01920293802327
:102B300003930023049300230593002306930323A8
:102B40000793BB1D089366486649674A002302F055
:102B500095FE664B1B6B0A220092644A0192029317
:102B600080230393002304930023059300230693FB
:102B700003230793BB1D08935D485E495E4A00230B
:102B800002F07CFE5D4B1B6B082200925B4A0192B7
:102B900002938023039300230493002305930023CF
:102BA000069303230793BB1D089355485549564A7E
:102BB000002302F063FE554B1B6B08220092534A20
:102BC000019202938023039300230493002305932F
:102BD0000023069303230793BB1D08934C484D49DC
:102BE0004D4A002302F04AFE4C4B1B6B0922009217
:102BF0004A4A019202938023039300230493002303
:102C000005930023069303230793BB1D08934448B1
:102C10004449454A002302F031FE444B1B6B042219
:102C20000092424A0192029380230393002304936B
:102C3000002305930023069303230793BB1D0893EA
:102C40003B483C493C4A002302F018FEBB1D184695
:102C500001F00AF9002318460837BD4680BD00BFC1
:102C6000BC740020B46D000894700020C86D00088A
:102C7000346D0020E06D0008D47B0020F86D000862
:102C8000D0660020106E00080C6D0020286E000831
:102C9000A4680020406E00085C6D0020586E00089B
:102CA000846D0020706E0008F8660020906E0008A9
:102CB0006C6E0020AC790020A86E00086C06002025
:102CC000AC050020BC6E00083D2D0008CC6800203B
:102CD000EC740020CC6E0008951E0008D47900200A
:102CE0004C6C0020D46E0008411F0008946E002038
:102CF000E0670020DC6E000879200008AC77002037
:102D0000CC6A0020E06E000825230008BC72002079
:102D1000AC6D0020046F0008D9230008BC700020AF
:102D200020670020286F000875220008AC7500207D
:102D30008C6B0020306F00089924000880B584B0A7
:102D400000AF786003F072FCFEF7C8F803F0B8FC3F
:102D5000FDF794FE02F06EFA07F10E03184601F03B
:102D600077FD1037BD4680BD80B582B000AF022030
:102D7000012100F02BFA4FF233033B6001233B713A
:102D80000123BB7103237B710023FB713B46264863
:102D9000194602F05FF90420012100F017FA40F60D
:102DA00076333B6001233B710123BB7103237B71AD
:102DB0000023FB713B461D48194602F04BF90820E1
:102DC000012100F003FA4FF47F433B6000233B7185
:102DD0000023BB7103237B710023FB713B46144826
:102DE000194602F037F91020012100F0EFF94FF4F5
:102DF0007F433B6000233B710023BB7103237B7146
:102E00000023FB713B460B48194602F023F90648A4
:102E10004FF2330102F0C6F9044840F6763102F071
:102E2000C1F90837BD4680BD0004024000080240D9
:102E3000000C02400010024080B400AF164B164A4E
:102E4000126842F001021A60134B00229A60124A83
:102E5000114B1B6823F0A85323F4102313600E4B6F
:102E60000E4A5A600C4B0E4AC3F884200A4B0D4A96
:102E7000C3F88820084B084A126822F480221A609E
:102E8000054B0022DA60044B0022C3F88C20BD46BB
:102E90005DF8047B704700BF00380240103000240A
:102EA000003000200030002480B483B000AF03461F
:102EB000FB71054B00221A70034BFA791A700C371C
:102EC000BD465DF8047B70470238024080B582B091
:102ED00000AF00233B600023FB710023BB71312056
:102EE00000F092F90346BB713B6801333B603B68DD
:102EF000B3F5A04F02D0BB79002BF0D0312000F009
:102F000083F90346002B02D00123FB7101E000236B
:102F1000FB71FB7918460837BD4680BD80B485B08B
:102F200000AFF860B9607A603B600A4B7A68910143
:102F3000BA6811433A685208013A12041143FA6818
:102F40001143BA6912060A435A601437BD465DF848
:102F5000047B70470038024080B483B000AF034662
:102F6000FB71044BFA791A600C37BD465DF8047B9F
:102F7000704700BF6000474280B485B000AF786002
:102F80000023FB60094B9B68FB60FB6823F0030395
:102F9000FB60FA687B681343FB60044BFA689A6035
:102FA0001437BD465DF8047B704700BF003802400F
:102FB00080B400AF054B9B68DBB203F00C03DBB2BF
:102FC0001846BD465DF8047B704700BF00380240DC
:102FD00080B485B000AF78600023FB60094B9B682C
:102FE000FB60FB6823F0F003FB60FA687B68134327
:102FF000FB60044BFA689A601437BD465DF8047BA9
:10300000704700BF0038024080B485B000AF7860E0
:103010000023FB60094B9B68FB60FB6823F4E053D3
:10302000FB60FA687B681343FB60044BFA689A60A4
:103030001437BD465DF8047B704700BF003802407E
:1030400080B485B000AF78600023FB60094B9B68BB
:10305000FB60FB6823F46043FB607B68DB00FA687D
:103060001343FB60034BFA689A601437BD465DF862
:10307000047B70470038024080B489B000AF7860AC
:103080000023BB6100237B610023FB6102233B61C2
:103090000023FB600223BB60484B9B6803F00C03DA
:1030A000BB61BB69042B07D0082B09D0002B3FD193
:1030B0007B68434A1A603FE07B68424A1A603BE003
:1030C0003E4B5B6803F480039B0DFB603B4B5B68EE
:1030D00003F03F03BB60FB68002B0DD0394ABB688F
:1030E000B2FBF3F2354B596847F6C0730B409B09AE
:1030F00003FB02F3FB610CE0314ABB68B2FBF3F265
:103100002E4B596847F6C0730B409B0903FB02F333
:10311000FB612A4B5B6803F440331B0C01335B00FB
:103120003B61FA693B69B2FBF3F27B681A6003E02A
:103130007B68234A1A6000BF204B9B6803F0F003B2
:10314000BB61BB691B09BB611F4ABB6913441B7888
:10315000DBB27B617B681A687B69DA407B685A6006
:10316000164B9B6803F4E053BB61BB699B0ABB61D0
:10317000154ABB6913441B78DBB27B617B685A68D4
:103180007B69DA407B689A600C4B9B6803F4604370
:10319000BB61BB695B0BBB610B4ABB6913441B780A
:1031A000DBB27B617B685A687B69DA407B68DA60F6
:1031B0002437BD465DF8047B704700BF00380240ED
:1031C0000024F40000127A000000002080B483B0D4
:1031D00000AF78600B46FB70FB78002B06D0094BE4
:1031E000084A116B7A680A431A6306E0054B054AE0
:1031F000116B7A68D2430A401A630C37BD465DF8FA
:10320000047B70470038024080B487B000AF0346AB
:10321000FB710023FB6000237B610023FB74FB79BF
:103220005B09DBB2FB60FB68012B03D1124B1B680F
:103230007B6109E0FB68022B03D10F4B1B6F7B61A5
:1032400002E00D4B5B6F7B61FB7903F01F03FB60BA
:10325000FB687A6922FA03F303F00103002B02D022
:103260000123FB7401E00023FB74FB7C18461C3730
:10327000BD465DF8047B70470038024080B485B0DD
:1032800000AF484BFB60484BBB60484BFB60484B72
:10329000FB60484BBB60484BFB60484B7B60484B36
:1032A000FB60484BFB60484BFB60484BFB60484B66
:1032B0007B60484B7B60484BFB60484B7B60484BD6
:1032C000FB60484B7B60484BFB60484B7B60484B46
:1032D0007B60484B7B60484B7B60484BFB60484BB6
:1032E000FB60484BFB60484B7B60484BFB60484BA6
:1032F000FB60484B7B60484B7B60484B7B60484B96
:103300007B60484B7B60484B7B60484B7B60484B05
:10331000FB60484BFB60484BFB60484BFB60484BF5
:103320007B60484B7B60484B7B60484BFB60484B65
:10333000FB60484BFB60484B7B60484B7B60484BD5
:103340007B60484BBB60484B7B60484BFB60484B05
:10335000FB60484BFB60484BFB60484BFB60484BB5
:10336000FB60484BFB60484B7B60484BFB60484B25
:10337000FB60484B7B60484B7B60484BFB60484B95
:10338000FB60484B7B60484BFB60484BFB60484B05
:103390007B60484B7B60484B7B601437BD465DF8D3
:1033A000047B7047446F0008AC700008456F00084C
:1033B000466F0008486F00084C6F0008506F000807
:1033C0004D6F0008786F0008796F00087A6F000869
:1033D0007C6F00087E6F0008826F0008846F000811
:1033E000A46F0008A66F0008A86F0008AA6F000865
:1033F000AC6F0008AE6F0008B06F0008DC6F00080B
:10340000DD6F0008DE6F0008E06F0008E26F000863
:10341000E36F0008E46F0008E66F0008E86F00083B
:10342000EA6F0008EC6F0008EE6F0008F06F00080C
:103430002070000821700008227000082370000826
:1034400024700008267000082870000850700008DA
:103450005170000852700008537000085470000842
:1034600056700008587000085C7000085D70000815
:103470005E7000085F7000086070000861700008EE
:1034800062700008637000086470000866700008CD
:1034900067700008687000086A7000086C700008A7
:1034A0006D70000870700008A4700008A570000816
:1034B000A6700008A8700008AA70000880B586B041
:1034C00000AFF860B9607A603B6000237B611B4B02
:1034D0001B78002B04D03B6842F6E1621A802AE098
:1034E000FB68002B04D13B6845F6C3521A8022E0EA
:1034F000FCF778FE7861FB68114A1A60FB687A680D
:103500001A62FB6800225A62FB68BA685A60FB685C
:103510000833184600F010FEF86800F03FF9094B38
:103520001B8801339AB2074B1A807869FCF75EFE5C
:103530003B6800221A801837BD4680BD0A800020F3
:1035400053454D41A081002080B58EB000AFF8609A
:10355000B9603B601346FB8000237B63694B1B789B
:10356000002B05D03B6C46F2AE121A800023C4E05B
:10357000FB68002B05D13B6C45F6C3521A80002333
:10358000BBE0FB88002B08D0B3F5004F05D03B6CA7
:1035900045F625621A800023AFE000BFFB681A6879
:1035A000594B9A4205D03B6C45F6C4521A80002311
:1035B000A3E03B68002B02D03B6800221A60FCF7B6
:1035C00011FE7863FB681B6A002B16D0FB681B6A30
:1035D0005A1EFB681A623B68002B03D0FB685A6ACC
:1035E0003B681A60FB681B6A3B63786BFCF7FEFD67
:1035F0003B6C00221A803B6B7FE0FB881BB2002BE8
:103600000BDAFB681B6A3B63786BFCF7EFFD3B6CE6
:1036100046F2B0121A803B6B6FE03C4B1B78002BDC
:1036200008D0786BFCF7E2FD3B6C46F663521A80DB
:10363000002362E007F110031846F9680622BB6810
:1036400000F0A4FC786BFCF7D1FD00F03BFBFCF72D
:10365000C9FD78632E4B1B6893F83530032B3CD89B
:1036600001A252F823F000BF793600089136000815
:10367000C1360008AB3600083B68002B04D0244B51
:103680001B681A6C3B681A603B6C00221A802DE0A4
:103690003B68002B04D01E4B1B681A6C3B681A60F9
:1036A0003B6C46F2A9121A8020E03B68002B02D046
:1036B0003B6800221A603B6C47F2D9221A8015E061
:1036C0003B68002B04D0124B1B681A6C3B681A60D5
:1036D0003B6C45F6C2521A8008E03B6C46F62E62FF
:1036E0001A80786BFCF782FD002306E0FB681B6AFA
:1036F0003B63786BFCF77AFD3B6B18463837BD4669
:1037000080BD00BF0A80002053454D41FC7B002056
:10371000E47F002080B586B000AFF8600B467A6089
:103720007B81FB68002B05D17B6845F6C3521A806C
:1037300000232DE07B89B3F5007F11D0B3F5007F26
:1037400002DC002B0CD005E0B3F5004F08D0B3F538
:10375000024F05D07B6845F625621A80002317E0EA
:1037600000BFFB681A680C4B9A4205D07B6845F68F
:10377000C4521A8000230BE003F00CF878617B89B7
:10378000F86819467A697B6800F044F838613B694B
:1037900018461837BD4680BD53454D4180B483B0AF
:1037A00000AF78607B680E4ADA617B6800225A615C
:1037B0000C4B1B68002B03D17B6800229A6107E049
:1037C000084B1A687B689A61064B1B687A685A61D5
:1037D000044B7A681A600C37BD465DF8047B70476D
:1037E000B8700008147F002080B483B000AF786008
:1037F000064B00221A60064B00221A807B680022CA
:103800001A800C37BD465DF8047B7047147F00209A
:10381000A081002080B58EB002AFF8607A603B6076
:103820000B467B8100237B62FCF7DCFC7862FB6843
:1038300008333B623B6A1B89002B21D1FB681B6A62
:10384000B3F1FF3F08D1786AFCF7D0FC3B6846F63D
:10385000C5521A80002348E000BFFB681B6A5A1C4F
:10386000FB681A62FB681B6AFB61FB687A685A6234
:10387000786AFCF7BBFC3B6800221A80FB6934E0E5
:103880007B8903F40073002B03D03B6A1B89FB8503
:1038900001E00123FB853B6A1B68BB6212E0BB6A47
:1038A0009B68BB61BB6A5B687B617B680093F8685F
:1038B000B9690022002300F035FD7B69BB62FB8DF6
:1038C000013BFB85FB8D002BE9D1FB681B6AFB618B
:1038D000786AFCF78BFC7B891BB2002B01DB00F0C4
:1038E000F1F93B6800221A80FB6918463037BD4663
:1038F00080BD00BF80B483B000AF00237B6007E0D1
:10390000074B7A68002143F822107B6801337B6003
:103910007B68012BF4D90C37BD465DF8047B7047FA
:10392000AC82002080B582B000AF0023FB700E4B4C
:103930007B6005E0FB782033FB707B6804337B60A1
:103940007B681B68002BF5D07B681B681846FCF76A
:1039500054FC0346DAB2FB781344FB70FB7818463C
:103960000837BD4680BD00BFAC82002080B487B060
:1039700000AF0346FB71FB795B09FB75FB7903F034
:103980001F033B610123FB603B69C3F11F03FA681E
:1039900002FA03F3FB60FA7DF97D064B53F8211020
:1039A000FB681943034B43F822101C37BD465DF8F2
:1039B000047B7047AC82002080B487B000AF034620
:1039C000FB71FB795B09FB75FB7903F01F033B611E
:1039D0000123FB603B69C3F11F03FA6802FA03F39A
:1039E000FB60FA7DF97D074B53F82110FB68DB4340
:1039F0001940044B43F822101C37BD465DF8047B88
:103A0000704700BFAC82002080B584B000AF786002
:103A1000FDF7F8F8564B00221A70564B00221A7028
:103A2000554B00221A70554B00221A60544B00224D
:103A30001A60544B00221A70534B00221A70534BD9
:103A400000221A70524B1B68002B15D0514B1B687B
:103A5000FB60FB68002B0FD04D4B1B68BB6008E080
:103A6000BB68013BBB60FB6800221A60FB68043343
:103A7000FB60BB68002BF3D1474B00221A60474B19
:103A800000221A60464B00221A60464B00221A6040
:103A9000454B00221A60454B00221A60444B00221D
:103AA0001A60444B00221A70FFF724FF00F0F0FC6C
:103AB0007868FDF78DFD7B681B88002B00D053E0F4
:103AC000786801F039F97B681B88002B00D04BE047
:103AD0007868FEF7FBFD7B681B88002B00D043E075
:103AE000786802F08DFD7B681B88002B00D03BE0DE
:103AF000786801F04BFE7B681B88002B00D033E018
:103B00007868FFF771FE7B681B88002B00D02BE0E4
:103B1000786802F095FA7B681B88002B00D023E0C0
:103B2000786800F0FFF97B681B88002B00D01BE051
:103B30007868FDF7D3FE7B681B88002B00D013E06C
:103B4000786801F08FF87B681B88002B00D00BE0B1
:103B5000786802F02FFE7B681B88002B00D003E002
:103B6000FFF78CFB01F048FC1037BD4680BD00BF5D
:103B70000A8000200D7C0020FC7B0020E47F0020D8
:103B8000F07F00201C7F0020107F0020EC7F0020B1
:103B90002C71000828710008187F0020FC7F00208D
:103BA000007C0020A8810020C4810020B481002076
:103BB000008000200C7C002080B400AF094B1B78F3
:103BC000012B00D00AE0084B1B78F92B00D905E047
:103BD000054B1B780133DAB2034B1A70BD465DF812
:103BE000047B70470D7C00200A80002080B582B0E5
:103BF00000AF00237B602B4B1B78012B00D04DE0E6
:103C0000FCF7F0FA7860284B1B78002B03D178681A
:103C1000FCF7ECFA42E0244B1B78013BDAB2224B72
:103C20001A70214B1B78002B03D07868FCF7DEFA62
:103C300034E01E4B1B78002B03D07868FCF7D6FAD3
:103C40002CE0FFF76FFE03461A46194B1A70184B0B
:103C50001B781A46174913465B0013449B000B441C
:103C60001A68154B1A60144B1A68144B1B689A4259
:103C700003D17868FCF7BAFA10E00F4B1B68D3F851
:103C800090200132C3F890200D4B1B685A1C0C4B3E
:103C90001A60FCF76FFC7868FCF7A8FA0837BD4695
:103CA00080BD00BF0D7C00200A800020FC7B00202E
:103CB000107F0020107C0020F07F0020E47F002097
:103CC0000480002080B582B000AF00237B601E4BD3
:103CD0001B78002B00D034E01C4B1B78002B00D04D
:103CE0002FE0FCF77FFA7860FFF71CFE03461A46C8
:103CF000174B1A70164B1B781A46164913465B0071
:103D000013449B000B441A68134B1A60124B1A6839
:103D1000124B1B689A4203D17868FCF767FA10E0EF
:103D20000D4B1B68D3F890200132C3F890200C4B48
:103D30001B685A1C0A4B1A60FCF718FC7868FCF7E1
:103D400055FA0837BD4680BD0A800020FC7B002064
:103D5000107F0020107C0020F07F0020E47F0020F6
:103D60000480002080B584B000AF78600023FB6041
:103D7000164B1B78002B04D07B6846F662521A80E3
:103D800020E0134B1B78012B04D07B6845F6896239
:103D90001A8017E00F4B1B78F92B04D97B6845F28A
:103DA00009221A800EE0FCF71DFAF860094B1B7817
:103DB0000133DAB2074B1A70F868FCF717FA7B6820
:103DC00000221A801037BD4680BD00BF0A80002047
:103DD0000D7C0020FC7B002080B584B000AF7860B3
:103DE0000023FB601D4B1B78002B04D07B6846F63C
:103DF00065521A802EE01A4B1B78012B04D07B6889
:103E000045F689621A8025E0164B1B78002B04D1F9
:103E10007B6846F664521A801CE0FCF7E3F9F86010
:103E2000104B1B78013BDAB20E4B1A700D4B1B780E
:103E3000002B07D0F868FCF7D9F97B6846F6635287
:103E40001A8007E0F868FCF7D1F9FFF73BFF7B68C1
:103E500000221A801037BD4680BD00BF0A800020B6
:103E60000D7C0020FC7B002080B582B000AF786024
:103E7000174B1B78002B23D1FFF754FD03461A463E
:103E8000144B1A70134B1A78134B1A70114B1B7882
:103E90001A46124913465B0013449B000B441A68F0
:103EA0000F4B1A600E4B1A680E4B1A60084B01221A
:103EB0001A70FCF74BFB7B6843F699221A8003E0EB
:103EC0007B6845F68A621A800837BD4680BD00BF10
:103ED0000D7C0020107F00201C7F0020107C002023
:103EE000F07F0020E47F002080B584B000AF7860D0
:103EF0000023FB60FCF776F9F860084B1B685A1C3E
:103F0000064B1A60064B1B685A1C054B1A60F86872
:103F1000FCF76CF9FCF76AFEECE700BFBC810020FF
:103F2000087C002080B58CB00AAF7860104B00226E
:103F30001A60104B1968104B1A68104B1B683F2011
:103F400000900191029203930023049300230593B0
:103F5000002306930B2307937B68089308480949BD
:103F6000094A002301F08AFC0837BD4680BD00BF26
:103F7000BC810020FC70000800710008047100087A
:103F8000DC800020BC700008E93E000880B586B0E7
:103F900000AFF860B9603B601346FB711A4B1B68B9
:103FA000FA7983F83420184B1B68002283F83520F7
:103FB000154B1B681846396800F082FBBB68002B64
:103FC00011D0BB6808337B61FB68BA68DA600E4BBE
:103FD0001B681846F968012200F018F87869F9683A
:103FE00000F0BCF807E0084B1B680022DA87064B9C
:103FF0001B6800221A63044B1B68B868194600F05E
:1040000039F81837BD4680BDE47F002080B487B002
:1040100000AFF860B9601346FB80FB68FA88DA8766
:10402000FB68BA681A630023FB821AE0BB680022AF
:104030005A60BB6800221A60BB6800221A61BB6824
:1040400000225A61BB6800221A83BB680022DA6131
:10405000BB68FA689A60BB682033BB60FB8A013397
:10406000FB82FA8AFB889A42E0D31C37BD465DF892
:10407000047B704780B487B000AF786039607B689C
:10408000002B12D07B685A683B68C3F8BC207B6861
:1040900008337B617B691B683B613B699B68FB6004
:1040A000FB681A6A7B68DA6116E03B6893F8343083
:1040B000022B02D0072B05D009E03B68094AC3F860
:1040C000BC2009E03B68084AC3F8BC2004E03B6818
:1040D000064AC3F8BC2000BF1C37BD465DF8047B10
:1040E000704700BFD0700008D8700008E470000866
:1040F00080B487B000AF786039603B680D4AC3F880
:10410000BC207B6808337B617B691B683B613B6932
:10411000002B07D03B699B68FB60FB681A6A7B68D1
:10412000DA6102E07B68034ADA611C37BD465DF85C
:10413000047B7047E470000880B483B000AF7860FF
:104140007B6800221A607B6800225A607B6800222C
:104150001A810C37BD465DF8047B704780B489B086
:1041600000AF786039603B689B68BB61BB6993F8BE
:104170003730FB757B681B89002B0FD17B680122D0
:104180001A813B6800225A603B6800221A607B68F3
:104190003A681A607B683A685A604CE07B681B8911
:1041A00001339AB27B681A817B681B68FB610CE063
:1041B000FB699B683B613B6993F83730FA7D9A4213
:1041C00000D205E0FB695B68FB61FB69002BEFD166
:1041D000FB69002B0FD13B6800225A607B685B684B
:1041E000FB603B68FA681A60FB683A685A607B6853
:1041F0003A685A601FE0FB691B68002B0CD1FB6911
:104200003A681A603B6800221A603B68FA695A6093
:104210007B683A681A600EE0FB691B68FB603B68CC
:10422000FA681A603B68FA695A60FB683A685A6033
:10423000FB693A681A602437BD465DF8047B704715
:1042400080B586B000AF78607B681B6B3B617B6894
:10425000DB8FFB820FE03B69DB68FB60FB680833A8
:10426000BB60B868396900F013F83B6920333B61E3
:10427000FB8A013BFB82FB8A002BECD17B6800228E
:10428000DA877B6800221A631837BD4680BD00BFFD
:1042900080B485B000AF786039607B681B89012BE2
:1042A00006D17B6800221A607B6800225A6027E0F2
:1042B0003B681B68002B09D13B685B68FB60FB68AF
:1042C00000221A607B68FA681A6019E03B685B6834
:1042D000002B09D13B681B68BB60BB6800225A6099
:1042E0007B68BA685A600BE03B681B68BB603B6840
:1042F0005B68FB60BB68FA685A60FB68BA681A6062
:104300007B681B89013B9AB27B681A813B6800225B
:104310005A603B6800221A601437BD465DF8047B82
:10432000704700BF80B586B002AFF860B9607A60B0
:104330007B80BB6893F83630072B77D801A252F800
:1043400023F000BF2D4400082D44000865430008F9
:10435000654300082D4400082D440008C9430008A7
:10436000C9430008BB6893F83430032B08D17B881D
:10437000BA690092F868B9687A6800F05BF809E0F9
:10438000BB687A68DA65BB687A88A3F86020BB6886
:10439000BA691A64FB68002B06D0B868FFF750FFB3
:1043A000F868B968FFF7A4FEB86800F0AFF9BB6819
:1043B000002283F83620BB68002283F83520BB68D2
:1043C000002283F8342032E0BB6893F83430032BAA
:1043D00008D17B88BA690092F868B9687A6800F0F9
:1043E00029F809E0BB687A68DA65BB687A88A3F8BF
:1043F0006020BB68BA691A64B868FDF7EBFBFB681C
:10440000002B06D0B868FFF71BFFF868B968FFF704
:104410006FFEBB68042283F83620BB68002283F855
:104420003520BB68002283F8342000E000BF10373D
:10443000BD4680BD80B487B000AFF860B9607A60D7
:104440007B80BB681B6B3B61BB68DB8FFB8217E02B
:104450003B69DA68FB689A420CD13B69FA681A61D9
:104460003B697A685A613B697A881A833B693A6A80
:10447000DA6108E03B6920333B61FB8A013BFB8248
:10448000FB8A002BE4D11C37BD465DF8047B7047E6
:1044900080B483B000AF0023FB7113E0FA791346B8
:1044A0005B0013449B000B4A13443B603B680022B3
:1044B0001A813B6800221A603B6800225A60FB792F
:1044C0000133FB71FB793F2BE8D90C37BD465DF812
:1044D000047B7047107C002080B582B000AF78600C
:1044E0007B6893F837301846FFF740FA7B6893F8FB
:1044F0003720074B1B789A4203D1786800F04AF8BE
:1045000002E0786800F006F80837BD4680BD00BFBD
:104510001C7F002080B485B000AF78607B6893F882
:1045200037301A4613465B0013449B00184A134465
:10453000FB60FB681B89002B0FD1FB6801221A81ED
:104540007B680022DA607B6800221A61FB687A6867
:104550001A60FB687A685A6015E0FB681B890133B2
:104560009AB2FB681A81FB681A687B68DA607B681C
:1045700000221A61FB681B68BB60BB687A681A611D
:10458000FB687A681A601437BD465DF8047B704793
:10459000107C002080B485B000AF78607B6893F811
:1045A00037301A4613465B0013449B00184A1344E5
:1045B000FB60FB681B89002B0FD1FB6801221A816D
:1045C0007B680022DA607B6800221A61FB687A68E7
:1045D0001A60FB687A685A6014E0FB681B89013333
:1045E0009AB2FB681A817B680022DA60FB685B681C
:1045F000BB607B68BA681A61BB687A68DA60FB687E
:104600007A685A601437BD465DF8047B704700BF76
:10461000107C002080B586B000AF78607B6893F88E
:1046200037301A4613465B0013449B00234A134459
:104630007B617B681B693B617B68DB68FB603B6976
:10464000002B1FD1FB68002B0FD17B6900221A8140
:104650007B6900221A607B6900225A607B6893F8AC
:1046600037301846FFF7A8F91FE07B691B89013B2B
:104670009AB27B691A81FB6800221A617B69FA6829
:104680001A6012E07B691B89013B9AB27B691A812F
:104690003B69FA68DA60FB68002B03D17B693A69F1
:1046A0005A6002E0FB683A691A617B6800221A616D
:1046B0007B680022DA601837BD4680BD107C002080
:1046C00080B584B000AF786039603B68002B13D0B0
:1046D00007F10E03786839680222FDF781F9FB893A
:1046E000002B04D17B68032283F8362008E07B6826
:1046F000022283F8362003E07B68022283F836200A
:104700007868FFF787FF1037BD4680BD80B582B05F
:1047100000AF78607868FDF75DFA7B6893F8363013
:1047200003F00403002B02D17868FFF7D5FE0837A9
:10473000BD4680BD80B586B000AF78600023FB60C9
:10474000FBF750FDF8603B4B00221A803A4B0022E9
:104750001A603A4B00221A60394B00221A60394B1A
:1047600000221A81F868FBF741FDFBF73BFDF8607A
:10477000354B1B687B61F868FBF738FD30E0FBF7D1
:1047800031FDF8607B6900229A677B690022C3F8DB
:10479000A8207B690022C3F890207B690022A3F83F
:1047A0008C207B690022A3F88E207B690022C3F84D
:1047B0009C207B690022C3F8A02001F0EBFF024699
:1047C0007B69C3F898207B696433BB60BB680022B7
:1047D0009A817B69D3F8B8307B61F868FBF706FDF6
:1047E0007B69002BCBD1FBF7FDFCF860174B1B68F6
:1047F0003B61F868FBF7FAFC0EE0FBF7F3FCF860AE
:104800003B692033BB60BB6800229A813B699B698E
:104810003B61F868FBF7EAFC3B69002BEDD1FDF743
:104820001FFA02F01BF97B6800221A801837BD4678
:1048300080BD00BFEA7F0020047C00209C82002015
:10484000F87F0020D0800020F47F00209C81002091
:1048500080B586B000AF786000233B6107F10E039E
:104860003248194601F062FBFB89002B03D0FA891C
:104870007B681A8056E007F10E03022000211A46D9
:10488000FBF7C6FCFB89002B03D0FA897B681A80F2
:1048900048E0FBF7A7FC3861254B00221A60386915
:1048A000FBF7A4FC00237B61224B1A68224B1B6898
:1048B0009A4206D91F4B1A681F4B1B68B2FBF3F3D1
:1048C0007B617B69002B06D11A4B1A681B4BA3FB3B
:1048D0000213DB087B6107F10E03786900211A4699
:1048E000FBF796FC07F10E031048194601F060F93A
:1048F000FB89002B03D0FA897B681A8012E0FBF752
:1049000071FC38610E4B00221A60094B1A680D4B7E
:104910001A600D4B01221A703869FBF767FC7B683F
:1049200000221A801837BD4680BD00BF10800020CD
:10493000087C00205C71000844710008CDCCCCCC10
:10494000047C0020AC810020117F002080B590B055
:1049500000AF78600023BB6109E0854B1B685A00FB
:1049600007F10A03104600211A46FBF751FC814B60
:104970001B78012BF1D107F10A031846FFF7DAFE85
:104980000023FB617C4B1A68794B1B689A4206D95D
:10499000794B1A68764B1B68B2FBF3F3FB61FB693A
:1049A000002B06D1744B1A68744BA3FB0213DB086F
:1049B000FB6101F0EFFE7861FBF714FCB861704B0E
:1049C0001A68704B1A606E4B00221A60B869FBF7C8
:1049D0000DFC6D4B1A686B4B1B689A424FD96A4BA2
:1049E0001A686A4B9A4205D842F210737B6201231F
:1049F0003B6224E0644B1A68654B9A4205D84FF439
:104A00007A737B620A233B6219E05F4B1A68614B41
:104A10009A4204D864237B6264233B620FE05A4BC2
:104A20001A685D4B9A4205D80A237B624FF47A7369
:104A30003B6204E001237B6242F210733B62524B03
:104A40001A683B6AB2FBF3F33B614E4B1B687A6A10
:104A500002FB03F23B69B2FBF3F39BB2C3F51C53B9
:104A600010339AB24D4B1A804D4B1A884B4B1B8812
:104A70009A4208D2494B1A88494B1A8003E0474BA7
:104A800042F210721A80FCF7D9F80023BB63FBF7DF
:104A9000A9FBB861434B1B68BB62B869FBF7A6FB77
:104AA0001FE0FBF79FFBB861BB6AD3F89C20BB6A91
:104AB000C3F8A020BB6A0022C3F89C20B869FBF7AA
:104AC00095FBBB6AD3F8A030BA6B1344BB63FBF70A
:104AD00089FBB861BB6AD3F8B830BB62B869FBF731
:104AE00085FBBB6A002BDCD1BB6B002B31D0BA6BD2
:104AF000264B9A4205D842F210733B6301237B6335
:104B000021E0BA6B224B9A4205D84FF47A733B638B
:104B10000A237B6317E0BA6B1E4B9A4204D86423C6
:104B20003B6364237B630EE0BA6B1B4B9A4205D850
:104B30000A233B634FF47A737B6304E001233B63F6
:104B400042F210737B63BA6B7B6BB2FBF3F3FB62D5
:104B500003E000233B630123FB62FBF743FBB861E7
:104B6000104B1B68BB62B869FBF740FB51E000BF0C
:104B700044710008117F00205C710008CDCCCCCCC2
:104B8000087C0020C0810020AC8100207F1A060034
:104B9000FF083D00FF596202FF83D71708800020FD
:104BA000EA7F0020F47F0020BB6AD3F8A0303A6B84
:104BB00002FB03F2FB6AB2FBF3F3FB87FA8F42F2CC
:104BC00010739A4202D942F21073FB87BB6AFA8FC4
:104BD000A3F88C20BB6AB3F88E30FA8F9A4203D9BF
:104BE000BB6AFA8FA3F88E20BB6A03F1B001BB6ADF
:104BF00003F1AC0207F10A03B86A01F01FF9FBF7F1
:104C0000F1FAB861BB6AD3F8B830BB62B869FBF798
:104C1000EDFABB6A002BC7D1104B1B78012B07D1D3
:104C20000E4B00221A7007F10A031846FFF782FDA7
:104C300001F0B0FD02467B69D31AFB60084B1A688D
:104C4000FB689A4202D2064BFA681A6007F10A031F
:104C5000F86900211A46FBF7DBFAAAE6D0810020AA
:104C6000047C002080B58CB00AAF7860254B002210
:104C70001A60254B00221A60244B00221A60244B34
:104C800000221A70234B00221A70234B1B68002B42
:104C900004D17B6846F62B621A802FE01F4B1A68FE
:104CA0001F4B1B689A4204D27B6846F62C621A801E
:104CB00024E01C4B1B783E2B04D97B6846F62A6205
:104CC0001A801BE0174B1878134B1968164B1A689B
:104CD000124B1B68009001910292039300230493EE
:104CE0000023059300230693032307937B6808930F
:104CF0000E480F490F4A002300F0C0FD0837BD469B
:104D000080BD00BF087C0020C0810020AC81002055
:104D1000117F0020D08100204871000850710008E8
:104D200058710008407100084C710008D8810020BB
:104D3000E87000084D49000880B483B000AF786087
:104D4000064B00221A60064B00221A807B68002264
:104D50001A800C37BD465DF8047B7047A4810020A3
:104D6000D281002080B483B000AF78607B68922B42
:104D700000F2608101A252F823F000BFC94F000881
:104D8000C94F0008C94F0008C94F0008C94F0008A3
:104D9000C94F0008C94F0008C94F0008C94F000893
:104DA000355000083550000835500008C94F00083C
:104DB00035500008355000083550000835500008BF
:104DC00035500008C94F000835500008C94F000889
:104DD000C94F0008C94F0008355000083550000879
:104DE000C94F0008C94F0008C94F0008C94F000843
:104DF000C94F0008C94F000835500008DD4F0008B2
:104E0000355000083550000835500008DD4F0008C7
:104E1000DD4F0008DD4F0008DD4F00083550000869
:104E2000355000083550000835500008355000084E
:104E3000355000083550000835500008355000083E
:104E4000355000083550000835500008355000082E
:104E5000355000083550000835500008355000081E
:104E6000355000083550000835500008355000080E
:104E7000355000083550000835500008F34F000841
:104E800035500008355000083550000835500008EE
:104E900035500008355000083550000835500008DE
:104EA00035500008355000083550000835500008CE
:104EB00035500008355000083550000835500008BE
:104EC00035500008355000083550000835500008AE
:104ED000355000083550000835500008355000089E
:104EE000355000083550000835500008355000088E
:104EF00035500008355000083550000809500008AA
:104F0000095000080950000809500008095000081D
:104F1000095000080950000809500008095000080D
:104F20003550000835500008095000083550000879
:104F30003550000809500008095000083550000895
:104F400009500008095000080950000809500008DD
:104F500009500008095000080950000835500008A1
:104F60000950000809500008355000080950000891
:104F70000950000835500008355000081F5000083F
:104F80001F50000835500008355000081F50000819
:104F90001F50000835500008355000081F50000809
:104FA0001F5000081F5000081F5000081F50000825
:104FB000355000081F500008355000081F500008E9
:104FC0001F5000081F5000081D4B1D4A11687A68C9
:104FD000012000FA02F20A431A602BE0194B194A29
:104FE00011687A68203A012000FA02F20A431A6036
:104FF00020E0154B144A11687A68403A012000FA03
:1050000002F20A431A6015E0104B104A11687A68E0
:10501000603A012000FA02F20A431A600AE00C4BDF
:105020000B4A11687A68803A012000FA02F20A43BA
:105030001A6000BF0C37BD465DF8047B704700BFA7
:10504000303802403438024038380240403802409C
:105050004438024080B487B000AF786039600023E4
:105060007B6100233B610023FB6000237B6176E0D2
:105070007B69012202FA03F33B613B681A683B69D2
:105080001340FB60FA683B699A4265D17B681A68F5
:105090007B695B00032101FA03F3DB431A407B6861
:1050A0001A607B681A683B681B7919467B695B004C
:1050B00001FA03F31A437B681A603B681B79012BE2
:1050C00003D03B681B79022B2ED17B689A687B69E1
:1050D0005B00032101FA03F3DB431A407B689A600B
:1050E0007B689A683B685B7919467B695B0001FACB
:1050F00003F31A437B689A607B685A687B699BB2AA
:10510000012101FA03F3DB431A407B685A607B6894
:105110005A683B689B7919467B699BB201FA03F395
:105120009BB21A437B685A607B68DA687B699BB2E2
:105130005B00032101FA03F3DB431A407B68DA606A
:105140007B68DA683B68DB7919467B695B0001FAAA
:1051500003F31A437B68DA607B6901337B617B6907
:105160000F2B85D91C37BD465DF8047B704700BF07
:1051700080B485B000AF78600B467B800023FB7362
:105180007B681A697B881340002B02D00123FB73D4
:1051900001E00023FB73FB7B18461437BD465DF826
:1051A000047B704780B483B000AF78600B467B808F
:1051B0007B687A881A830C37BD465DF8047B70479C
:1051C00080B483B000AF78600B467B807B687A88C0
:1051D0005A830C37BD465DF8047B704780B483B0BA
:1051E00000AF7860044B7A68D2B21A700C37BD46B3
:1051F0005DF8047B704700BF003C024080B483B080
:1052000000AF0346FB71FB79002B06D0084B084A20
:10521000126842F480721A6005E0054B044A126875
:1052200022F480721A600C37BD465DF8047B70472B
:10523000003C024080B500AF012000F001F880BDC5
:1052400080B584B000AF78600023FB60FAF7CAFF36
:10525000F860044B7A681A60F868FAF7C7FF1037ED
:10526000BD4680BDB482002080B500AF154B154A05
:10527000D2F8882042F47002C3F88820124B124AF8
:10528000126842F001021A600F4B00229A600E4A27
:105290000D4B1B6823F0847323F4803313600A4B97
:1052A0000A4A5A60084B084A126822F480221A609F
:1052B000054B0022DA6000F00BF8024B4FF0006261
:1052C0009A6080BD00ED00E00038024010300024FC
:1052D00080B483B000AF00237B6000233B60414B70
:1052E000404A126842F480321A603E4B1B6803F455
:1052F00000333B607B6801337B603B68002B03D14C
:105300007B68B3F5A04FF0D1364B1B6803F4003334
:10531000002B02D001233B6001E000233B603B688F
:10532000012B42D12F4B2F4A126C42F080521A644B
:105330002D4B2D4A126842F440421A60294B294AEB
:1053400092689A60274B274A926842F400429A601A
:10535000244B244A926842F4A0529A60214B234A7B
:105360005A60204B1F4A126842F080721A6000BFD8
:105370001C4B1B6803F00073002BF9D01C4B40F250
:1053800005621A60174B174A926822F003029A606E
:10539000144B144A926842F002029A6000BF114B0B
:1053A0009B6803F00C03082BF9D10E4B0D4A926851
:1053B00022F400029A600B4B0E4AC3F88420094B7A
:1053C000084A126842F080621A6000BF054B1B68F1
:1053D00003F00063002BF9D00C37BD465DF8047B69
:1053E000704700BF0038024000700040085440077A
:1053F000003C02408040003080B400AFBD465DF804
:10540000047B704780B586B000AFF860B9603B6040
:105410001346FB8000237B61204B1B78002B04D0BC
:105420003B6842F6E1621A8034E0FB68002B04D14D
:105430003B6845F6C3521A802CE0FB88002B04D150
:105440003B6846F294521A8024E0FAF7CBFE78616A
:10545000FB68134A1A60FB68BA685A60FB6803F17C
:105460002002FB8810461946FDF7D4F9FB68083383
:105470001846FEF761FEF86800F062F9094B1B88D8
:1054800001339AB2074B1A807869FAF7AFFE3B688E
:1054900000221A801837BD4680BD00BF0A80002058
:1054A00051554555E87F002080B58EB000AFF860BB
:1054B000B9603B601346FB8000233B63724B1B7853
:1054C000002B05D07B6C46F2AE121A800023D7E089
:1054D000FB68002B05D17B6C45F6C3521A80002374
:1054E000CEE03B68002B05D17B6C46F2D5221A80BA
:1054F0000023C5E0FB88002B08D0B3F5004F05D092
:105500007B6C45F625621A800023B9E000BFFB687A
:105510001A685E4B9A4205D07B6C45F6C4521A80DD
:105520000023ADE03B6C002B02D03B6C00221A60E4
:10553000FAF758FE3863FB682033184639683A6C2E
:105540007B6CFDF781F978637B6C1B88002B04D1A1
:10555000386BFAF74BFE7B6B92E0FB881BB2002B9B
:1055600008DA386BFAF742FE7B6C46F2B0121A800A
:10557000002385E0464B1B78002B08D0386BFAF7E8
:1055800035FE7B6C46F663521A80002378E007F103
:1055900010031846F9680522BB68FEF7F7FC386B64
:1055A000FAF724FEFEF78EFBFAF71CFE3863394B40
:1055B0001B6893F83530032B54D801A252F823F01E
:1055C000D1550008FD550008415600082156000835
:1055D000304B1B68DB6D7B632E4B1B68B3F8602080
:1055E0003B681A803B6C002B04D02A4B1B681A6C5A
:1055F0003B6C1A607B6C00221A803DE000237B63C9
:105600003B6800221A803B6C002B04D0214B1B68A6
:105610001A6C3B6C1A607B6C46F2A9121A802BE064
:1056200000237B633B6800221A803B6C002B02D076
:105630003B6C00221A607B6C47F2D9221A801BE077
:1056400000237B633B6800221A803B6C002B04D054
:10565000104B1B681A6C3B6C1A607B6C45F6C2528F
:105660001A8009E000237B633B6800221A807B6C70
:1056700046F62E621A8000BF386BFAF7B7FD7B6BD7
:1056800018463837BD4680BD0A8000205155455523
:10569000FC7B0020E47F002080B588B002AFF8607A
:1056A000B960FA80BB80FB68002B04D13B6A45F6E9
:1056B000C3521A803EE0BB88B3F5047F22D0B3F515
:1056C000047F07DC102B1DD0B3F5007F1AD0002B10
:1056D00018D012E048F21002934213D048F21002A0
:1056E000934203DCB3F5004F0CD006E0B3F5024F54
:1056F00008D048F21022934204D03B6A45F6256256
:105700001A8017E000BFFB681A680C4B9A4204D05D
:105710003B6A45F6C4521A800CE001F03BF8786110
:10572000FA88BB8879690091396A0191F868B9688B
:1057300000F042F81837BD4680BD00BF51554555B1
:1057400080B483B000AF78607B680E4ADA617B6812
:1057500000225A610C4B1B68002B03D17B6800228E
:105760009A6107E0084B1A687B689A61064B1B68D0
:105770007A685A61044B7A681A600C37BD465DF846
:10578000047B7047A47100089C81002080B483B022
:1057900000AF7860064B00221A60064B00221A8088
:1057A0007B6800221A800C37BD465DF8047B704789
:1057B0009C810020E87F002080B58CB002AFF860AB
:1057C000B960FA80BB800023FB61FAF70BFDF8613A
:1057D000FB680833BB61BB691B89002B1AD1BB88EE
:1057E00003F01003002B02D10023BB8401E010233F
:1057F000BB84FB6803F12001FA88BB8C386B0090F6
:10580000786B01900846B968FDF77EF8F869FAF7F9
:10581000EDFC30E0BB8803F40073002B03D0BB69C0
:105820001B89FB8401E00123FB84BB691B683B628D
:1058300012E03B6A9B687B613B6A5B683B61FB886B
:105840003A6B0092F8687969BA68FEF76BFD3B69BC
:105850003B62FB8C013BFB84FB8C002BE9D1F8699C
:10586000FAF7C4FCBB881BB2002B01DBFEF72AFA57
:105870007B6B00221A802837BD4680BD80B58CB076
:1058800002AFF860B9607A603B600023BB61744B83
:105890001B78002B04D03B6D47F24A121A80DCE0E3
:1058A000FB68002B04D13B6D47F2AD121A80D4E0A7
:1058B0007B68002B04D13B6D47F24F121A80CCE07D
:1058C0007B6B002B04D13B6D46F62F621A80C4E03F
:1058D000644B1B68FA6B9A4204D23B6D46F6306209
:1058E0001A80BAE0BA6BFB6B9A4204D33B6D46F662
:1058F00031621A80B1E097F830303F2B04D93B6D0C
:1059000046F273221A80A8E097F830303F2B08D176
:10591000FA68554B9A4204D03B6D46F273221A80C6
:105920009BE0F86800F0A8FB3B6D00221A80B7F8F6
:105930004C3003F00103002B17D0B7F84C3003F0C4
:105940000203002B11D07B6BFB6100237B6208E01C
:10595000FB6900221A60FB690433FB617B6A013337
:105960007B627A6AFB6B9A42F2D3BB6B9B007A6BC9
:1059700013447B61FB6B0093B7F84C30019378685C
:1059800039687A6B7B69FBF79BF9F861FB687A6889
:105990009A62FB683A68DA62FB68BA681A62FB6866
:1059A00097F8302083F83720FB68FA691A60FB68A3
:1059B0007A699A60FB687A6C5A65FB68BA6C5A60BF
:1059C000FB687A6B5A62FB68FA6B9A63FB68B7F8FC
:1059D0004C209A87002387F823300CE097F8233077
:1059E000FA681E339B00134400225A6097F8233054
:1059F000013387F8233097F82330002BEED0FB6873
:105A000003F16402B7F8403010461946FCF702FF74
:105A1000F868FBF71FF9FAF7E5FBB861FB6893F844
:105A200037301846FDF7A2FFF868FEF7B3FDF868B7
:105A300000F09EFA0D4B1B8801339AB20B4B1A8073
:105A40000B4B1B78012B03D0B869FAF7CFFB04E0AE
:105A5000B869FAF7CBFBFEF735F92837BD4680BDAC
:105A60000A80002058710008DC8000200C80002093
:105A70000D7C002080B584B000AF786039600023D1
:105A8000FB60474B1B78002B04D03B6847F24E125B
:105A90001A8082E07A68434B9A4204D13B6847F20D
:105AA0004C121A8079E07B68002B08D1FAF79AFB38
:105AB000F8603D4B1B687B60F868FAF797FBFAF7D4
:105AC00091FBF8607B6893F83630072B3CD801A235
:105AD00052F823F0F55A0008FD5A0008055B00084B
